{
  "abi": [
    {
      "inputs": [
        {
          "internalType": "contract IJBDirectory",
          "name": "_directory",
          "type": "address"
        }
      ],
      "stateMutability": "nonpayable",
      "type": "constructor"
    },
    {
      "inputs": [],
      "name": "TERMINAL_NOT_FOUND",
      "type": "error"
    },
    {
      "inputs": [
        {
          "components": [
            {
              "internalType": "address",
              "name": "token",
              "type": "address"
            },
            {
              "internalType": "uint256",
              "name": "amount",
              "type": "uint256"
            },
            {
              "internalType": "uint256",
              "name": "decimals",
              "type": "uint256"
            },
            {
              "internalType": "uint256",
              "name": "projectId",
              "type": "uint256"
            },
            {
              "internalType": "uint256",
              "name": "group",
              "type": "uint256"
            },
            {
              "components": [
                {
                  "internalType": "bool",
                  "name": "preferClaimed",
                  "type": "bool"
                },
                {
                  "internalType": "bool",
                  "name": "preferAddToBalance",
                  "type": "bool"
                },
                {
                  "internalType": "uint256",
                  "name": "percent",
                  "type": "uint256"
                },
                {
                  "internalType": "uint256",
                  "name": "projectId",
                  "type": "uint256"
                },
                {
                  "internalType": "address payable",
                  "name": "beneficiary",
                  "type": "address"
                },
                {
                  "internalType": "uint256",
                  "name": "lockedUntil",
                  "type": "uint256"
                },
                {
                  "internalType": "contract IJBSplitAllocator",
                  "name": "allocator",
                  "type": "address"
                }
              ],
              "internalType": "struct JBSplit",
              "name": "split",
              "type": "tuple"
            }
          ],
          "internalType": "struct JBSplitAllocationData",
          "name": "_data",
          "type": "tuple"
        }
      ],
      "name": "allocate",
      "outputs": [],
      "stateMutability": "payable",
      "type": "function"
    },
    {
      "inputs": [],
      "name": "directory",
      "outputs": [
        {
          "internalType": "contract IJBDirectory",
          "name": "",
          "type": "address"
        }
      ],
      "stateMutability": "view",
      "type": "function"
    },
    {
      "inputs": [
        {
          "internalType": "bytes4",
          "name": "_interfaceId",
          "type": "bytes4"
        }
      ],
      "name": "supportsInterface",
      "outputs": [
        {
          "internalType": "bool",
          "name": "",
          "type": "bool"
        }
      ],
      "stateMutability": "view",
      "type": "function"
    }
  ],
  "bytecode": {
    "object": "0x60a060405234801561001057600080fd5b5060405161056f38038061056f83398101604081905261002f91610044565b60601b6001600160601b031916608052610074565b60006020828403121561005657600080fd5b81516001600160a01b038116811461006d57600080fd5b9392505050565b60805160601c6104d761009860003960008181609501526101b601526104d76000f3fe6080604052600436106100345760003560e01c806301ffc9a7146100395780639d740bfa1461006e578063c41c2f2414610083575b600080fd5b34801561004557600080fd5b50610059610054366004610333565b6100dc565b60405190151581526020015b60405180910390f35b61008161007c3660046103b2565b610175565b005b34801561008f57600080fd5b506100b77f000000000000000000000000000000000000000000000000000000000000000081565b60405173ffffffffffffffffffffffffffffffffffffffff9091168152602001610065565b60007fffffffff0000000000000000000000000000000000000000000000000000000082167f9d740bfa00000000000000000000000000000000000000000000000000000000148061016f57507f01ffc9a7000000000000000000000000000000000000000000000000000000007fffffffff000000000000000000000000000000000000000000000000000000008316145b92915050565b6040517f862026500000000000000000000000000000000000000000000000000000000081526101008201356004820181905261eeee6024830152906000907f000000000000000000000000000000000000000000000000000000000000000073ffffffffffffffffffffffffffffffffffffffff169063862026509060440160206040518083038186803b15801561020d57600080fd5b505afa158015610221573d6000803e3d6000fd5b505050506040513d601f19601f82011682018060405250810190610245919061037c565b905073ffffffffffffffffffffffffffffffffffffffff8116610294576040517ffba10dd600000000000000000000000000000000000000000000000000000000815260040160405180910390fd5b604080516020810182526000815290517f0cf8e85800000000000000000000000000000000000000000000000000000000815273ffffffffffffffffffffffffffffffffffffffff831691630cf8e8589134916102fc918791849161eeee91906004016103cb565b6000604051808303818588803b15801561031557600080fd5b505af1158015610329573d6000803e3d6000fd5b5050505050505050565b60006020828403121561034557600080fd5b81357fffffffff000000000000000000000000000000000000000000000000000000008116811461037557600080fd5b9392505050565b60006020828403121561038e57600080fd5b815173ffffffffffffffffffffffffffffffffffffffff8116811461037557600080fd5b600061018082840312156103c557600080fd5b50919050565b84815260006020858184015273ffffffffffffffffffffffffffffffffffffffff8516604084015260a06060840152601360a08401527f7632202d3e20763320616c6c6f636174696f6e0000000000000000000000000060c084015260e0608084015283518060e085015260005b818110156104565785810183015185820161010001528201610439565b8181111561046957600061010083870101525b50601f017fffffffffffffffffffffffffffffffffffffffffffffffffffffffffffffffe0169290920161010001969550505050505056fea26469706673582212200ff22053980dbf308ea3791f07832d3ccebe40ea400c1cc6ea69a02fc7a9fba064736f6c63430008060033",
    "linkReferences": {}
  },
  "methodIdentifiers": {
    "allocate((address,uint256,uint256,uint256,uint256,(bool,bool,uint256,uint256,address,uint256,address)))": "9d740bfa",
    "directory()": "c41c2f24",
    "supportsInterface(bytes4)": "01ffc9a7"
  },
  "id": 2
}