{
  "abi": [
    {
      "inputs": [
        {
          "internalType": "uint256",
          "name": "_projectId",
          "type": "uint256"
        }
      ],
      "name": "ownerOf",
      "outputs": [
        {
          "internalType": "address",
          "name": "",
          "type": "address"
        }
      ],
      "stateMutability": "view",
      "type": "function"
    }
  ],
  "bytecode": {
    "object": "0x608060405234801561001057600080fd5b5060b48061001f6000396000f3fe6080604052348015600f57600080fd5b506004361060285760003560e01c80636352211e14602d575b600080fd5b603d60383660046066565b503390565b60405173ffffffffffffffffffffffffffffffffffffffff909116815260200160405180910390f35b600060208284031215607757600080fd5b503591905056fea264697066735822122075710ea1dedee803fb35b7d6ffae18f7df421b15cfbb39bb6b55cbe0b6fa688564736f6c63430008110033",
    "linkReferences": {}
  },
  "methodIdentifiers": {
    "ownerOf(uint256)": "6352211e"
  },
  "id": 2
}