{
  "abi": [
    {
      "inputs": [
        {
          "internalType": "contract IJBDirectory",
          "name": "_directory",
          "type": "address"
        },
        {
          "internalType": "contract IJBFundingCycleStore",
          "name": "_fundingCycleStore",
          "type": "address"
        },
        {
          "internalType": "contract IJBPrices",
          "name": "_prices",
          "type": "address"
        }
      ],
      "stateMutability": "nonpayable",
      "type": "constructor"
    },
    {
      "inputs": [],
      "name": "CURRENCY_MISMATCH",
      "type": "error"
    },
    {
      "inputs": [],
      "name": "DISTRIBUTION_AMOUNT_LIMIT_REACHED",
      "type": "error"
    },
    {
      "inputs": [],
      "name": "FUNDING_CYCLE_DISTRIBUTION_PAUSED",
      "type": "error"
    },
    {
      "inputs": [],
      "name": "FUNDING_CYCLE_PAYMENT_PAUSED",
      "type": "error"
    },
    {
      "inputs": [],
      "name": "FUNDING_CYCLE_REDEEM_PAUSED",
      "type": "error"
    },
    {
      "inputs": [],
      "name": "INADEQUATE_CONTROLLER_ALLOWANCE",
      "type": "error"
    },
    {
      "inputs": [],
      "name": "INADEQUATE_PAYMENT_TERMINAL_STORE_BALANCE",
      "type": "error"
    },
    {
      "inputs": [],
      "name": "INSUFFICIENT_TOKENS",
      "type": "error"
    },
    {
      "inputs": [],
      "name": "INVALID_FUNDING_CYCLE",
      "type": "error"
    },
    {
      "inputs": [],
      "name": "PAYMENT_TERMINAL_MIGRATION_NOT_ALLOWED",
      "type": "error"
    },
    {
      "inputs": [
        {
          "internalType": "uint256",
          "name": "prod1",
          "type": "uint256"
        },
        {
          "internalType": "uint256",
          "name": "denominator",
          "type": "uint256"
        }
      ],
      "name": "PRBMath__MulDivOverflow",
      "type": "error"
    },
    {
      "inputs": [
        {
          "internalType": "contract IJBSingleTokenPaymentTerminal",
          "name": "",
          "type": "address"
        },
        {
          "internalType": "uint256",
          "name": "",
          "type": "uint256"
        }
      ],
      "name": "balanceOf",
      "outputs": [
        {
          "internalType": "uint256",
          "name": "",
          "type": "uint256"
        }
      ],
      "stateMutability": "view",
      "type": "function"
    },
    {
      "inputs": [
        {
          "internalType": "contract IJBSingleTokenPaymentTerminal",
          "name": "_terminal",
          "type": "address"
        },
        {
          "internalType": "uint256",
          "name": "_projectId",
          "type": "uint256"
        }
      ],
      "name": "currentOverflowOf",
      "outputs": [
        {
          "internalType": "uint256",
          "name": "",
          "type": "uint256"
        }
      ],
      "stateMutability": "view",
      "type": "function"
    },
    {
      "inputs": [
        {
          "internalType": "uint256",
          "name": "_projectId",
          "type": "uint256"
        },
        {
          "internalType": "uint256",
          "name": "_tokenCount",
          "type": "uint256"
        },
        {
          "internalType": "uint256",
          "name": "_totalSupply",
          "type": "uint256"
        },
        {
          "internalType": "uint256",
          "name": "_overflow",
          "type": "uint256"
        }
      ],
      "name": "currentReclaimableOverflowOf",
      "outputs": [
        {
          "internalType": "uint256",
          "name": "",
          "type": "uint256"
        }
      ],
      "stateMutability": "view",
      "type": "function"
    },
    {
      "inputs": [
        {
          "internalType": "contract IJBSingleTokenPaymentTerminal",
          "name": "_terminal",
          "type": "address"
        },
        {
          "internalType": "uint256",
          "name": "_projectId",
          "type": "uint256"
        },
        {
          "internalType": "uint256",
          "name": "_tokenCount",
          "type": "uint256"
        },
        {
          "internalType": "bool",
          "name": "_useTotalOverflow",
          "type": "bool"
        }
      ],
      "name": "currentReclaimableOverflowOf",
      "outputs": [
        {
          "internalType": "uint256",
          "name": "",
          "type": "uint256"
        }
      ],
      "stateMutability": "view",
      "type": "function"
    },
    {
      "inputs": [
        {
          "internalType": "uint256",
          "name": "_projectId",
          "type": "uint256"
        },
        {
          "internalType": "uint256",
          "name": "_decimals",
          "type": "uint256"
        },
        {
          "internalType": "uint256",
          "name": "_currency",
          "type": "uint256"
        }
      ],
      "name": "currentTotalOverflowOf",
      "outputs": [
        {
          "internalType": "uint256",
          "name": "",
          "type": "uint256"
        }
      ],
      "stateMutability": "view",
      "type": "function"
    },
    {
      "inputs": [],
      "name": "directory",
      "outputs": [
        {
          "internalType": "contract IJBDirectory",
          "name": "",
          "type": "address"
        }
      ],
      "stateMutability": "view",
      "type": "function"
    },
    {
      "inputs": [],
      "name": "fundingCycleStore",
      "outputs": [
        {
          "internalType": "contract IJBFundingCycleStore",
          "name": "",
          "type": "address"
        }
      ],
      "stateMutability": "view",
      "type": "function"
    },
    {
      "inputs": [],
      "name": "prices",
      "outputs": [
        {
          "internalType": "contract IJBPrices",
          "name": "",
          "type": "address"
        }
      ],
      "stateMutability": "view",
      "type": "function"
    },
    {
      "inputs": [
        {
          "internalType": "uint256",
          "name": "_projectId",
          "type": "uint256"
        },
        {
          "internalType": "uint256",
          "name": "_amount",
          "type": "uint256"
        }
      ],
      "name": "recordAddedBalanceFor",
      "outputs": [],
      "stateMutability": "nonpayable",
      "type": "function"
    },
    {
      "inputs": [
        {
          "internalType": "uint256",
          "name": "_projectId",
          "type": "uint256"
        },
        {
          "internalType": "uint256",
          "name": "_amount",
          "type": "uint256"
        },
        {
          "internalType": "uint256",
          "name": "_currency",
          "type": "uint256"
        }
      ],
      "name": "recordDistributionFor",
      "outputs": [
        {
          "components": [
            {
              "internalType": "uint256",
              "name": "number",
              "type": "uint256"
            },
            {
              "internalType": "uint256",
              "name": "configuration",
              "type": "uint256"
            },
            {
              "internalType": "uint256",
              "name": "basedOn",
              "type": "uint256"
            },
            {
              "internalType": "uint256",
              "name": "start",
              "type": "uint256"
            },
            {
              "internalType": "uint256",
              "name": "duration",
              "type": "uint256"
            },
            {
              "internalType": "uint256",
              "name": "weight",
              "type": "uint256"
            },
            {
              "internalType": "uint256",
              "name": "discountRate",
              "type": "uint256"
            },
            {
              "internalType": "contract IJBFundingCycleBallot",
              "name": "ballot",
              "type": "address"
            },
            {
              "internalType": "uint256",
              "name": "metadata",
              "type": "uint256"
            }
          ],
          "internalType": "struct JBFundingCycle",
          "name": "fundingCycle",
          "type": "tuple"
        },
        {
          "internalType": "uint256",
          "name": "distributedAmount",
          "type": "uint256"
        }
      ],
      "stateMutability": "nonpayable",
      "type": "function"
    },
    {
      "inputs": [
        {
          "internalType": "uint256",
          "name": "_projectId",
          "type": "uint256"
        }
      ],
      "name": "recordMigration",
      "outputs": [
        {
          "internalType": "uint256",
          "name": "balance",
          "type": "uint256"
        }
      ],
      "stateMutability": "nonpayable",
      "type": "function"
    },
    {
      "inputs": [
        {
          "internalType": "address",
          "name": "_payer",
          "type": "address"
        },
        {
          "components": [
            {
              "internalType": "address",
              "name": "token",
              "type": "address"
            },
            {
              "internalType": "uint256",
              "name": "value",
              "type": "uint256"
            },
            {
              "internalType": "uint256",
              "name": "decimals",
              "type": "uint256"
            },
            {
              "internalType": "uint256",
              "name": "currency",
              "type": "uint256"
            }
          ],
          "internalType": "struct JBTokenAmount",
          "name": "_amount",
          "type": "tuple"
        },
        {
          "internalType": "uint256",
          "name": "_projectId",
          "type": "uint256"
        },
        {
          "internalType": "uint256",
          "name": "_baseWeightCurrency",
          "type": "uint256"
        },
        {
          "internalType": "address",
          "name": "_beneficiary",
          "type": "address"
        },
        {
          "internalType": "string",
          "name": "_memo",
          "type": "string"
        },
        {
          "internalType": "bytes",
          "name": "_metadata",
          "type": "bytes"
        }
      ],
      "name": "recordPaymentFrom",
      "outputs": [
        {
          "components": [
            {
              "internalType": "uint256",
              "name": "number",
              "type": "uint256"
            },
            {
              "internalType": "uint256",
              "name": "configuration",
              "type": "uint256"
            },
            {
              "internalType": "uint256",
              "name": "basedOn",
              "type": "uint256"
            },
            {
              "internalType": "uint256",
              "name": "start",
              "type": "uint256"
            },
            {
              "internalType": "uint256",
              "name": "duration",
              "type": "uint256"
            },
            {
              "internalType": "uint256",
              "name": "weight",
              "type": "uint256"
            },
            {
              "internalType": "uint256",
              "name": "discountRate",
              "type": "uint256"
            },
            {
              "internalType": "contract IJBFundingCycleBallot",
              "name": "ballot",
              "type": "address"
            },
            {
              "internalType": "uint256",
              "name": "metadata",
              "type": "uint256"
            }
          ],
          "internalType": "struct JBFundingCycle",
          "name": "fundingCycle",
          "type": "tuple"
        },
        {
          "internalType": "uint256",
          "name": "tokenCount",
          "type": "uint256"
        },
        {
          "internalType": "contract IJBPayDelegate",
          "name": "delegate",
          "type": "address"
        },
        {
          "internalType": "string",
          "name": "memo",
          "type": "string"
        }
      ],
      "stateMutability": "nonpayable",
      "type": "function"
    },
    {
      "inputs": [
        {
          "internalType": "address",
          "name": "_holder",
          "type": "address"
        },
        {
          "internalType": "uint256",
          "name": "_projectId",
          "type": "uint256"
        },
        {
          "internalType": "uint256",
          "name": "_tokenCount",
          "type": "uint256"
        },
        {
          "internalType": "string",
          "name": "_memo",
          "type": "string"
        },
        {
          "internalType": "bytes",
          "name": "_metadata",
          "type": "bytes"
        }
      ],
      "name": "recordRedemptionFor",
      "outputs": [
        {
          "components": [
            {
              "internalType": "uint256",
              "name": "number",
              "type": "uint256"
            },
            {
              "internalType": "uint256",
              "name": "configuration",
              "type": "uint256"
            },
            {
              "internalType": "uint256",
              "name": "basedOn",
              "type": "uint256"
            },
            {
              "internalType": "uint256",
              "name": "start",
              "type": "uint256"
            },
            {
              "internalType": "uint256",
              "name": "duration",
              "type": "uint256"
            },
            {
              "internalType": "uint256",
              "name": "weight",
              "type": "uint256"
            },
            {
              "internalType": "uint256",
              "name": "discountRate",
              "type": "uint256"
            },
            {
              "internalType": "contract IJBFundingCycleBallot",
              "name": "ballot",
              "type": "address"
            },
            {
              "internalType": "uint256",
              "name": "metadata",
              "type": "uint256"
            }
          ],
          "internalType": "struct JBFundingCycle",
          "name": "fundingCycle",
          "type": "tuple"
        },
        {
          "internalType": "uint256",
          "name": "reclaimAmount",
          "type": "uint256"
        },
        {
          "internalType": "contract IJBRedemptionDelegate",
          "name": "delegate",
          "type": "address"
        },
        {
          "internalType": "string",
          "name": "memo",
          "type": "string"
        }
      ],
      "stateMutability": "nonpayable",
      "type": "function"
    },
    {
      "inputs": [
        {
          "internalType": "uint256",
          "name": "_projectId",
          "type": "uint256"
        },
        {
          "internalType": "uint256",
          "name": "_amount",
          "type": "uint256"
        },
        {
          "internalType": "uint256",
          "name": "_currency",
          "type": "uint256"
        }
      ],
      "name": "recordUsedAllowanceOf",
      "outputs": [
        {
          "components": [
            {
              "internalType": "uint256",
              "name": "number",
              "type": "uint256"
            },
            {
              "internalType": "uint256",
              "name": "configuration",
              "type": "uint256"
            },
            {
              "internalType": "uint256",
              "name": "basedOn",
              "type": "uint256"
            },
            {
              "internalType": "uint256",
              "name": "start",
              "type": "uint256"
            },
            {
              "internalType": "uint256",
              "name": "duration",
              "type": "uint256"
            },
            {
              "internalType": "uint256",
              "name": "weight",
              "type": "uint256"
            },
            {
              "internalType": "uint256",
              "name": "discountRate",
              "type": "uint256"
            },
            {
              "internalType": "contract IJBFundingCycleBallot",
              "name": "ballot",
              "type": "address"
            },
            {
              "internalType": "uint256",
              "name": "metadata",
              "type": "uint256"
            }
          ],
          "internalType": "struct JBFundingCycle",
          "name": "fundingCycle",
          "type": "tuple"
        },
        {
          "internalType": "uint256",
          "name": "usedAmount",
          "type": "uint256"
        }
      ],
      "stateMutability": "nonpayable",
      "type": "function"
    },
    {
      "inputs": [
        {
          "internalType": "contract IJBSingleTokenPaymentTerminal",
          "name": "",
          "type": "address"
        },
        {
          "internalType": "uint256",
          "name": "",
          "type": "uint256"
        },
        {
          "internalType": "uint256",
          "name": "",
          "type": "uint256"
        }
      ],
      "name": "usedDistributionLimitOf",
      "outputs": [
        {
          "internalType": "uint256",
          "name": "",
          "type": "uint256"
        }
      ],
      "stateMutability": "view",
      "type": "function"
    },
    {
      "inputs": [
        {
          "internalType": "contract IJBSingleTokenPaymentTerminal",
          "name": "",
          "type": "address"
        },
        {
          "internalType": "uint256",
          "name": "",
          "type": "uint256"
        },
        {
          "internalType": "uint256",
          "name": "",
          "type": "uint256"
        }
      ],
      "name": "usedOverflowAllowanceOf",
      "outputs": [
        {
          "internalType": "uint256",
          "name": "",
          "type": "uint256"
        }
      ],
      "stateMutability": "view",
      "type": "function"
    }
  ],
  "bytecode": {
    "object": "0x60e06040523480156200001157600080fd5b5060405162003cf238038062003cf2833981016040819052620000349162000061565b60016000556001600160601b0319606093841b811660805291831b821660a05290911b1660c052620000ce565b6000806000606084860312156200007757600080fd5b83516200008481620000b5565b60208501519093506200009781620000b5565b6040850151909250620000aa81620000b5565b809150509250925092565b6001600160a01b0381168114620000cb57600080fd5b50565b60805160601c60a05160601c60c05160601c613b666200018c60003960008181610270015281816107d601528181610db2015281816127c30152612a5901526000818161018b015281816103ba015281816109cf01528181610ea80152818161104f015281816117b6015281816118c101528181611d36015281816122010152612afa015260008181610236015281816104860152818161132601528181611b1c01528181611e450152818161254a015261287f0152613b666000f3fe608060405234801561001057600080fd5b50600436106100ff5760003560e01c8063c294b2f411610097578063d49031c011610066578063d49031c014610292578063d4c3a8d2146102a5578063e7c8e3e3146102d6578063e8ba563a146102eb57600080fd5b8063c294b2f41461021e578063c41c2f2414610231578063c664459714610258578063d3419bf31461026b57600080fd5b80636bb6a5ad116100d35780636bb6a5ad146101d2578063a2df1f95146101e5578063a57c7f59146101f8578063b753d7e91461020b57600080fd5b8062fdd58e1461010457806325386715146101425780632fa1b39114610163578063557e715514610186575b600080fd5b61012f610112366004613008565b600160209081526000928352604080842090915290825290205481565b6040519081526020015b60405180910390f35b61015561015036600461329b565b61031c565b604051610139929190613343565b610176610171366004612dcf565b61092e565b60405161013994939291906133cb565b6101ad7f000000000000000000000000000000000000000000000000000000000000000081565b60405173ffffffffffffffffffffffffffffffffffffffff9091168152602001610139565b61012f6101e03660046131c8565b610e6c565b6101766101f3366004612eae565b610fae565b61012f6102063660046132c7565b611765565b61012f61021936600461329b565b611861565b61012f61022c366004613069565b611878565b6101ad7f000000000000000000000000000000000000000000000000000000000000000081565b61015561026636600461329b565b611c98565b6101ad7f000000000000000000000000000000000000000000000000000000000000000081565b61012f6102a0366004613008565b6121f8565b61012f6102b3366004613034565b600360209081526000938452604080852082529284528284209052825290205481565b6102e96102e4366004613255565b6122fa565b005b61012f6102f9366004613034565b600260209081526000938452604080852082529284528284209052825290205481565b61038160405180610120016040528060008152602001600081526020016000815260200160008152602001600081526020016000815260200160008152602001600073ffffffffffffffffffffffffffffffffffffffff168152602001600081525090565b600061038b612343565b6040517f43a266c2000000000000000000000000000000000000000000000000000000008152600481018690527f000000000000000000000000000000000000000000000000000000000000000073ffffffffffffffffffffffffffffffffffffffff16906343a266c2906024016101206040518083038186803b15801561041257600080fd5b505afa158015610426573d6000803e3d6000fd5b505050506040513d601f19601f8201168201806040525081019061044a91906130d9565b33600090815260036020908152604080832089845282528083208285015184529091528120549193509061047f9086906137e9565b90506000807f000000000000000000000000000000000000000000000000000000000000000073ffffffffffffffffffffffffffffffffffffffff16635dd8f6aa896040518263ffffffff1660e01b81526004016104df91815260200190565b60206040518083038186803b1580156104f757600080fd5b505afa15801561050b573d6000803e3d6000fd5b505050506040513d601f19601f8201168201806040525081019061052f9190612db2565b73ffffffffffffffffffffffffffffffffffffffff16637a81b562898760200151333373ffffffffffffffffffffffffffffffffffffffff1663fc0c546a6040518163ffffffff1660e01b815260040160206040518083038186803b15801561059757600080fd5b505afa1580156105ab573d6000803e3d6000fd5b505050506040513d601f19601f820116820180604052508101906105cf9190612db2565b6040517fffffffff0000000000000000000000000000000000000000000000000000000060e087901b1681526004810194909452602484019290925273ffffffffffffffffffffffffffffffffffffffff9081166044840152166064820152608401604080518083038186803b15801561064857600080fd5b505afa15801561065c573d6000803e3d6000fd5b505050506040513d601f19601f820116820180604052508101906106809190613277565b9150915081831180610690575081155b156106c7576040517fb6ecab1200000000000000000000000000000000000000000000000000000000815260040160405180910390fd5b808614610700576040517fe56ea4e700000000000000000000000000000000000000000000000000000000815260040160405180910390fd5b60003373ffffffffffffffffffffffffffffffffffffffff1663e5a6b10f6040518163ffffffff1660e01b815260040160206040518083038186803b15801561074857600080fd5b505afa15801561075c573d6000803e3d6000fd5b505050506040513d601f19601f8201168201806040525081019061078091906131e1565b90508087146108705761086b886107996012600a61389d565b6040517fa4d0caf2000000000000000000000000000000000000000000000000000000008152600481018b905260248101859052601260448201527f000000000000000000000000000000000000000000000000000000000000000073ffffffffffffffffffffffffffffffffffffffff169063a4d0caf2906064015b60206040518083038186803b15801561082e57600080fd5b505afa158015610842573d6000803e3d6000fd5b505050506040513d601f19601f8201168201806040525081019061086691906131e1565b6123bc565b610872565b875b9450610880338a88846124c1565b8511156108b9576040517f2fca7ece00000000000000000000000000000000000000000000000000000000815260040160405180910390fd5b3360008181526003602090815260408083208d845282528083208a83015184528252808320889055928252600181528282208c8352905220546108fd9086906139a0565b3360009081526001602090815260408083208d845290915290205550610926925061282f915050565b935093915050565b61099360405180610120016040528060008152602001600081526020016000815260200160008152602001600081526020016000815260200160008152602001600073ffffffffffffffffffffffffffffffffffffffff168152602001600081525090565b60008060606109a0612343565b6040517f43a266c2000000000000000000000000000000000000000000000000000000008152600481018b90527f000000000000000000000000000000000000000000000000000000000000000073ffffffffffffffffffffffffffffffffffffffff16906343a266c2906024016101206040518083038186803b158015610a2757600080fd5b505afa158015610a3b573d6000803e3d6000fd5b505050506040513d601f19601f82011682018060405250810190610a5f91906130d9565b8051909450610a9a576040517f2e96671a00000000000000000000000000000000000000000000000000000000815260040160405180910390fd5b61010084015160481c60019081161415610ae0576040517fa3bb913300000000000000000000000000000000000000000000000000000000815260040160405180910390fd5b61010084015160009060521c60019081161415610ca55760006040518061014001604052803373ffffffffffffffffffffffffffffffffffffffff1681526020018f73ffffffffffffffffffffffffffffffffffffffff1681526020018e803603810190610b4e9190613159565b815260208082018f9052880151604082015273ffffffffffffffffffffffffffffffffffffffff8c16606082015260a080890151608083015261010089015191019060181c61ffff1681526020018a8a8080601f0160208091040260200160405190810160405280939291908181526020018383808284376000920191909152505050908252506020018890529050610bec86610100015160541c90565b73ffffffffffffffffffffffffffffffffffffffff1663d46cf171826040518263ffffffff1660e01b8152600401610c24919061347c565b600060405180830381600087803b158015610c3e57600080fd5b505af1158015610c52573d6000803e3d6000fd5b505050506040513d6000823e601f3d9081017fffffffffffffffffffffffffffffffffffffffffffffffffffffffffffffffe0168201604052610c9891908101906131fa565b955093509150610ce69050565b8460a00151905087878080601f0160208091040260200160405190810160405280939291908181526020018383808284376000920191909152509294505050505b60208c0135610cf9575060009250610e53565b3360009081526001602090815260408083208e8452825290912054610d21918e0135906137e9565b3360009081526001602090815260408083208f845290915290205580610d4b575060009250610e53565b60408c0135600060608e01358c14610e31576040517fa4d0caf200000000000000000000000000000000000000000000000000000000815260608f01356004820152602481018d90526044810183905273ffffffffffffffffffffffffffffffffffffffff7f0000000000000000000000000000000000000000000000000000000000000000169063a4d0caf29060640160206040518083038186803b158015610df457600080fd5b505afa158015610e08573d6000803e3d6000fd5b505050506040513d601f19601f82011682018060405250810190610e2c91906131e1565b610e3c565b610e3c82600a61389d565b9050610e4d8e6020013584836123bc565b95505050505b610e5d6001600055565b98509850985098945050505050565b6000610e76612343565b6040517f43a266c2000000000000000000000000000000000000000000000000000000008152600481018390526000907f000000000000000000000000000000000000000000000000000000000000000073ffffffffffffffffffffffffffffffffffffffff16906343a266c2906024016101206040518083038186803b158015610f0057600080fd5b505afa158015610f14573d6000803e3d6000fd5b505050506040513d601f19601f82011682018060405250810190610f3891906130d9565b610100810151909150604e1c600190811614610f80576040517fe7c9e0be00000000000000000000000000000000000000000000000000000000815260040160405180910390fd5b505033600090815260016020818152604080842085855290915282208054908390559155919050565b919050565b61101360405180610120016040528060008152602001600081526020016000815260200160008152602001600081526020016000815260200160008152602001600073ffffffffffffffffffffffffffffffffffffffff168152602001600081525090565b6000806060611020612343565b6040517f43a266c2000000000000000000000000000000000000000000000000000000008152600481018990527f000000000000000000000000000000000000000000000000000000000000000073ffffffffffffffffffffffffffffffffffffffff16906343a266c2906024016101206040518083038186803b1580156110a757600080fd5b505afa1580156110bb573d6000803e3d6000fd5b505050506040513d601f19601f820116820180604052508101906110df91906130d9565b610100810151909450604a1c60019081161415611128576040517fa97cf58f00000000000000000000000000000000000000000000000000000000815260040160405180910390fd5b6111696040518060800160405280600073ffffffffffffffffffffffffffffffffffffffff1681526020016000815260200160008152602001600081525090565b60008060003373ffffffffffffffffffffffffffffffffffffffff1663fc0c546a6040518163ffffffff1660e01b815260040160206040518083038186803b1580156111b457600080fd5b505afa1580156111c8573d6000803e3d6000fd5b505050506040513d601f19601f820116820180604052508101906111ec9190612db2565b905060003373ffffffffffffffffffffffffffffffffffffffff1663313ce5676040518163ffffffff1660e01b815260040160206040518083038186803b15801561123657600080fd5b505afa15801561124a573d6000803e3d6000fd5b505050506040513d601f19601f8201168201806040525081019061126e91906131e1565b905060003373ffffffffffffffffffffffffffffffffffffffff1663e5a6b10f6040518163ffffffff1660e01b815260040160206040518083038186803b1580156112b857600080fd5b505afa1580156112cc573d6000803e3d6000fd5b505050506040513d601f19601f820116820180604052508101906112f091906131e1565b6101008b015190915060511c60019081161461131757611312338f8c846124c1565b611322565b6113228e8383612836565b94507f000000000000000000000000000000000000000000000000000000000000000073ffffffffffffffffffffffffffffffffffffffff16635dd8f6aa8f6040518263ffffffff1660e01b815260040161137f91815260200190565b60206040518083038186803b15801561139757600080fd5b505afa1580156113ab573d6000803e3d6000fd5b505050506040513d601f19601f820116820180604052508101906113cf9190612db2565b73ffffffffffffffffffffffffffffffffffffffff1663b5f1e34d8f6114018d610100015161ffff60189190911c1690565b6040517fffffffff0000000000000000000000000000000000000000000000000000000060e085901b1681526004810192909252602482015260440160206040518083038186803b15801561145557600080fd5b505afa158015611469573d6000803e3d6000fd5b505050506040513d601f19601f8201168201806040525081019061148d91906131e1565b9350838d11156114c9576040517fb8af220000000000000000000000000000000000000000000000000000000000815260040160405180910390fd5b84156114df576114dc8e8b8f8789612ab7565b98505b6040805160808101825273ffffffffffffffffffffffffffffffffffffffff949094168452602084018a9052830191909152606082015261010088015190935060531c600190811614156116ab576000604051806101a001604052803373ffffffffffffffffffffffffffffffffffffffff1681526020018e73ffffffffffffffffffffffffffffffffffffffff1681526020018d8152602001896020015181526020018c81526020018381526020018481526020018581526020016115b28a6101000151600160519190911c81161490565b151581526020016115c28a612c23565b81526020016115d08a612c40565b81526020018b81526020018a81525090506115f088610100015160541c90565b73ffffffffffffffffffffffffffffffffffffffff16638dfc9598826040518263ffffffff1660e01b815260040161162891906135d3565b600060405180830381600087803b15801561164257600080fd5b505af1158015611656573d6000803e3d6000fd5b505050506040513d6000823e601f3d9081017fffffffffffffffffffffffffffffffffffffffffffffffffffffffffffffffe016820160405261169c91908101906131fa565b91985090965094506116af9050565b8893505b50503360009081526001602090815260408083208c84529091529020548411159050611707576040517f2fca7ece00000000000000000000000000000000000000000000000000000000815260040160405180910390fd5b821561174f573360009081526001602090815260408083208b84529091529020546117339084906139a0565b3360009081526001602090815260408083208c84529091529020555b6117596001600055565b95509550955095915050565b60008161177457506000611859565b8284111561178457506000611859565b6040517f43a266c2000000000000000000000000000000000000000000000000000000008152600481018690526000907f000000000000000000000000000000000000000000000000000000000000000073ffffffffffffffffffffffffffffffffffffffff16906343a266c2906024016101206040518083038186803b15801561180e57600080fd5b505afa158015611822573d6000803e3d6000fd5b505050506040513d601f19601f8201168201806040525081019061184691906130d9565b90506118558682878787612ab7565b9150505b949350505050565b600061186e848484612836565b90505b9392505050565b6040517f43a266c200000000000000000000000000000000000000000000000000000000815260048101849052600090819073ffffffffffffffffffffffffffffffffffffffff7f000000000000000000000000000000000000000000000000000000000000000016906343a266c2906024016101206040518083038186803b15801561190457600080fd5b505afa158015611918573d6000803e3d6000fd5b505050506040513d601f19601f8201168201806040525081019061193c91906130d9565b90506000836119d3576119ce8787848a73ffffffffffffffffffffffffffffffffffffffff1663e5a6b10f6040518163ffffffff1660e01b815260040160206040518083038186803b15801561199157600080fd5b505afa1580156119a5573d6000803e3d6000fd5b505050506040513d601f19601f820116820180604052508101906119c991906131e1565b6124c1565b611ad8565b611ad8868873ffffffffffffffffffffffffffffffffffffffff1663313ce5676040518163ffffffff1660e01b815260040160206040518083038186803b158015611a1d57600080fd5b505afa158015611a31573d6000803e3d6000fd5b505050506040513d601f19601f82011682018060405250810190611a5591906131e1565b8973ffffffffffffffffffffffffffffffffffffffff1663e5a6b10f6040518163ffffffff1660e01b815260040160206040518083038186803b158015611a9b57600080fd5b505afa158015611aaf573d6000803e3d6000fd5b505050506040513d601f19601f82011682018060405250810190611ad391906131e1565b612836565b905080611aea57600092505050611859565b6040517f5dd8f6aa000000000000000000000000000000000000000000000000000000008152600481018790526000907f000000000000000000000000000000000000000000000000000000000000000073ffffffffffffffffffffffffffffffffffffffff1690635dd8f6aa9060240160206040518083038186803b158015611b7357600080fd5b505afa158015611b87573d6000803e3d6000fd5b505050506040513d601f19601f82011682018060405250810190611bab9190612db2565b73ffffffffffffffffffffffffffffffffffffffff1663b5f1e34d88611bdd86610100015161ffff60189190911c1690565b6040517fffffffff0000000000000000000000000000000000000000000000000000000060e085901b1681526004810192909252602482015260440160206040518083038186803b158015611c3157600080fd5b505afa158015611c45573d6000803e3d6000fd5b505050506040513d601f19601f82011682018060405250810190611c6991906131e1565b905080861115611c7f5760009350505050611859565b611c8c8784888486612ab7565b98975050505050505050565b611cfd60405180610120016040528060008152602001600081526020016000815260200160008152602001600081526020016000815260200160008152602001600073ffffffffffffffffffffffffffffffffffffffff168152602001600081525090565b6000611d07612343565b6040517f43a266c2000000000000000000000000000000000000000000000000000000008152600481018690527f000000000000000000000000000000000000000000000000000000000000000073ffffffffffffffffffffffffffffffffffffffff16906343a266c2906024016101206040518083038186803b158015611d8e57600080fd5b505afa158015611da2573d6000803e3d6000fd5b505050506040513d601f19601f82011682018060405250810190611dc691906130d9565b61010081015190925060491c60019081161415611e0f576040517f861e9dcd00000000000000000000000000000000000000000000000000000000815260040160405180910390fd5b336000908152600260209081526040808320888452825280832085518452909152812054611e3e9086906137e9565b90506000807f000000000000000000000000000000000000000000000000000000000000000073ffffffffffffffffffffffffffffffffffffffff16635dd8f6aa896040518263ffffffff1660e01b8152600401611e9e91815260200190565b60206040518083038186803b158015611eb657600080fd5b505afa158015611eca573d6000803e3d6000fd5b505050506040513d601f19601f82011682018060405250810190611eee9190612db2565b73ffffffffffffffffffffffffffffffffffffffff1663e8db2130898760200151333373ffffffffffffffffffffffffffffffffffffffff1663fc0c546a6040518163ffffffff1660e01b815260040160206040518083038186803b158015611f5657600080fd5b505afa158015611f6a573d6000803e3d6000fd5b505050506040513d601f19601f82011682018060405250810190611f8e9190612db2565b6040517fffffffff0000000000000000000000000000000000000000000000000000000060e087901b1681526004810194909452602484019290925273ffffffffffffffffffffffffffffffffffffffff9081166044840152166064820152608401604080518083038186803b15801561200757600080fd5b505afa15801561201b573d6000803e3d6000fd5b505050506040513d601f19601f8201168201806040525081019061203f9190613277565b915091508183118061204f575081155b15612086576040517f08dae4ac00000000000000000000000000000000000000000000000000000000815260040160405180910390fd5b8086146120bf576040517fe56ea4e700000000000000000000000000000000000000000000000000000000815260040160405180910390fd5b60003373ffffffffffffffffffffffffffffffffffffffff1663e5a6b10f6040518163ffffffff1660e01b815260040160206040518083038186803b15801561210757600080fd5b505afa15801561211b573d6000803e3d6000fd5b505050506040513d601f19601f8201168201806040525081019061213f91906131e1565b905080871461215d57612158886107996012600a61389d565b61215f565b875b3360009081526001602090815260408083208d84529091529020549095508511156121b6576040517f2fca7ece00000000000000000000000000000000000000000000000000000000815260040160405180910390fd5b3360008181526002602090815260408083208d845282528083208a5184528252808320889055928252600181528282208c8352905220546108fd9086906139a0565b60006122f183837f000000000000000000000000000000000000000000000000000000000000000073ffffffffffffffffffffffffffffffffffffffff166343a266c2866040518263ffffffff1660e01b815260040161225a91815260200190565b6101206040518083038186803b15801561227357600080fd5b505afa158015612287573d6000803e3d6000fd5b505050506040513d601f19601f820116820180604052508101906122ab91906130d9565b8673ffffffffffffffffffffffffffffffffffffffff1663e5a6b10f6040518163ffffffff1660e01b815260040160206040518083038186803b15801561199157600080fd5b90505b92915050565b3360009081526001602090815260408083208584529091529020546123209082906137e9565b336000908152600160209081526040808320958352949052929092209190915550565b600260005414156123b5576040517f08c379a000000000000000000000000000000000000000000000000000000000815260206004820152601f60248201527f5265656e7472616e637947756172643a207265656e7472616e742063616c6c0060448201526064015b60405180910390fd5b6002600055565b600080807fffffffffffffffffffffffffffffffffffffffffffffffffffffffffffffffff85870985870292508281108382030391505080600014156124155783828161240b5761240b613a4f565b0492505050611871565b838110612458576040517f773cc18c00000000000000000000000000000000000000000000000000000000815260048101829052602481018590526044016123ac565b60008486880960026001871981018816978890046003810283188082028403028082028403028082028403028082028403028082028403029081029092039091026000889003889004909101858311909403939093029303949094049190911702949350505050565b73ffffffffffffffffffffffffffffffffffffffff8416600090815260016020908152604080832086845290915281205480612501576000915050611859565b6040517f5dd8f6aa00000000000000000000000000000000000000000000000000000000815260048101869052600090819073ffffffffffffffffffffffffffffffffffffffff7f00000000000000000000000000000000000000000000000000000000000000001690635dd8f6aa9060240160206040518083038186803b15801561258c57600080fd5b505afa1580156125a0573d6000803e3d6000fd5b505050506040513d601f19601f820116820180604052508101906125c49190612db2565b73ffffffffffffffffffffffffffffffffffffffff1663e8db21308888602001518b8c73ffffffffffffffffffffffffffffffffffffffff1663fc0c546a6040518163ffffffff1660e01b815260040160206040518083038186803b15801561262c57600080fd5b505afa158015612640573d6000803e3d6000fd5b505050506040513d601f19601f820116820180604052508101906126649190612db2565b6040517fffffffff0000000000000000000000000000000000000000000000000000000060e087901b1681526004810194909452602484019290925273ffffffffffffffffffffffffffffffffffffffff9081166044840152166064820152608401604080518083038186803b1580156126dd57600080fd5b505afa1580156126f1573d6000803e3d6000fd5b505050506040513d601f19601f820116820180604052508101906127159190613277565b73ffffffffffffffffffffffffffffffffffffffff8a1660009081526002602090815260408083208c845282528083208b5184529091528120549294509092509061276090846139a0565b905080158015906127715750858214155b1561280a57612807816127866012600a61389d565b6040517fa4d0caf200000000000000000000000000000000000000000000000000000000815260048101869052602481018a9052601260448201527f000000000000000000000000000000000000000000000000000000000000000073ffffffffffffffffffffffffffffffffffffffff169063a4d0caf290606401610816565b90505b808411612818576000612822565b61282281856139a0565b9998505050505050505050565b6001600055565b6040517fd175415300000000000000000000000000000000000000000000000000000000815260048101849052600090819073ffffffffffffffffffffffffffffffffffffffff7f0000000000000000000000000000000000000000000000000000000000000000169063d17541539060240160006040518083038186803b1580156128c157600080fd5b505afa1580156128d5573d6000803e3d6000fd5b505050506040513d6000823e601f3d9081017fffffffffffffffffffffffffffffffffffffffffffffffffffffffffffffffe016820160405261291b9190810190612f4f565b90506000805b82518110156129ec5782818151811061293c5761293c613aad565b602002602001015173ffffffffffffffffffffffffffffffffffffffff1663a32e1e96886040518263ffffffff1660e01b815260040161297e91815260200190565b60206040518083038186803b15801561299657600080fd5b505afa1580156129aa573d6000803e3d6000fd5b505050506040513d601f19601f820116820180604052508101906129ce91906131e1565b6129d890836137e9565b9150806129e4816139e7565b915050612921565b50600060018514612a8d576040517fa4d0caf2000000000000000000000000000000000000000000000000000000008152600160048201526024810186905260126044820152612a88908390670de0b6b3a76400009073ffffffffffffffffffffffffffffffffffffffff7f0000000000000000000000000000000000000000000000000000000000000000169063a4d0caf290606401610816565b612a8f565b815b905085601214612aaa57612aa581601288612c5d565b612aac565b805b979650505050505050565b600082841415612ac8575080612c1a565b6000806040517fc55f571c000000000000000000000000000000000000000000000000000000008152600481018990527f000000000000000000000000000000000000000000000000000000000000000073ffffffffffffffffffffffffffffffffffffffff169063c55f571c9060240160206040518083038186803b158015612b5157600080fd5b505afa158015612b65573d6000803e3d6000fd5b505050506040513d601f19601f82011682018060405250810190612b8991906130b8565b6002811115612b9a57612b9a613a7e565b14612bad57612ba886612c23565b612bb6565b612bb686612c40565b905080612bc7576000915050612c1a565b6000612bd48487876123bc565b9050612710821415612be9579150612c1a9050565b612c1581612c0388612bfd866127106139a0565b896123bc565b612c0d90856137e9565b6127106123bc565b925050505b95945050505050565b60006028826101000151901c61ffff166127106122f491906139a0565b60006038826101000151901c61ffff166127106122f491906139a0565b600082821415612c6e575082611871565b82821115612c9c57612c8083836139a0565b612c8b90600a61389d565b612c959085613963565b9050611871565b612ca682846139a0565b612cb190600a61389d565b612c959085613801565b6000612cce612cc9846137a3565b613754565b9050828152838383011115612ce257600080fd5b828260208301376000602084830101529392505050565b600082601f830112612d0a57600080fd5b6122f183833560208501612cbb565b8051610fa981613b0b565b60008083601f840112612d3657600080fd5b50813567ffffffffffffffff811115612d4e57600080fd5b602083019150836020828501011115612d6657600080fd5b9250929050565b600082601f830112612d7e57600080fd5b8151612d8c612cc9826137a3565b818152846020838601011115612da157600080fd5b6118598260208301602087016139b7565b600060208284031215612dc457600080fd5b815161187181613b0b565b600080600080600080600080888a03610140811215612ded57600080fd5b8935612df881613b0b565b985060807fffffffffffffffffffffffffffffffffffffffffffffffffffffffffffffffe082011215612e2a57600080fd5b5060208901965060a0890135955060c0890135945060e0890135612e4d81613b0b565b935061010089013567ffffffffffffffff80821115612e6b57600080fd5b612e778c838d01612d24565b90955093506101208b0135915080821115612e9157600080fd5b50612e9e8b828c01612cf9565b9150509295985092959890939650565b600080600080600060a08688031215612ec657600080fd5b8535612ed181613b0b565b94506020860135935060408601359250606086013567ffffffffffffffff80821115612efc57600080fd5b818801915088601f830112612f1057600080fd5b612f1f89833560208501612cbb565b93506080880135915080821115612f3557600080fd5b50612f4288828901612cf9565b9150509295509295909350565b60006020808385031215612f6257600080fd5b825167ffffffffffffffff80821115612f7a57600080fd5b818501915085601f830112612f8e57600080fd5b815181811115612fa057612fa0613adc565b8060051b9150612fb1848301613754565b8181528481019084860184860187018a1015612fcc57600080fd5b600095505b83861015612ffb5780519450612fe685613b0b565b84835260019590950194918601918601612fd1565b5098975050505050505050565b6000806040838503121561301b57600080fd5b823561302681613b0b565b946020939093013593505050565b60008060006060848603121561304957600080fd5b833561305481613b0b565b95602085013595506040909401359392505050565b6000806000806080858703121561307f57600080fd5b843561308a81613b0b565b93506020850135925060408501359150606085013580151581146130ad57600080fd5b939692955090935050565b6000602082840312156130ca57600080fd5b81516003811061187157600080fd5b600061012082840312156130ec57600080fd5b6130f461372a565b825181526020830151602082015260408301516040820152606083015160608201526080830151608082015260a083015160a082015260c083015160c082015261314060e08401612d19565b60e0820152610100928301519281019290925250919050565b60006080828403121561316b57600080fd5b6040516080810181811067ffffffffffffffff8211171561318e5761318e613adc565b604052823561319c81613b0b565b808252506020830135602082015260408301356040820152606083013560608201528091505092915050565b6000602082840312156131da57600080fd5b5035919050565b6000602082840312156131f357600080fd5b5051919050565b60008060006060848603121561320f57600080fd5b83519250602084015167ffffffffffffffff81111561322d57600080fd5b61323986828701612d6d565b925050604084015161324a81613b0b565b809150509250925092565b6000806040838503121561326857600080fd5b50508035926020909101359150565b6000806040838503121561328a57600080fd5b505080516020909101519092909150565b6000806000606084860312156132b057600080fd5b505081359360208301359350604090920135919050565b600080600080608085870312156132dd57600080fd5b5050823594602084013594506040840135936060013592509050565b600081518084526133118160208601602086016139b7565b601f017fffffffffffffffffffffffffffffffffffffffffffffffffffffffffffffffe0169290920160200192915050565b61014081016133bd8285805182526020810151602083015260408101516040830152606081015160608301526080810151608083015260a081015160a083015260c081015160c083015273ffffffffffffffffffffffffffffffffffffffff60e08201511660e08301526101008082015181840152505050565b826101208301529392505050565b60006101806134458388805182526020810151602083015260408101516040830152606081015160608301526080810151608083015260a081015160a083015260c081015160c083015273ffffffffffffffffffffffffffffffffffffffff60e08201511660e08301526101008082015181840152505050565b8561012084015273ffffffffffffffffffffffffffffffffffffffff851661014084015280610160840152612aac818401856132f9565b602081526134a360208201835173ffffffffffffffffffffffffffffffffffffffff169052565b600060208301516134cc604084018273ffffffffffffffffffffffffffffffffffffffff169052565b506040830151613516606084018273ffffffffffffffffffffffffffffffffffffffff81511682526020810151602083015260408101516040830152606081015160608301525050565b50606083015160e08301526080830151610100818185015260a085015191506101206135598186018473ffffffffffffffffffffffffffffffffffffffff169052565b60c086015161014086015260e08601516101608601528186015192506101a091508161018086015261358f6101c08601846132f9565b908601518582037fffffffffffffffffffffffffffffffffffffffffffffffffffffffffffffffe001838701529092506135c983826132f9565b9695505050505050565b602081526135fa60208201835173ffffffffffffffffffffffffffffffffffffffff169052565b60006020830151613623604084018273ffffffffffffffffffffffffffffffffffffffff169052565b506040830151606083015260608301516080830152608083015160a083015260a083015160c083015260c083015160e083015260e08301516101006136a18185018373ffffffffffffffffffffffffffffffffffffffff81511682526020810151602083015260408101516040830152606081015160608301525050565b84015190506101806136b68482018315159052565b6101208501516101a08501526101408501516101c08501526101608501519150610200806101e08601526136ee6102208601846132f9565b92508186015191507fffffffffffffffffffffffffffffffffffffffffffffffffffffffffffffffe0858403018186015250612c1a82826132f9565b604051610120810167ffffffffffffffff8111828210171561374e5761374e613adc565b60405290565b604051601f82017fffffffffffffffffffffffffffffffffffffffffffffffffffffffffffffffe016810167ffffffffffffffff8111828210171561379b5761379b613adc565b604052919050565b600067ffffffffffffffff8211156137bd576137bd613adc565b50601f017fffffffffffffffffffffffffffffffffffffffffffffffffffffffffffffffe01660200190565b600082198211156137fc576137fc613a20565b500190565b600082613837577f4e487b7100000000000000000000000000000000000000000000000000000000600052601260045260246000fd5b500490565b600181815b8085111561389557817fffffffffffffffffffffffffffffffffffffffffffffffffffffffffffffffff0482111561387b5761387b613a20565b8085161561388857918102915b93841c9390800290613841565b509250929050565b60006122f183836000826138b3575060016122f4565b816138c0575060006122f4565b81600181146138d657600281146138e0576138fc565b60019150506122f4565b60ff8411156138f1576138f1613a20565b50506001821b6122f4565b5060208310610133831016604e8410600b841016171561391f575081810a6122f4565b613929838361383c565b807fffffffffffffffffffffffffffffffffffffffffffffffffffffffffffffffff0482111561395b5761395b613a20565b029392505050565b6000817fffffffffffffffffffffffffffffffffffffffffffffffffffffffffffffffff048311821515161561399b5761399b613a20565b500290565b6000828210156139b2576139b2613a20565b500390565b60005b838110156139d25781810151838201526020016139ba565b838111156139e1576000848401525b50505050565b60007fffffffffffffffffffffffffffffffffffffffffffffffffffffffffffffffff821415613a1957613a19613a20565b5060010190565b7f4e487b7100000000000000000000000000000000000000000000000000000000600052601160045260246000fd5b7f4e487b7100000000000000000000000000000000000000000000000000000000600052601260045260246000fd5b7f4e487b7100000000000000000000000000000000000000000000000000000000600052602160045260246000fd5b7f4e487b7100000000000000000000000000000000000000000000000000000000600052603260045260246000fd5b7f4e487b7100000000000000000000000000000000000000000000000000000000600052604160045260246000fd5b73ffffffffffffffffffffffffffffffffffffffff81168114613b2d57600080fd5b5056fea2646970667358221220d8665aa9c47764d1df53538fcdce1a7fa26671c1ab94377359f013a6795a585864736f6c63430008060033",
    "linkReferences": {}
  },
  "methodIdentifiers": {
    "balanceOf(address,uint256)": "00fdd58e",
    "currentOverflowOf(address,uint256)": "d49031c0",
    "currentReclaimableOverflowOf(address,uint256,uint256,bool)": "c294b2f4",
    "currentReclaimableOverflowOf(uint256,uint256,uint256,uint256)": "a57c7f59",
    "currentTotalOverflowOf(uint256,uint256,uint256)": "b753d7e9",
    "directory()": "c41c2f24",
    "fundingCycleStore()": "557e7155",
    "prices()": "d3419bf3",
    "recordAddedBalanceFor(uint256,uint256)": "e7c8e3e3",
    "recordDistributionFor(uint256,uint256,uint256)": "c6644597",
    "recordMigration(uint256)": "6bb6a5ad",
    "recordPaymentFrom(address,(address,uint256,uint256,uint256),uint256,uint256,address,string,bytes)": "2fa1b391",
    "recordRedemptionFor(address,uint256,uint256,string,bytes)": "a2df1f95",
    "recordUsedAllowanceOf(uint256,uint256,uint256)": "25386715",
    "usedDistributionLimitOf(address,uint256,uint256)": "e8ba563a",
    "usedOverflowAllowanceOf(address,uint256,uint256)": "d4c3a8d2"
  },
  "id": 64
}