{
  "abi": [
    {
      "inputs": [
        {
          "internalType": "contract IJBProjects",
          "name": "_projectDirectory",
          "type": "address"
        },
        {
          "internalType": "contract IProjects",
          "name": "_v1ProjectDirectory",
          "type": "address"
        },
        {
          "internalType": "contract IJBTokenStore",
          "name": "_tokenStore",
          "type": "address"
        }
      ],
      "stateMutability": "nonpayable",
      "type": "constructor"
    },
    {
      "inputs": [],
      "name": "NOT_OWNER",
      "type": "error"
    },
    {
      "anonymous": false,
      "inputs": [
        {
          "indexed": false,
          "internalType": "uint256",
          "name": "v3ProjectId",
          "type": "uint256"
        },
        {
          "indexed": false,
          "internalType": "address",
          "name": "v3Token",
          "type": "address"
        },
        {
          "indexed": false,
          "internalType": "address",
          "name": "owner",
          "type": "address"
        }
      ],
      "name": "Deploy",
      "type": "event"
    },
    {
      "inputs": [
        {
          "internalType": "string",
          "name": "_name",
          "type": "string"
        },
        {
          "internalType": "string",
          "name": "_symbol",
          "type": "string"
        },
        {
          "internalType": "uint256",
          "name": "_projectId",
          "type": "uint256"
        },
        {
          "internalType": "contract ITicketBooth",
          "name": "_v1TicketBooth",
          "type": "address"
        },
        {
          "internalType": "contract IJBTokenStore",
          "name": "_v2TokenStore",
          "type": "address"
        },
        {
          "internalType": "uint256",
          "name": "_v1ProjectId",
          "type": "uint256"
        }
      ],
      "name": "deploy",
      "outputs": [
        {
          "internalType": "contract JBV3Token",
          "name": "v3Token",
          "type": "address"
        }
      ],
      "stateMutability": "nonpayable",
      "type": "function"
    },
    {
      "inputs": [],
      "name": "projectDirectory",
      "outputs": [
        {
          "internalType": "contract IJBProjects",
          "name": "",
          "type": "address"
        }
      ],
      "stateMutability": "view",
      "type": "function"
    },
    {
      "inputs": [],
      "name": "tokenStore",
      "outputs": [
        {
          "internalType": "contract IJBTokenStore",
          "name": "",
          "type": "address"
        }
      ],
      "stateMutability": "view",
      "type": "function"
    },
    {
      "inputs": [],
      "name": "v1ProjectDirectory",
      "outputs": [
        {
          "internalType": "contract IProjects",
          "name": "",
          "type": "address"
        }
      ],
      "stateMutability": "view",
      "type": "function"
    }
  ],
  "bytecode": {
    "object": "0x60e060405234801561001057600080fd5b5060405161377738038061377783398101604081905261002f91610064565b6001600160a01b0392831660a0529082166080521660c0526100b1565b6001600160a01b038116811461006157600080fd5b50565b60008060006060848603121561007957600080fd5b83516100848161004c565b60208501519093506100958161004c565b60408501519092506100a68161004c565b809150509250925092565b60805160a05160c0516136856100f26000396000818160c5015281816102b3015261034e015260008181609d01526101620152600060ed01526136856000f3fe60806040523480156200001157600080fd5b5060043610620000525760003560e01c806354daf6fc14620000575780635bfc780414620000975780636193063014620000bf57806384e2e0fe14620000e7575b600080fd5b6200006e620000683660046200052b565b6200010f565b60405173ffffffffffffffffffffffffffffffffffffffff909116815260200160405180910390f35b6200006e7f000000000000000000000000000000000000000000000000000000000000000081565b6200006e7f000000000000000000000000000000000000000000000000000000000000000081565b6200006e7f000000000000000000000000000000000000000000000000000000000000000081565b60008415801590620001e957506040517f6352211e00000000000000000000000000000000000000000000000000000000815260048101869052339073ffffffffffffffffffffffffffffffffffffffff7f00000000000000000000000000000000000000000000000000000000000000001690636352211e90602401602060405180830381865afa158015620001aa573d6000803e3d6000fd5b505050506040513d601f19601f82011682018060405250810190620001d09190620005d3565b73ffffffffffffffffffffffffffffffffffffffff1614155b1562000221576040517f71d78b1200000000000000000000000000000000000000000000000000000000815260040160405180910390fd5b868686868686604051620002359062000415565b620002469695949392919062000660565b604051809103906000f08015801562000263573d6000803e3d6000fd5b506040517f831d7fac0000000000000000000000000000000000000000000000000000000081526004810187905273ffffffffffffffffffffffffffffffffffffffff80831660248301529192507f00000000000000000000000000000000000000000000000000000000000000009091169063831d7fac90604401600060405180830381600087803b158015620002fa57600080fd5b505af11580156200030f573d6000803e3d6000fd5b50506040517ff2fde38b00000000000000000000000000000000000000000000000000000000815273ffffffffffffffffffffffffffffffffffffffff7f0000000000000000000000000000000000000000000000000000000000000000811660048301528416925063f2fde38b9150602401600060405180830381600087803b1580156200039d57600080fd5b505af1158015620003b2573d6000803e3d6000fd5b50506040805188815273ffffffffffffffffffffffffffffffffffffffff85166020820152338183015290517f6477aa6f6b2b7965d8f9cb2c4999a97923e6933b194434396a66b86164bc5f119350908190036060019150a19695505050505050565b612f8c80620006c483390190565b7f4e487b7100000000000000000000000000000000000000000000000000000000600052604160045260246000fd5b600082601f8301126200046457600080fd5b813567ffffffffffffffff8082111562000482576200048262000423565b604051601f83017fffffffffffffffffffffffffffffffffffffffffffffffffffffffffffffffe0908116603f01168101908282118183101715620004cb57620004cb62000423565b81604052838152866020858801011115620004e557600080fd5b836020870160208301376000602085830101528094505050505092915050565b73ffffffffffffffffffffffffffffffffffffffff811681146200052857600080fd5b50565b60008060008060008060c087890312156200054557600080fd5b863567ffffffffffffffff808211156200055e57600080fd5b6200056c8a838b0162000452565b975060208901359150808211156200058357600080fd5b506200059289828a0162000452565b955050604087013593506060870135620005ac8162000505565b92506080870135620005be8162000505565b8092505060a087013590509295509295509295565b600060208284031215620005e657600080fd5b8151620005f38162000505565b9392505050565b6000815180845260005b81811015620006225760208185018101518683018201520162000604565b5060006020828601015260207fffffffffffffffffffffffffffffffffffffffffffffffffffffffffffffffe0601f83011685010191505092915050565b60c0815260006200067560c0830189620005fa565b8281036020840152620006898189620005fa565b6040840197909752505073ffffffffffffffffffffffffffffffffffffffff938416606082015291909216608082015260a001529291505056fe6101c06040523480156200001257600080fd5b5060405162002f8c38038062002f8c833981016040819052620000359162000267565b6040805180820190915260018152603160f81b602082015286908190818860036200006183826200039e565b5060046200007082826200039e565b5050825160209384012082519284019290922060e08390526101008190524660a0818152604080517f8b73c3c69bb8fe3d512ecc4cf759cc79239f7b179b0ffacaa9a75d522b39400f818901819052818301979097526060810194909452608080850193909352308483018190528151808603909301835260c09485019091528151919096012090529290925261012052506200010f90503362000137565b610140939093526001600160a01b039182166101605216610180526101a052506200046a9050565b600780546001600160a01b038381166001600160a01b0319831681179093556040519116919082907f8be0079c531659141344cd1fd0a4f28419497f9722a3daafe3b4186f6b6457e090600090a35050565b634e487b7160e01b600052604160045260246000fd5b600082601f830112620001b157600080fd5b81516001600160401b0380821115620001ce57620001ce62000189565b604051601f8301601f19908116603f01168101908282118183101715620001f957620001f962000189565b816040528381526020925086838588010111156200021657600080fd5b600091505b838210156200023a57858201830151818301840152908201906200021b565b600093810190920192909252949350505050565b6001600160a01b03811681146200026457600080fd5b50565b60008060008060008060c087890312156200028157600080fd5b86516001600160401b03808211156200029957600080fd5b620002a78a838b016200019f565b97506020890151915080821115620002be57600080fd5b50620002cd89828a016200019f565b955050604087015193506060870151620002e7816200024e565b6080880151909350620002fa816200024e565b8092505060a087015190509295509295509295565b600181811c908216806200032457607f821691505b6020821081036200034557634e487b7160e01b600052602260045260246000fd5b50919050565b601f8211156200039957600081815260208120601f850160051c81016020861015620003745750805b601f850160051c820191505b81811015620003955782815560010162000380565b5050505b505050565b81516001600160401b03811115620003ba57620003ba62000189565b620003d281620003cb84546200030f565b846200034b565b602080601f8311600181146200040a5760008415620003f15750858301515b600019600386901b1c1916600185901b17855562000395565b600085815260208120601f198616915b828110156200043b578886015182559484019460019091019084016200041a565b50858210156200045a5787850151600019600388901b60f8161c191681555b5050505050600190811b01905550565b60805160a05160c05160e05161010051610120516101405161016051610180516101a0516129bf620005cd6000396000818161042d015281816105970152818161062b015281816106f80152818161182f015281816118c1015281816119980152611bec0152600081816103ba015281816107ad0152818161083a0152818161090701528181611c9c01528181611d2c01528181611e1b01526120990152600081816101d7015281816105c1015281816106510152818161071e01528181611857015281816118ea015281816119d90152611c1f0152600081816102db01528181610814015281816108e1015281816109ba01528181610aeb01528181610b5301528181610bf401528181610fb801528181611d0301528181611dda01528181611ed301528181611fa70152612066015260006115a3015260006115f2015260006115cd01526000611526015260006115500152600061157a01526129bf6000f3fe608060405234801561001057600080fd5b50600436106101cd5760003560e01c8063836a104011610104578063a457c2d7116100a2578063d7388f0511610071578063d7388f0514610428578063dd62ed3e1461044f578063f2fde38b14610495578063f8548e36146104a857600080fd5b8063a457c2d7146103dc578063a9059cbb146103ef578063bd85b03914610402578063d505accf1461041557600080fd5b80638fd3ab80116100de5780638fd3ab801461039257806395d89b411461039a5780639eea5f66146103a2578063a2ba0e79146103b557600080fd5b8063836a10401461034e5780638cb0a511146103615780638da5cb5b1461037457600080fd5b8063313ce567116101715780633fafa1271161014b5780633fafa127146102d657806370a08231146102fd578063715018a6146103335780637ecebe001461033b57600080fd5b8063313ce567146102ac5780633644e515146102bb57806339509351146102c357600080fd5b8063095ea7b3116101ad578063095ea7b31461025957806318160ddd1461027c5780631c0f12b61461028457806323b872dd1461029957600080fd5b8062263783146101d2578062fdd58e1461022357806306fdde0314610244575b600080fd5b6101f97f000000000000000000000000000000000000000000000000000000000000000081565b60405173ffffffffffffffffffffffffffffffffffffffff90911681526020015b60405180910390f35b61023661023136600461262b565b6104bb565b60405190815260200161021a565b61024c6104e8565b60405161021a9190612657565b61026c61026736600461262b565b61057a565b604051901515815260200161021a565b610236610592565b6102976102923660046126c3565b6109b8565b005b61026c6102a736600461270b565b610a23565b6040516012815260200161021a565b610236610a4c565b61026c6102d136600461262b565b610a56565b6102367f000000000000000000000000000000000000000000000000000000000000000081565b61023661030b36600461274c565b73ffffffffffffffffffffffffffffffffffffffff1660009081526020819052604090205490565b610297610aa2565b61023661034936600461274c565b610ab6565b61029761035c366004612770565b610ae1565b61029761036f366004612770565b610b51565b60075473ffffffffffffffffffffffffffffffffffffffff166101f9565b610297610bba565b61024c610bdb565b6102976103b0366004612770565b610bea565b6101f97f000000000000000000000000000000000000000000000000000000000000000081565b61026c6103ea36600461262b565b610c55565b61026c6103fd36600461262b565b610d2b565b610236610410366004612797565b610d39565b6102976104233660046127b0565b610d43565b6102367f000000000000000000000000000000000000000000000000000000000000000081565b61023661045d366004612827565b73ffffffffffffffffffffffffffffffffffffffff918216600090815260016020908152604080832093909416825291909152205490565b6102976104a336600461274c565b610f02565b6102976104b6366004612770565b610fb6565b73ffffffffffffffffffffffffffffffffffffffff82166000908152602081905260409020545b92915050565b6060600380546104f790612860565b80601f016020809104026020016040519081016040528092919081815260200182805461052390612860565b80156105705780601f1061054557610100808354040283529160200191610570565b820191906000526020600020905b81548152906001019060200180831161055357829003601f168201915b5050505050905090565b600033610588818585611019565b5060019392505050565b6000807f0000000000000000000000000000000000000000000000000000000000000000158015906105f957507f000000000000000000000000000000000000000000000000000000000000000073ffffffffffffffffffffffffffffffffffffffff1615155b156107ab576040517efdd58e0000000000000000000000000000000000000000000000000000000081523060048201527f000000000000000000000000000000000000000000000000000000000000000060248201527f000000000000000000000000000000000000000000000000000000000000000073ffffffffffffffffffffffffffffffffffffffff169062fdd58e90604401602060405180830381865afa1580156106ac573d6000803e3d6000fd5b505050506040513d601f19601f820116820180604052508101906106d091906128ad565b6040517f75b0d9cd0000000000000000000000000000000000000000000000000000000081527f000000000000000000000000000000000000000000000000000000000000000060048201527f000000000000000000000000000000000000000000000000000000000000000073ffffffffffffffffffffffffffffffffffffffff16906375b0d9cd90602401602060405180830381865afa15801561077a573d6000803e3d6000fd5b505050506040513d601f19601f8201168201806040525081019061079e91906128ad565b6107a891906128f5565b90505b7f000000000000000000000000000000000000000000000000000000000000000073ffffffffffffffffffffffffffffffffffffffff161561099e576040517efdd58e0000000000000000000000000000000000000000000000000000000081523060048201527f000000000000000000000000000000000000000000000000000000000000000060248201527f000000000000000000000000000000000000000000000000000000000000000073ffffffffffffffffffffffffffffffffffffffff169062fdd58e90604401602060405180830381865afa158015610895573d6000803e3d6000fd5b505050506040513d601f19601f820116820180604052508101906108b991906128ad565b6040517f75b0d9cd0000000000000000000000000000000000000000000000000000000081527f000000000000000000000000000000000000000000000000000000000000000060048201527f000000000000000000000000000000000000000000000000000000000000000073ffffffffffffffffffffffffffffffffffffffff16906375b0d9cd90602401602060405180830381865afa158015610963573d6000803e3d6000fd5b505050506040513d601f19601f8201168201806040525081019061098791906128ad565b61099191906128f5565b61099b9082612908565b90505b806109a860025490565b6109b29190612908565b91505090565b7f00000000000000000000000000000000000000000000000000000000000000008414610a11576040517fcdceed0000000000000000000000000000000000000000000000000000000000815260040160405180910390fd5b610a1c838383610a23565b5050505050565b600033610a318582856111cc565b610a3c85858561129d565b506001949350505050565b905090565b6000610a4761150c565b33600081815260016020908152604080832073ffffffffffffffffffffffffffffffffffffffff871684529091528120549091906105889082908690610a9d908790612908565b611019565b610aaa611640565b610ab460006116c1565b565b73ffffffffffffffffffffffffffffffffffffffff81166000908152600560205260408120546104e2565b610ae9611640565b7f00000000000000000000000000000000000000000000000000000000000000008314610b42576040517fcdceed0000000000000000000000000000000000000000000000000000000000815260040160405180910390fd5b610b4c8282611738565b505050565b7f00000000000000000000000000000000000000000000000000000000000000008314610baa576040517fcdceed0000000000000000000000000000000000000000000000000000000000815260040160405180910390fd5b610bb4828261057a565b50505050565b6000610bc461182b565b01610bcd611c98565b01610bd83382611738565b50565b6060600480546104f790612860565b610bf2611640565b7f00000000000000000000000000000000000000000000000000000000000000008314610c4b576040517fcdceed0000000000000000000000000000000000000000000000000000000000815260040160405180910390fd5b610b4c82826120dd565b33600081815260016020908152604080832073ffffffffffffffffffffffffffffffffffffffff8716845290915281205490919083811015610d1e576040517f08c379a000000000000000000000000000000000000000000000000000000000815260206004820152602560248201527f45524332303a2064656372656173656420616c6c6f77616e63652062656c6f7760448201527f207a65726f00000000000000000000000000000000000000000000000000000060648201526084015b60405180910390fd5b610a3c8286868403611019565b60003361058881858561129d565b60006104e2610592565b83421115610dad576040517f08c379a000000000000000000000000000000000000000000000000000000000815260206004820152601d60248201527f45524332305065726d69743a206578706972656420646561646c696e650000006044820152606401610d15565b60007f6e71edae12b1b97f4d1f60370fef10105fa2faae0126114a169c64845d6126c9888888610ddc8c6122a1565b60408051602081019690965273ffffffffffffffffffffffffffffffffffffffff94851690860152929091166060840152608083015260a082015260c0810186905260e0016040516020818303038152906040528051906020012090506000610e44826122d6565b90506000610e548287878761233f565b90508973ffffffffffffffffffffffffffffffffffffffff168173ffffffffffffffffffffffffffffffffffffffff1614610eeb576040517f08c379a000000000000000000000000000000000000000000000000000000000815260206004820152601e60248201527f45524332305065726d69743a20696e76616c6964207369676e617475726500006044820152606401610d15565b610ef68a8a8a611019565b50505050505050505050565b610f0a611640565b73ffffffffffffffffffffffffffffffffffffffff8116610fad576040517f08c379a000000000000000000000000000000000000000000000000000000000815260206004820152602660248201527f4f776e61626c653a206e6577206f776e657220697320746865207a65726f206160448201527f64647265737300000000000000000000000000000000000000000000000000006064820152608401610d15565b610bd8816116c1565b7f0000000000000000000000000000000000000000000000000000000000000000831461100f576040517fcdceed0000000000000000000000000000000000000000000000000000000000815260040160405180910390fd5b610bb48282610d2b565b73ffffffffffffffffffffffffffffffffffffffff83166110bb576040517f08c379a0000000000000000000000000000000000000000000000000000000008152602060048201526024808201527f45524332303a20617070726f76652066726f6d20746865207a65726f2061646460448201527f72657373000000000000000000000000000000000000000000000000000000006064820152608401610d15565b73ffffffffffffffffffffffffffffffffffffffff821661115e576040517f08c379a000000000000000000000000000000000000000000000000000000000815260206004820152602260248201527f45524332303a20617070726f766520746f20746865207a65726f20616464726560448201527f73730000000000000000000000000000000000000000000000000000000000006064820152608401610d15565b73ffffffffffffffffffffffffffffffffffffffff83811660008181526001602090815260408083209487168084529482529182902085905590518481527f8c5be1e5ebec7d5bd14f71427d1e84f3dd0314c0f7b2291e5b200ac8c7c3b925910160405180910390a3505050565b73ffffffffffffffffffffffffffffffffffffffff8381166000908152600160209081526040808320938616835292905220547fffffffffffffffffffffffffffffffffffffffffffffffffffffffffffffffff8114610bb45781811015611290576040517f08c379a000000000000000000000000000000000000000000000000000000000815260206004820152601d60248201527f45524332303a20696e73756666696369656e7420616c6c6f77616e63650000006044820152606401610d15565b610bb48484848403611019565b73ffffffffffffffffffffffffffffffffffffffff8316611340576040517f08c379a000000000000000000000000000000000000000000000000000000000815260206004820152602560248201527f45524332303a207472616e736665722066726f6d20746865207a65726f20616460448201527f64726573730000000000000000000000000000000000000000000000000000006064820152608401610d15565b73ffffffffffffffffffffffffffffffffffffffff82166113e3576040517f08c379a000000000000000000000000000000000000000000000000000000000815260206004820152602360248201527f45524332303a207472616e7366657220746f20746865207a65726f206164647260448201527f65737300000000000000000000000000000000000000000000000000000000006064820152608401610d15565b73ffffffffffffffffffffffffffffffffffffffff831660009081526020819052604090205481811015611499576040517f08c379a000000000000000000000000000000000000000000000000000000000815260206004820152602660248201527f45524332303a207472616e7366657220616d6f756e742065786365656473206260448201527f616c616e636500000000000000000000000000000000000000000000000000006064820152608401610d15565b73ffffffffffffffffffffffffffffffffffffffff848116600081815260208181526040808320878703905593871680835291849020805487019055925185815290927fddf252ad1be2c89b69c2b068fc378daa952ba7f163c4a11628f55a4df523b3ef910160405180910390a3610bb4565b60003073ffffffffffffffffffffffffffffffffffffffff7f00000000000000000000000000000000000000000000000000000000000000001614801561157257507f000000000000000000000000000000000000000000000000000000000000000046145b1561159c57507f000000000000000000000000000000000000000000000000000000000000000090565b50604080517f00000000000000000000000000000000000000000000000000000000000000006020808301919091527f0000000000000000000000000000000000000000000000000000000000000000828401527f000000000000000000000000000000000000000000000000000000000000000060608301524660808301523060a0808401919091528351808403909101815260c0909201909252805191012090565b60075473ffffffffffffffffffffffffffffffffffffffff163314610ab4576040517f08c379a000000000000000000000000000000000000000000000000000000000815260206004820181905260248201527f4f776e61626c653a2063616c6c6572206973206e6f7420746865206f776e65726044820152606401610d15565b6007805473ffffffffffffffffffffffffffffffffffffffff8381167fffffffffffffffffffffffff0000000000000000000000000000000000000000831681179093556040519116919082907f8be0079c531659141344cd1fd0a4f28419497f9722a3daafe3b4186f6b6457e090600090a35050565b73ffffffffffffffffffffffffffffffffffffffff82166117b5576040517f08c379a000000000000000000000000000000000000000000000000000000000815260206004820152601f60248201527f45524332303a206d696e7420746f20746865207a65726f2061646472657373006044820152606401610d15565b80600260008282546117c79190612908565b909155505073ffffffffffffffffffffffffffffffffffffffff8216600081815260208181526040808320805486019055518481527fddf252ad1be2c89b69c2b068fc378daa952ba7f163c4a11628f55a4df523b3ef910160405180910390a35050565b60007f0000000000000000000000000000000000000000000000000000000000000000158061188e57507f000000000000000000000000000000000000000000000000000000000000000073ffffffffffffffffffffffffffffffffffffffff16155b156118995750600090565b6040517f465909fc0000000000000000000000000000000000000000000000000000000081527f000000000000000000000000000000000000000000000000000000000000000060048201526000907f000000000000000000000000000000000000000000000000000000000000000073ffffffffffffffffffffffffffffffffffffffff169063465909fc90602401602060405180830381865afa158015611946573d6000803e3d6000fd5b505050506040513d601f19601f8201168201806040525081019061196a919061291b565b6040517fb656463b0000000000000000000000000000000000000000000000000000000081523360048201527f0000000000000000000000000000000000000000000000000000000000000000602482015290915060009073ffffffffffffffffffffffffffffffffffffffff7f0000000000000000000000000000000000000000000000000000000000000000169063b656463b90604401602060405180830381865afa158015611a20573d6000803e3d6000fd5b505050506040513d601f19601f82011682018060405250810190611a4491906128ad565b9050600073ffffffffffffffffffffffffffffffffffffffff831615611af7576040517f70a0823100000000000000000000000000000000000000000000000000000000815233600482015273ffffffffffffffffffffffffffffffffffffffff8416906370a0823190602401602060405180830381865afa158015611ace573d6000803e3d6000fd5b505050506040513d601f19601f82011682018060405250810190611af291906128ad565b611afa565b60005b9050818101935083600003611b13576000935050505090565b8015611bb8576040517f23b872dd0000000000000000000000000000000000000000000000000000000081523360048201523060248201526044810182905273ffffffffffffffffffffffffffffffffffffffff8416906323b872dd906064016020604051808303816000875af1158015611b92573d6000803e3d6000fd5b505050506040513d601f19601f82011682018060405250810190611bb69190612938565b505b8115611c92576040517f33681fb10000000000000000000000000000000000000000000000000000000081523360048201527f00000000000000000000000000000000000000000000000000000000000000006024820152604481018390523060648201527f000000000000000000000000000000000000000000000000000000000000000073ffffffffffffffffffffffffffffffffffffffff16906333681fb1906084015b600060405180830381600087803b158015611c7957600080fd5b505af1158015611c8d573d6000803e3d6000fd5b505050505b50505090565b60007f000000000000000000000000000000000000000000000000000000000000000073ffffffffffffffffffffffffffffffffffffffff16611cdb5750600090565b6040517fea78803f0000000000000000000000000000000000000000000000000000000081527f000000000000000000000000000000000000000000000000000000000000000060048201526000907f000000000000000000000000000000000000000000000000000000000000000073ffffffffffffffffffffffffffffffffffffffff169063ea78803f90602401602060405180830381865afa158015611d88573d6000803e3d6000fd5b505050506040513d601f19601f82011682018060405250810190611dac919061291b565b6040517f5287af370000000000000000000000000000000000000000000000000000000081523360048201527f0000000000000000000000000000000000000000000000000000000000000000602482015290915060009073ffffffffffffffffffffffffffffffffffffffff7f00000000000000000000000000000000000000000000000000000000000000001690635287af3790604401602060405180830381865afa158015611e62573d6000803e3d6000fd5b505050506040513d601f19601f82011682018060405250810190611e8691906128ad565b9050600073ffffffffffffffffffffffffffffffffffffffff831615611f5d576040517efdd58e0000000000000000000000000000000000000000000000000000000081523360048201527f0000000000000000000000000000000000000000000000000000000000000000602482015273ffffffffffffffffffffffffffffffffffffffff84169062fdd58e90604401602060405180830381865afa158015611f34573d6000803e3d6000fd5b505050506040513d601f19601f82011682018060405250810190611f5891906128ad565b611f60565b60005b9050818101935083600003611f79576000935050505090565b8015612032576040517f1c0f12b60000000000000000000000000000000000000000000000000000000081527f000000000000000000000000000000000000000000000000000000000000000060048201523360248201523060448201526064810182905273ffffffffffffffffffffffffffffffffffffffff841690631c0f12b690608401600060405180830381600087803b15801561201957600080fd5b505af115801561202d573d6000803e3d6000fd5b505050505b8115611c92576040517fac689bcd0000000000000000000000000000000000000000000000000000000081523360048201527f00000000000000000000000000000000000000000000000000000000000000006024820152306044820152606481018390527f000000000000000000000000000000000000000000000000000000000000000073ffffffffffffffffffffffffffffffffffffffff169063ac689bcd90608401611c5f565b73ffffffffffffffffffffffffffffffffffffffff8216612180576040517f08c379a000000000000000000000000000000000000000000000000000000000815260206004820152602160248201527f45524332303a206275726e2066726f6d20746865207a65726f2061646472657360448201527f73000000000000000000000000000000000000000000000000000000000000006064820152608401610d15565b73ffffffffffffffffffffffffffffffffffffffff821660009081526020819052604090205481811015612236576040517f08c379a000000000000000000000000000000000000000000000000000000000815260206004820152602260248201527f45524332303a206275726e20616d6f756e7420657863656564732062616c616e60448201527f63650000000000000000000000000000000000000000000000000000000000006064820152608401610d15565b73ffffffffffffffffffffffffffffffffffffffff83166000818152602081815260408083208686039055600280548790039055518581529192917fddf252ad1be2c89b69c2b068fc378daa952ba7f163c4a11628f55a4df523b3ef910160405180910390a3505050565b73ffffffffffffffffffffffffffffffffffffffff811660009081526005602052604090208054600181018255905b50919050565b60006104e26122e361150c565b836040517f19010000000000000000000000000000000000000000000000000000000000006020820152602281018390526042810182905260009060620160405160208183030381529060405280519060200120905092915050565b600080600061235087878787612367565b9150915061235d81612456565b5095945050505050565b6000807f7fffffffffffffffffffffffffffffff5d576e7357a4501ddfe92f46681b20a083111561239e575060009050600361244d565b6040805160008082526020820180845289905260ff881692820192909252606081018690526080810185905260019060a0016020604051602081039080840390855afa1580156123f2573d6000803e3d6000fd5b50506040517fffffffffffffffffffffffffffffffffffffffffffffffffffffffffffffffe0015191505073ffffffffffffffffffffffffffffffffffffffff81166124465760006001925092505061244d565b9150600090505b94509492505050565b600081600481111561246a5761246a61295a565b036124725750565b60018160048111156124865761248661295a565b036124ed576040517f08c379a000000000000000000000000000000000000000000000000000000000815260206004820152601860248201527f45434453413a20696e76616c6964207369676e617475726500000000000000006044820152606401610d15565b60028160048111156125015761250161295a565b03612568576040517f08c379a000000000000000000000000000000000000000000000000000000000815260206004820152601f60248201527f45434453413a20696e76616c6964207369676e6174757265206c656e677468006044820152606401610d15565b600381600481111561257c5761257c61295a565b03610bd8576040517f08c379a000000000000000000000000000000000000000000000000000000000815260206004820152602260248201527f45434453413a20696e76616c6964207369676e6174757265202773272076616c60448201527f75650000000000000000000000000000000000000000000000000000000000006064820152608401610d15565b73ffffffffffffffffffffffffffffffffffffffff81168114610bd857600080fd5b6000806040838503121561263e57600080fd5b823561264981612609565b946020939093013593505050565b600060208083528351808285015260005b8181101561268457858101830151858201604001528201612668565b5060006040828601015260407fffffffffffffffffffffffffffffffffffffffffffffffffffffffffffffffe0601f8301168501019250505092915050565b600080600080608085870312156126d957600080fd5b8435935060208501356126eb81612609565b925060408501356126fb81612609565b9396929550929360600135925050565b60008060006060848603121561272057600080fd5b833561272b81612609565b9250602084013561273b81612609565b929592945050506040919091013590565b60006020828403121561275e57600080fd5b813561276981612609565b9392505050565b60008060006060848603121561278557600080fd5b83359250602084013561273b81612609565b6000602082840312156127a957600080fd5b5035919050565b600080600080600080600060e0888a0312156127cb57600080fd5b87356127d681612609565b965060208801356127e681612609565b95506040880135945060608801359350608088013560ff8116811461280a57600080fd5b9699959850939692959460a0840135945060c09093013592915050565b6000806040838503121561283a57600080fd5b823561284581612609565b9150602083013561285581612609565b809150509250929050565b600181811c9082168061287457607f821691505b6020821081036122d0577f4e487b7100000000000000000000000000000000000000000000000000000000600052602260045260246000fd5b6000602082840312156128bf57600080fd5b5051919050565b7f4e487b7100000000000000000000000000000000000000000000000000000000600052601160045260246000fd5b818103818111156104e2576104e26128c6565b808201808211156104e2576104e26128c6565b60006020828403121561292d57600080fd5b815161276981612609565b60006020828403121561294a57600080fd5b8151801515811461276957600080fd5b7f4e487b7100000000000000000000000000000000000000000000000000000000600052602160045260246000fdfea2646970667358221220527030013e520ac8fbbf8990cc9726f0137c3773d84c349825e265096d4a069564736f6c63430008110033a2646970667358221220f62071641191c15363d1fbbc0cf02f52e3c842508d67a0d0e2b56838f75d797164736f6c63430008110033",
    "linkReferences": {}
  },
  "methodIdentifiers": {
    "deploy(string,string,uint256,address,address,uint256)": "54daf6fc",
    "projectDirectory()": "5bfc7804",
    "tokenStore()": "61930630",
    "v1ProjectDirectory()": "84e2e0fe"
  },
  "id": 1
}