{
  "abi": [
    {
      "inputs": [],
      "name": "ETH",
      "outputs": [
        {
          "internalType": "uint256",
          "name": "",
          "type": "uint256"
        }
      ],
      "stateMutability": "pure",
      "type": "function"
    },
    {
      "inputs": [],
      "name": "ETHToken",
      "outputs": [
        {
          "internalType": "address",
          "name": "",
          "type": "address"
        }
      ],
      "stateMutability": "pure",
      "type": "function"
    },
    {
      "inputs": [],
      "name": "MAX_FEE",
      "outputs": [
        {
          "internalType": "uint256",
          "name": "",
          "type": "uint256"
        }
      ],
      "stateMutability": "pure",
      "type": "function"
    },
    {
      "inputs": [],
      "name": "SPLITS_TOTAL_PERCENT",
      "outputs": [
        {
          "internalType": "uint256",
          "name": "",
          "type": "uint256"
        }
      ],
      "stateMutability": "pure",
      "type": "function"
    },
    {
      "inputs": [],
      "name": "USD",
      "outputs": [
        {
          "internalType": "uint256",
          "name": "",
          "type": "uint256"
        }
      ],
      "stateMutability": "pure",
      "type": "function"
    }
  ],
  "bytecode": {
    "object": "0x608060405234801561001057600080fd5b5060ce8061001f6000396000f3fe6080604052348015600f57600080fd5b5060043610605f5760003560e01c8063bc063e1a11604a578063bc063e1a146080578063d3c4fca9146080578063deda20c214608957600080fd5b80631bf6c21b1460645780638322fff214607a575b600080fd5b60025b6040519081526020015b60405180910390f35b60016067565b633b9aca006067565b60405161eeee8152602001607156fea2646970667358221220a01836879297ebbfc25abbf50c2213265385439b7c09e7418263f7bcb8c82def64736f6c63430008110033",
    "linkReferences": {}
  },
  "methodIdentifiers": {
    "ETH()": "8322fff2",
    "ETHToken()": "deda20c2",
    "MAX_FEE()": "bc063e1a",
    "SPLITS_TOTAL_PERCENT()": "d3c4fca9",
    "USD()": "1bf6c21b"
  },
  "id": 3
}