{
  "abi": [
    {
      "anonymous": false,
      "inputs": [
        {
          "indexed": true,
          "internalType": "uint256",
          "name": "currency",
          "type": "uint256"
        },
        {
          "indexed": true,
          "internalType": "contract AggregatorV3Interface",
          "name": "feed",
          "type": "address"
        }
      ],
      "name": "AddFeed",
      "type": "event"
    },
    {
      "anonymous": false,
      "inputs": [
        {
          "indexed": true,
          "internalType": "address",
          "name": "previousOwner",
          "type": "address"
        },
        {
          "indexed": true,
          "internalType": "address",
          "name": "newOwner",
          "type": "address"
        }
      ],
      "name": "OwnershipTransferred",
      "type": "event"
    },
    {
      "inputs": [
        {
          "internalType": "contract AggregatorV3Interface",
          "name": "_feed",
          "type": "address"
        },
        {
          "internalType": "uint256",
          "name": "_currency",
          "type": "uint256"
        }
      ],
      "name": "addFeed",
      "outputs": [],
      "stateMutability": "nonpayable",
      "type": "function"
    },
    {
      "inputs": [
        {
          "internalType": "uint256",
          "name": "",
          "type": "uint256"
        }
      ],
      "name": "feedDecimalAdjuster",
      "outputs": [
        {
          "internalType": "uint256",
          "name": "",
          "type": "uint256"
        }
      ],
      "stateMutability": "view",
      "type": "function"
    },
    {
      "inputs": [
        {
          "internalType": "uint256",
          "name": "",
          "type": "uint256"
        }
      ],
      "name": "feedFor",
      "outputs": [
        {
          "internalType": "contract AggregatorV3Interface",
          "name": "",
          "type": "address"
        }
      ],
      "stateMutability": "view",
      "type": "function"
    },
    {
      "inputs": [
        {
          "internalType": "uint256",
          "name": "_currency",
          "type": "uint256"
        }
      ],
      "name": "getETHPriceFor",
      "outputs": [
        {
          "internalType": "uint256",
          "name": "",
          "type": "uint256"
        }
      ],
      "stateMutability": "view",
      "type": "function"
    },
    {
      "inputs": [],
      "name": "owner",
      "outputs": [
        {
          "internalType": "address",
          "name": "",
          "type": "address"
        }
      ],
      "stateMutability": "view",
      "type": "function"
    },
    {
      "inputs": [],
      "name": "renounceOwnership",
      "outputs": [],
      "stateMutability": "nonpayable",
      "type": "function"
    },
    {
      "inputs": [],
      "name": "targetDecimals",
      "outputs": [
        {
          "internalType": "uint256",
          "name": "",
          "type": "uint256"
        }
      ],
      "stateMutability": "view",
      "type": "function"
    },
    {
      "inputs": [
        {
          "internalType": "address",
          "name": "newOwner",
          "type": "address"
        }
      ],
      "name": "transferOwnership",
      "outputs": [],
      "stateMutability": "nonpayable",
      "type": "function"
    }
  ],
  "bytecode": {
    "object": "0x608060405234801561001057600080fd5b5061001a3361001f565b61006f565b600080546001600160a01b038381166001600160a01b0319831681178455604051919092169283917f8be0079c531659141344cd1fd0a4f28419497f9722a3daafe3b4186f6b6457e09190a35050565b610a3c8061007e6000396000f3fe608060405234801561001057600080fd5b50600436106100885760003560e01c80638da5cb5b1161005b5780638da5cb5b1461012d5780639fa937231461014b578063a967c20b1461015e578063f2fde38b1461017157600080fd5b80630aee17f21461008d57806336c1387e146100c05780633e495e66146100c8578063715018a614610123575b600080fd5b6100ad61009b3660046107ae565b60016020526000908152604090205481565b6040519081526020015b60405180910390f35b6100ad601281565b6100fe6100d63660046107ae565b60026020526000908152604090205473ffffffffffffffffffffffffffffffffffffffff1681565b60405173ffffffffffffffffffffffffffffffffffffffff90911681526020016100b7565b61012b610184565b005b60005473ffffffffffffffffffffffffffffffffffffffff166100fe565b6100ad6101593660046107ae565b610198565b61012b61016c366004610782565b6102ea565b61012b61017f36600461075e565b610592565b61018c610649565b61019660006106ca565b565b6000816101b1576101ab6012600a61089b565b92915050565b60008281526002602052604090205473ffffffffffffffffffffffffffffffffffffffff1680610242576040517f08c379a000000000000000000000000000000000000000000000000000000000815260206004820152601e60248201527f5072696365733a3a67657445544850726963653a204e4f545f464f554e44000060448201526064015b60405180910390fd5b60008173ffffffffffffffffffffffffffffffffffffffff1663feaf968c6040518163ffffffff1660e01b815260040160a06040518083038186803b15801561028a57600080fd5b505afa15801561029e573d6000803e3d6000fd5b505050506040513d601f19601f820116820180604052508101906102c291906107c7565b5050506000868152600160205260409020549092506102e2915082610961565b949350505050565b6102f2610649565b6000811161035c576040517f08c379a000000000000000000000000000000000000000000000000000000000815260206004820152601960248201527f5072696365733a3a616464466565643a205245534552564544000000000000006044820152606401610239565b60008181526002602052604090205473ffffffffffffffffffffffffffffffffffffffff16156103e8576040517f08c379a000000000000000000000000000000000000000000000000000000000815260206004820152601f60248201527f5072696365733a3a616464466565643a20414c52454144595f455849535453006044820152606401610239565b60008273ffffffffffffffffffffffffffffffffffffffff1663313ce5676040518163ffffffff1660e01b815260040160206040518083038186803b15801561043057600080fd5b505afa158015610444573d6000803e3d6000fd5b505050506040513d601f19601f820116820180604052508101906104689190610817565b60ff16905060128111156104d8576040517f08c379a000000000000000000000000000000000000000000000000000000000815260206004820152601d60248201527f5072696365733a3a616464466565643a204241445f444543494d414c530000006044820152606401610239565b600082815260026020526040902080547fffffffffffffffffffffffff00000000000000000000000000000000000000001673ffffffffffffffffffffffffffffffffffffffff851617905561052f81601261099e565b61053a90600a61089b565b60008381526001602052604080822092909255905173ffffffffffffffffffffffffffffffffffffffff85169184917f39f7e6a3cfe66d8f71a7951583f7e721ef29d4650eddf11122c8df3aa1c772fd9190a3505050565b61059a610649565b73ffffffffffffffffffffffffffffffffffffffff811661063d576040517f08c379a000000000000000000000000000000000000000000000000000000000815260206004820152602660248201527f4f776e61626c653a206e6577206f776e657220697320746865207a65726f206160448201527f64647265737300000000000000000000000000000000000000000000000000006064820152608401610239565b610646816106ca565b50565b60005473ffffffffffffffffffffffffffffffffffffffff163314610196576040517f08c379a000000000000000000000000000000000000000000000000000000000815260206004820181905260248201527f4f776e61626c653a2063616c6c6572206973206e6f7420746865206f776e65726044820152606401610239565b6000805473ffffffffffffffffffffffffffffffffffffffff8381167fffffffffffffffffffffffff0000000000000000000000000000000000000000831681178455604051919092169283917f8be0079c531659141344cd1fd0a4f28419497f9722a3daafe3b4186f6b6457e09190a35050565b805169ffffffffffffffffffff8116811461075957600080fd5b919050565b60006020828403121561077057600080fd5b813561077b816109e4565b9392505050565b6000806040838503121561079557600080fd5b82356107a0816109e4565b946020939093013593505050565b6000602082840312156107c057600080fd5b5035919050565b600080600080600060a086880312156107df57600080fd5b6107e88661073f565b945060208601519350604086015192506060860151915061080b6080870161073f565b90509295509295909350565b60006020828403121561082957600080fd5b815160ff8116811461077b57600080fd5b600181815b8085111561089357817fffffffffffffffffffffffffffffffffffffffffffffffffffffffffffffffff04821115610879576108796109b5565b8085161561088657918102915b93841c939080029061083f565b509250929050565b600061077b83836000826108b1575060016101ab565b816108be575060006101ab565b81600181146108d457600281146108de576108fa565b60019150506101ab565b60ff8411156108ef576108ef6109b5565b50506001821b6101ab565b5060208310610133831016604e8410600b841016171561091d575081810a6101ab565b610927838361083a565b807fffffffffffffffffffffffffffffffffffffffffffffffffffffffffffffffff04821115610959576109596109b5565b029392505050565b6000817fffffffffffffffffffffffffffffffffffffffffffffffffffffffffffffffff0483118215151615610999576109996109b5565b500290565b6000828210156109b0576109b06109b5565b500390565b7f4e487b7100000000000000000000000000000000000000000000000000000000600052601160045260246000fd5b73ffffffffffffffffffffffffffffffffffffffff8116811461064657600080fdfea26469706673582212200715fac13aa5e03a1e991867e672172efe71103635e2c57d771432eea3ff438e64736f6c63430008060033",
    "linkReferences": {}
  },
  "methodIdentifiers": {
    "addFeed(address,uint256)": "a967c20b",
    "feedDecimalAdjuster(uint256)": "0aee17f2",
    "feedFor(uint256)": "3e495e66",
    "getETHPriceFor(uint256)": "9fa93723",
    "owner()": "8da5cb5b",
    "renounceOwnership()": "715018a6",
    "targetDecimals()": "36c1387e",
    "transferOwnership(address)": "f2fde38b"
  },
  "id": 30
}