{
  "abi": [
    {
      "inputs": [
        {
          "internalType": "contract IJBOperatorStore",
          "name": "_operatorStore",
          "type": "address"
        }
      ],
      "stateMutability": "nonpayable",
      "type": "constructor"
    },
    {
      "inputs": [],
      "name": "UNAUTHORIZED",
      "type": "error"
    },
    {
      "anonymous": false,
      "inputs": [
        {
          "indexed": true,
          "internalType": "address",
          "name": "owner",
          "type": "address"
        },
        {
          "indexed": true,
          "internalType": "address",
          "name": "approved",
          "type": "address"
        },
        {
          "indexed": true,
          "internalType": "uint256",
          "name": "tokenId",
          "type": "uint256"
        }
      ],
      "name": "Approval",
      "type": "event"
    },
    {
      "anonymous": false,
      "inputs": [
        {
          "indexed": true,
          "internalType": "address",
          "name": "owner",
          "type": "address"
        },
        {
          "indexed": true,
          "internalType": "address",
          "name": "operator",
          "type": "address"
        },
        {
          "indexed": false,
          "internalType": "bool",
          "name": "approved",
          "type": "bool"
        }
      ],
      "name": "ApprovalForAll",
      "type": "event"
    },
    {
      "anonymous": false,
      "inputs": [
        {
          "indexed": true,
          "internalType": "uint256",
          "name": "projectId",
          "type": "uint256"
        },
        {
          "indexed": true,
          "internalType": "address",
          "name": "owner",
          "type": "address"
        },
        {
          "components": [
            {
              "internalType": "string",
              "name": "content",
              "type": "string"
            },
            {
              "internalType": "uint256",
              "name": "domain",
              "type": "uint256"
            }
          ],
          "indexed": false,
          "internalType": "struct JBProjectMetadata",
          "name": "metadata",
          "type": "tuple"
        },
        {
          "indexed": false,
          "internalType": "address",
          "name": "caller",
          "type": "address"
        }
      ],
      "name": "Create",
      "type": "event"
    },
    {
      "anonymous": false,
      "inputs": [
        {
          "indexed": true,
          "internalType": "address",
          "name": "delegator",
          "type": "address"
        },
        {
          "indexed": true,
          "internalType": "address",
          "name": "fromDelegate",
          "type": "address"
        },
        {
          "indexed": true,
          "internalType": "address",
          "name": "toDelegate",
          "type": "address"
        }
      ],
      "name": "DelegateChanged",
      "type": "event"
    },
    {
      "anonymous": false,
      "inputs": [
        {
          "indexed": true,
          "internalType": "address",
          "name": "delegate",
          "type": "address"
        },
        {
          "indexed": false,
          "internalType": "uint256",
          "name": "previousBalance",
          "type": "uint256"
        },
        {
          "indexed": false,
          "internalType": "uint256",
          "name": "newBalance",
          "type": "uint256"
        }
      ],
      "name": "DelegateVotesChanged",
      "type": "event"
    },
    {
      "anonymous": false,
      "inputs": [
        {
          "indexed": true,
          "internalType": "address",
          "name": "previousOwner",
          "type": "address"
        },
        {
          "indexed": true,
          "internalType": "address",
          "name": "newOwner",
          "type": "address"
        }
      ],
      "name": "OwnershipTransferred",
      "type": "event"
    },
    {
      "anonymous": false,
      "inputs": [
        {
          "indexed": true,
          "internalType": "uint256",
          "name": "projectId",
          "type": "uint256"
        },
        {
          "components": [
            {
              "internalType": "string",
              "name": "content",
              "type": "string"
            },
            {
              "internalType": "uint256",
              "name": "domain",
              "type": "uint256"
            }
          ],
          "indexed": false,
          "internalType": "struct JBProjectMetadata",
          "name": "metadata",
          "type": "tuple"
        },
        {
          "indexed": false,
          "internalType": "address",
          "name": "caller",
          "type": "address"
        }
      ],
      "name": "SetMetadata",
      "type": "event"
    },
    {
      "anonymous": false,
      "inputs": [
        {
          "indexed": true,
          "internalType": "contract IJBTokenUriResolver",
          "name": "resolver",
          "type": "address"
        },
        {
          "indexed": false,
          "internalType": "address",
          "name": "caller",
          "type": "address"
        }
      ],
      "name": "SetTokenUriResolver",
      "type": "event"
    },
    {
      "anonymous": false,
      "inputs": [
        {
          "indexed": true,
          "internalType": "address",
          "name": "from",
          "type": "address"
        },
        {
          "indexed": true,
          "internalType": "address",
          "name": "to",
          "type": "address"
        },
        {
          "indexed": true,
          "internalType": "uint256",
          "name": "tokenId",
          "type": "uint256"
        }
      ],
      "name": "Transfer",
      "type": "event"
    },
    {
      "inputs": [],
      "name": "DOMAIN_SEPARATOR",
      "outputs": [
        {
          "internalType": "bytes32",
          "name": "",
          "type": "bytes32"
        }
      ],
      "stateMutability": "view",
      "type": "function"
    },
    {
      "inputs": [
        {
          "internalType": "address",
          "name": "to",
          "type": "address"
        },
        {
          "internalType": "uint256",
          "name": "tokenId",
          "type": "uint256"
        }
      ],
      "name": "approve",
      "outputs": [],
      "stateMutability": "nonpayable",
      "type": "function"
    },
    {
      "inputs": [
        {
          "internalType": "address",
          "name": "owner",
          "type": "address"
        }
      ],
      "name": "balanceOf",
      "outputs": [
        {
          "internalType": "uint256",
          "name": "",
          "type": "uint256"
        }
      ],
      "stateMutability": "view",
      "type": "function"
    },
    {
      "inputs": [],
      "name": "count",
      "outputs": [
        {
          "internalType": "uint256",
          "name": "",
          "type": "uint256"
        }
      ],
      "stateMutability": "view",
      "type": "function"
    },
    {
      "inputs": [
        {
          "internalType": "address",
          "name": "_owner",
          "type": "address"
        },
        {
          "components": [
            {
              "internalType": "string",
              "name": "content",
              "type": "string"
            },
            {
              "internalType": "uint256",
              "name": "domain",
              "type": "uint256"
            }
          ],
          "internalType": "struct JBProjectMetadata",
          "name": "_metadata",
          "type": "tuple"
        }
      ],
      "name": "createFor",
      "outputs": [
        {
          "internalType": "uint256",
          "name": "projectId",
          "type": "uint256"
        }
      ],
      "stateMutability": "nonpayable",
      "type": "function"
    },
    {
      "inputs": [
        {
          "internalType": "address",
          "name": "delegatee",
          "type": "address"
        }
      ],
      "name": "delegate",
      "outputs": [],
      "stateMutability": "nonpayable",
      "type": "function"
    },
    {
      "inputs": [
        {
          "internalType": "address",
          "name": "delegatee",
          "type": "address"
        },
        {
          "internalType": "uint256",
          "name": "nonce",
          "type": "uint256"
        },
        {
          "internalType": "uint256",
          "name": "expiry",
          "type": "uint256"
        },
        {
          "internalType": "uint8",
          "name": "v",
          "type": "uint8"
        },
        {
          "internalType": "bytes32",
          "name": "r",
          "type": "bytes32"
        },
        {
          "internalType": "bytes32",
          "name": "s",
          "type": "bytes32"
        }
      ],
      "name": "delegateBySig",
      "outputs": [],
      "stateMutability": "nonpayable",
      "type": "function"
    },
    {
      "inputs": [
        {
          "internalType": "address",
          "name": "account",
          "type": "address"
        }
      ],
      "name": "delegates",
      "outputs": [
        {
          "internalType": "address",
          "name": "",
          "type": "address"
        }
      ],
      "stateMutability": "view",
      "type": "function"
    },
    {
      "inputs": [
        {
          "internalType": "uint256",
          "name": "tokenId",
          "type": "uint256"
        }
      ],
      "name": "getApproved",
      "outputs": [
        {
          "internalType": "address",
          "name": "",
          "type": "address"
        }
      ],
      "stateMutability": "view",
      "type": "function"
    },
    {
      "inputs": [
        {
          "internalType": "uint256",
          "name": "blockNumber",
          "type": "uint256"
        }
      ],
      "name": "getPastTotalSupply",
      "outputs": [
        {
          "internalType": "uint256",
          "name": "",
          "type": "uint256"
        }
      ],
      "stateMutability": "view",
      "type": "function"
    },
    {
      "inputs": [
        {
          "internalType": "address",
          "name": "account",
          "type": "address"
        },
        {
          "internalType": "uint256",
          "name": "blockNumber",
          "type": "uint256"
        }
      ],
      "name": "getPastVotes",
      "outputs": [
        {
          "internalType": "uint256",
          "name": "",
          "type": "uint256"
        }
      ],
      "stateMutability": "view",
      "type": "function"
    },
    {
      "inputs": [
        {
          "internalType": "address",
          "name": "account",
          "type": "address"
        }
      ],
      "name": "getVotes",
      "outputs": [
        {
          "internalType": "uint256",
          "name": "",
          "type": "uint256"
        }
      ],
      "stateMutability": "view",
      "type": "function"
    },
    {
      "inputs": [
        {
          "internalType": "address",
          "name": "owner",
          "type": "address"
        },
        {
          "internalType": "address",
          "name": "operator",
          "type": "address"
        }
      ],
      "name": "isApprovedForAll",
      "outputs": [
        {
          "internalType": "bool",
          "name": "",
          "type": "bool"
        }
      ],
      "stateMutability": "view",
      "type": "function"
    },
    {
      "inputs": [
        {
          "internalType": "uint256",
          "name": "",
          "type": "uint256"
        },
        {
          "internalType": "uint256",
          "name": "",
          "type": "uint256"
        }
      ],
      "name": "metadataContentOf",
      "outputs": [
        {
          "internalType": "string",
          "name": "",
          "type": "string"
        }
      ],
      "stateMutability": "view",
      "type": "function"
    },
    {
      "inputs": [],
      "name": "name",
      "outputs": [
        {
          "internalType": "string",
          "name": "",
          "type": "string"
        }
      ],
      "stateMutability": "view",
      "type": "function"
    },
    {
      "inputs": [
        {
          "internalType": "address",
          "name": "owner",
          "type": "address"
        }
      ],
      "name": "nonces",
      "outputs": [
        {
          "internalType": "uint256",
          "name": "",
          "type": "uint256"
        }
      ],
      "stateMutability": "view",
      "type": "function"
    },
    {
      "inputs": [],
      "name": "operatorStore",
      "outputs": [
        {
          "internalType": "contract IJBOperatorStore",
          "name": "",
          "type": "address"
        }
      ],
      "stateMutability": "view",
      "type": "function"
    },
    {
      "inputs": [],
      "name": "owner",
      "outputs": [
        {
          "internalType": "address",
          "name": "",
          "type": "address"
        }
      ],
      "stateMutability": "view",
      "type": "function"
    },
    {
      "inputs": [
        {
          "internalType": "uint256",
          "name": "tokenId",
          "type": "uint256"
        }
      ],
      "name": "ownerOf",
      "outputs": [
        {
          "internalType": "address",
          "name": "",
          "type": "address"
        }
      ],
      "stateMutability": "view",
      "type": "function"
    },
    {
      "inputs": [],
      "name": "renounceOwnership",
      "outputs": [],
      "stateMutability": "nonpayable",
      "type": "function"
    },
    {
      "inputs": [
        {
          "internalType": "address",
          "name": "from",
          "type": "address"
        },
        {
          "internalType": "address",
          "name": "to",
          "type": "address"
        },
        {
          "internalType": "uint256",
          "name": "tokenId",
          "type": "uint256"
        }
      ],
      "name": "safeTransferFrom",
      "outputs": [],
      "stateMutability": "nonpayable",
      "type": "function"
    },
    {
      "inputs": [
        {
          "internalType": "address",
          "name": "from",
          "type": "address"
        },
        {
          "internalType": "address",
          "name": "to",
          "type": "address"
        },
        {
          "internalType": "uint256",
          "name": "tokenId",
          "type": "uint256"
        },
        {
          "internalType": "bytes",
          "name": "data",
          "type": "bytes"
        }
      ],
      "name": "safeTransferFrom",
      "outputs": [],
      "stateMutability": "nonpayable",
      "type": "function"
    },
    {
      "inputs": [
        {
          "internalType": "address",
          "name": "operator",
          "type": "address"
        },
        {
          "internalType": "bool",
          "name": "approved",
          "type": "bool"
        }
      ],
      "name": "setApprovalForAll",
      "outputs": [],
      "stateMutability": "nonpayable",
      "type": "function"
    },
    {
      "inputs": [
        {
          "internalType": "uint256",
          "name": "_projectId",
          "type": "uint256"
        },
        {
          "components": [
            {
              "internalType": "string",
              "name": "content",
              "type": "string"
            },
            {
              "internalType": "uint256",
              "name": "domain",
              "type": "uint256"
            }
          ],
          "internalType": "struct JBProjectMetadata",
          "name": "_metadata",
          "type": "tuple"
        }
      ],
      "name": "setMetadataOf",
      "outputs": [],
      "stateMutability": "nonpayable",
      "type": "function"
    },
    {
      "inputs": [
        {
          "internalType": "contract IJBTokenUriResolver",
          "name": "_newResolver",
          "type": "address"
        }
      ],
      "name": "setTokenUriResolver",
      "outputs": [],
      "stateMutability": "nonpayable",
      "type": "function"
    },
    {
      "inputs": [
        {
          "internalType": "bytes4",
          "name": "_interfaceId",
          "type": "bytes4"
        }
      ],
      "name": "supportsInterface",
      "outputs": [
        {
          "internalType": "bool",
          "name": "",
          "type": "bool"
        }
      ],
      "stateMutability": "view",
      "type": "function"
    },
    {
      "inputs": [],
      "name": "symbol",
      "outputs": [
        {
          "internalType": "string",
          "name": "",
          "type": "string"
        }
      ],
      "stateMutability": "view",
      "type": "function"
    },
    {
      "inputs": [
        {
          "internalType": "uint256",
          "name": "_projectId",
          "type": "uint256"
        }
      ],
      "name": "tokenURI",
      "outputs": [
        {
          "internalType": "string",
          "name": "",
          "type": "string"
        }
      ],
      "stateMutability": "view",
      "type": "function"
    },
    {
      "inputs": [],
      "name": "tokenUriResolver",
      "outputs": [
        {
          "internalType": "contract IJBTokenUriResolver",
          "name": "",
          "type": "address"
        }
      ],
      "stateMutability": "view",
      "type": "function"
    },
    {
      "inputs": [
        {
          "internalType": "address",
          "name": "from",
          "type": "address"
        },
        {
          "internalType": "address",
          "name": "to",
          "type": "address"
        },
        {
          "internalType": "uint256",
          "name": "tokenId",
          "type": "uint256"
        }
      ],
      "name": "transferFrom",
      "outputs": [],
      "stateMutability": "nonpayable",
      "type": "function"
    },
    {
      "inputs": [
        {
          "internalType": "address",
          "name": "newOwner",
          "type": "address"
        }
      ],
      "name": "transferOwnership",
      "outputs": [],
      "stateMutability": "nonpayable",
      "type": "function"
    }
  ],
  "bytecode": {
    "object": "0x6101606040526000600b553480156200001757600080fd5b5060405162003dec38038062003dec8339810160408190526200003a916200028a565b6040805180820182526011808252704a75696365626f782050726f6a6563747360781b60208084018290528451808601865260018152603160f81b818301528551808701875293845283820192835285518087019096526008865267094aa92868a849eb60c31b918601919091526001600160601b0319606087901b166080528251939490939091620000d19160009190620001e4565b508051620000e7906001906020840190620001e4565b505082516020938401208251928401929092206101008390526101208190524660c0818152604080517f8b73c3c69bb8fe3d512ecc4cf759cc79239f7b179b0ffacaa9a75d522b39400f8189018190528183019790975260608181019590955260808101939093523060a0808501829052825180860382018152949093019091528251929096019190912090529290921b60e05261014052506200018b3362000192565b50620002f9565b600a80546001600160a01b038381166001600160a01b0319831681179093556040519116919082907f8be0079c531659141344cd1fd0a4f28419497f9722a3daafe3b4186f6b6457e090600090a35050565b828054620001f290620002bc565b90600052602060002090601f01602090048101928262000216576000855562000261565b82601f106200023157805160ff191683800117855562000261565b8280016001018555821562000261579182015b828111156200026157825182559160200191906001019062000244565b506200026f92915062000273565b5090565b5b808211156200026f576000815560010162000274565b6000602082840312156200029d57600080fd5b81516001600160a01b0381168114620002b557600080fd5b9392505050565b600181811c90821680620002d157607f821691505b60208210811415620002f357634e487b7160e01b600052602260045260246000fd5b50919050565b60805160601c60a05160c05160e05160601c610100516101205161014051613a8462000368600039600061189f015260006118ee015260006118c9015260006118220152600061184c01526000611876015260008181610409015281816119b60152611a920152613a846000f3fe608060405234801561001057600080fd5b50600436106101e55760003560e01c8063666d87a01161010f578063a22cb465116100a2578063c87b56dd11610071578063c87b56dd14610451578063e131fc0c14610464578063e985e9c514610484578063f2fde38b146104cd57600080fd5b8063a22cb465146103f1578063ad007d6314610404578063b88d4fde1461042b578063c3cda5201461043e57600080fd5b80638da5cb5b116100de5780638da5cb5b146103a55780638e539e8c146103c357806395d89b41146103d65780639ab24eb0146103de57600080fd5b8063666d87a01461036457806370a0823114610377578063715018a61461038a5780637ecebe001461039257600080fd5b80633644e5151161018757806342842e0e1161015657806342842e0e146102f2578063587cde1e146103055780635c19a95c1461033e5780636352211e1461035157600080fd5b80633644e515146102b157806336574975146102b957806339fbc775146102cc5780633a46b1a8146102df57600080fd5b8063081812fc116101c3578063081812fc1461023e578063095ea7b31461027657806323b872dd1461028b5780632407497e1461029e57600080fd5b806301ffc9a7146101ea57806306661abd1461021257806306fdde0314610229575b600080fd5b6101fd6101f8366004613480565b6104e0565b60405190151581526020015b60405180910390f35b61021b600b5481565b604051908152602001610209565b610231610588565b6040516102099190613630565b61025161024c366004613531565b61061a565b60405173ffffffffffffffffffffffffffffffffffffffff9091168152602001610209565b6102896102843660046133d5565b61064e565b005b610289610299366004613267565b6107e0565b6102896102ac366004613211565b610881565b61021b610902565b6102896102c736600461354a565b610911565b6102316102da36600461357b565b61099b565b61021b6102ed3660046133d5565b610a40565b610289610300366004613267565b610a76565b610251610313366004613211565b73ffffffffffffffffffffffffffffffffffffffff9081166000908152600660205260409020541690565b61028961034c366004613211565b610a91565b61025161035f366004613531565b610aa0565b61021b610372366004613385565b610b2c565b61021b610385366004613211565b610bec565b610289610cba565b61021b6103a0366004613211565b610cce565b600a5473ffffffffffffffffffffffffffffffffffffffff16610251565b61021b6103d1366004613531565b610cf9565b610231610d6f565b61021b6103ec366004613211565b610d7e565b6102896103ff366004613357565b610dd0565b6102517f000000000000000000000000000000000000000000000000000000000000000081565b6102896104393660046132a8565b610ddb565b61028961044c366004613401565b610e83565b61023161045f366004613531565b610ffa565b600d546102519073ffffffffffffffffffffffffffffffffffffffff1681565b6101fd61049236600461322e565b73ffffffffffffffffffffffffffffffffffffffff918216600090815260056020908152604080832093909416825291909152205460ff1690565b6102896104db366004613211565b6110f2565b60007fffffffff0000000000000000000000000000000000000000000000000000000082167faa91a66f00000000000000000000000000000000000000000000000000000000148061057357507fffffffff0000000000000000000000000000000000000000000000000000000082167fad007d6300000000000000000000000000000000000000000000000000000000145b806105825750610582826111a9565b92915050565b606060008054610597906138ad565b80601f01602080910402602001604051908101604052809291908181526020018280546105c3906138ad565b80156106105780601f106105e557610100808354040283529160200191610610565b820191906000526020600020905b8154815290600101906020018083116105f357829003601f168201915b5050505050905090565b60006106258261128c565b5060009081526004602052604090205473ffffffffffffffffffffffffffffffffffffffff1690565b600061065982610aa0565b90508073ffffffffffffffffffffffffffffffffffffffff168373ffffffffffffffffffffffffffffffffffffffff16141561071c576040517f08c379a000000000000000000000000000000000000000000000000000000000815260206004820152602160248201527f4552433732313a20617070726f76616c20746f2063757272656e74206f776e6560448201527f720000000000000000000000000000000000000000000000000000000000000060648201526084015b60405180910390fd5b3373ffffffffffffffffffffffffffffffffffffffff8216148061074557506107458133610492565b6107d1576040517f08c379a000000000000000000000000000000000000000000000000000000000815260206004820152603d60248201527f4552433732313a20617070726f76652063616c6c6572206973206e6f7420746f60448201527f6b656e206f776e6572206f7220617070726f76656420666f7220616c6c0000006064820152608401610713565b6107db8383611317565b505050565b6107ea33826113b7565b610876576040517f08c379a000000000000000000000000000000000000000000000000000000000815260206004820152602d60248201527f4552433732313a2063616c6c6572206973206e6f7420746f6b656e206f776e6560448201527f72206f7220617070726f766564000000000000000000000000000000000000006064820152608401610713565b6107db838383611477565b610889611787565b600d80547fffffffffffffffffffffffff00000000000000000000000000000000000000001673ffffffffffffffffffffffffffffffffffffffff83169081179091556040513381527fe7784d93cfbfa4408e19577e6cc0436f4dbb51214b70e100905dfce9def88c169060200160405180910390a250565b600061090c611808565b905090565b61091a82610aa0565b82600661092883838361193c565b610932848061371d565b6000878152600c602090815260408083208983013584529091529020610959929091613151565b50847fd07720acb527321c9d1766f359139d0e0e3551bd99fb3ca353d4f008f3aad8e6853360405161098c929190613643565b60405180910390a25050505050565b600c602090815260009283526040808420909152908252902080546109bf906138ad565b80601f01602080910402602001604051908101604052809291908181526020018280546109eb906138ad565b8015610a385780601f10610a0d57610100808354040283529160200191610a38565b820191906000526020600020905b815481529060010190602001808311610a1b57829003601f168201915b505050505081565b73ffffffffffffffffffffffffffffffffffffffff82166000908152600760205260408120610a6f9083611b45565b9392505050565b6107db83838360405180602001604052806000815250610ddb565b33610a9c8183611ca5565b5050565b60008181526002602052604081205473ffffffffffffffffffffffffffffffffffffffff1680610582576040517f08c379a000000000000000000000000000000000000000000000000000000000815260206004820152601860248201527f4552433732313a20696e76616c696420746f6b656e20494400000000000000006044820152606401610713565b6000600b60008154610b3d906138fb565b91829055509050610b4e8382611d3c565b6000610b5a838061371d565b90501115610b9557610b6c828061371d565b6000838152600c602090815260408083208783013584529091529020610b93929091613151565b505b8273ffffffffffffffffffffffffffffffffffffffff16817fa1c6fd563bcbc3222f6031d7c26ff58cd6c701abff0bfffe652d055ce40629d48433604051610bde929190613643565b60405180910390a392915050565b600073ffffffffffffffffffffffffffffffffffffffff8216610c91576040517f08c379a000000000000000000000000000000000000000000000000000000000815260206004820152602960248201527f4552433732313a2061646472657373207a65726f206973206e6f74206120766160448201527f6c6964206f776e657200000000000000000000000000000000000000000000006064820152608401610713565b5073ffffffffffffffffffffffffffffffffffffffff1660009081526003602052604090205490565b610cc2611787565b610ccc6000611d56565b565b73ffffffffffffffffffffffffffffffffffffffff8116600090815260096020526040812054610582565b6000438210610d64576040517f08c379a000000000000000000000000000000000000000000000000000000000815260206004820152601a60248201527f566f7465733a20626c6f636b206e6f7420796574206d696e65640000000000006044820152606401610713565b610582600883611b45565b606060018054610597906138ad565b73ffffffffffffffffffffffffffffffffffffffff81166000908152600760205260408120610dac90611dcd565b7bffffffffffffffffffffffffffffffffffffffffffffffffffffffff1692915050565b610a9c338383611e1c565b610de533836113b7565b610e71576040517f08c379a000000000000000000000000000000000000000000000000000000000815260206004820152602d60248201527f4552433732313a2063616c6c6572206973206e6f7420746f6b656e206f776e6560448201527f72206f7220617070726f766564000000000000000000000000000000000000006064820152608401610713565b610e7d84848484611f4a565b50505050565b83421115610eed576040517f08c379a000000000000000000000000000000000000000000000000000000000815260206004820152601860248201527f566f7465733a207369676e6174757265206578706972656400000000000000006044820152606401610713565b604080517fe48329057bfd03d55e49b547132e39cffd9c1820ad7b9d4c5307691425d15adf602082015273ffffffffffffffffffffffffffffffffffffffff8816918101919091526060810186905260808101859052600090610f7490610f6c9060a00160405160208183030381529060405280519060200120611fed565b858585612056565b9050610f7f8161207e565b8614610fe7576040517f08c379a000000000000000000000000000000000000000000000000000000000815260206004820152601460248201527f566f7465733a20696e76616c6964206e6f6e63650000000000000000000000006044820152606401610713565b610ff18188611ca5565b50505050505050565b600d5460609073ffffffffffffffffffffffffffffffffffffffff1661102e57505060408051602081019091526000815290565b600d546040517fda0544aa0000000000000000000000000000000000000000000000000000000081526004810184905273ffffffffffffffffffffffffffffffffffffffff9091169063da0544aa9060240160006040518083038186803b15801561109857600080fd5b505afa1580156110ac573d6000803e3d6000fd5b505050506040513d6000823e601f3d9081017fffffffffffffffffffffffffffffffffffffffffffffffffffffffffffffffe016820160405261058291908101906134ba565b6110fa611787565b73ffffffffffffffffffffffffffffffffffffffff811661119d576040517f08c379a000000000000000000000000000000000000000000000000000000000815260206004820152602660248201527f4f776e61626c653a206e6577206f776e657220697320746865207a65726f206160448201527f64647265737300000000000000000000000000000000000000000000000000006064820152608401610713565b6111a681611d56565b50565b60007fffffffff0000000000000000000000000000000000000000000000000000000082167f80ac58cd00000000000000000000000000000000000000000000000000000000148061123c57507fffffffff0000000000000000000000000000000000000000000000000000000082167f5b5e139f00000000000000000000000000000000000000000000000000000000145b8061058257507f01ffc9a7000000000000000000000000000000000000000000000000000000007fffffffff00000000000000000000000000000000000000000000000000000000831614610582565b60008181526002602052604090205473ffffffffffffffffffffffffffffffffffffffff166111a6576040517f08c379a000000000000000000000000000000000000000000000000000000000815260206004820152601860248201527f4552433732313a20696e76616c696420746f6b656e20494400000000000000006044820152606401610713565b600081815260046020526040902080547fffffffffffffffffffffffff00000000000000000000000000000000000000001673ffffffffffffffffffffffffffffffffffffffff8416908117909155819061137182610aa0565b73ffffffffffffffffffffffffffffffffffffffff167f8c5be1e5ebec7d5bd14f71427d1e84f3dd0314c0f7b2291e5b200ac8c7c3b92560405160405180910390a45050565b6000806113c383610aa0565b90508073ffffffffffffffffffffffffffffffffffffffff168473ffffffffffffffffffffffffffffffffffffffff161480611431575073ffffffffffffffffffffffffffffffffffffffff80821660009081526005602090815260408083209388168352929052205460ff165b8061146f57508373ffffffffffffffffffffffffffffffffffffffff166114578461061a565b73ffffffffffffffffffffffffffffffffffffffff16145b949350505050565b8273ffffffffffffffffffffffffffffffffffffffff1661149782610aa0565b73ffffffffffffffffffffffffffffffffffffffff161461153a576040517f08c379a000000000000000000000000000000000000000000000000000000000815260206004820152602560248201527f4552433732313a207472616e736665722066726f6d20696e636f72726563742060448201527f6f776e65720000000000000000000000000000000000000000000000000000006064820152608401610713565b73ffffffffffffffffffffffffffffffffffffffff82166115dc576040517f08c379a0000000000000000000000000000000000000000000000000000000008152602060048201526024808201527f4552433732313a207472616e7366657220746f20746865207a65726f2061646460448201527f72657373000000000000000000000000000000000000000000000000000000006064820152608401610713565b6115e983838360016120b3565b8273ffffffffffffffffffffffffffffffffffffffff1661160982610aa0565b73ffffffffffffffffffffffffffffffffffffffff16146116ac576040517f08c379a000000000000000000000000000000000000000000000000000000000815260206004820152602560248201527f4552433732313a207472616e736665722066726f6d20696e636f72726563742060448201527f6f776e65720000000000000000000000000000000000000000000000000000006064820152608401610713565b600081815260046020908152604080832080547fffffffffffffffffffffffff000000000000000000000000000000000000000090811690915573ffffffffffffffffffffffffffffffffffffffff8781168086526003855283862080547fffffffffffffffffffffffffffffffffffffffffffffffffffffffffffffffff01905590871680865283862080546001019055868652600290945282852080549092168417909155905184937fddf252ad1be2c89b69c2b068fc378daa952ba7f163c4a11628f55a4df523b3ef91a46107db838383600161216f565b600a5473ffffffffffffffffffffffffffffffffffffffff163314610ccc576040517f08c379a000000000000000000000000000000000000000000000000000000000815260206004820181905260248201527f4f776e61626c653a2063616c6c6572206973206e6f7420746865206f776e65726044820152606401610713565b60003073ffffffffffffffffffffffffffffffffffffffff7f00000000000000000000000000000000000000000000000000000000000000001614801561186e57507f000000000000000000000000000000000000000000000000000000000000000046145b1561189857507f000000000000000000000000000000000000000000000000000000000000000090565b50604080517f00000000000000000000000000000000000000000000000000000000000000006020808301919091527f0000000000000000000000000000000000000000000000000000000000000000828401527f000000000000000000000000000000000000000000000000000000000000000060608301524660808301523060a0808401919091528351808403909101815260c0909201909252805191012090565b3373ffffffffffffffffffffffffffffffffffffffff841614801590611a3257506040517fc161c93f00000000000000000000000000000000000000000000000000000000815233600482015273ffffffffffffffffffffffffffffffffffffffff848116602483015260448201849052606482018390527f0000000000000000000000000000000000000000000000000000000000000000169063c161c93f9060840160206040518083038186803b1580156119f857600080fd5b505afa158015611a0c573d6000803e3d6000fd5b505050506040513d601f19601f82011682018060405250810190611a309190613463565b155b8015611b0e57506040517fc161c93f00000000000000000000000000000000000000000000000000000000815233600482015273ffffffffffffffffffffffffffffffffffffffff848116602483015260006044830152606482018390527f0000000000000000000000000000000000000000000000000000000000000000169063c161c93f9060840160206040518083038186803b158015611ad457600080fd5b505afa158015611ae8573d6000803e3d6000fd5b505050506040513d601f19601f82011682018060405250810190611b0c9190613463565b155b156107db576040517f075fd2b100000000000000000000000000000000000000000000000000000000815260040160405180910390fd5b6000438210611bb0576040517f08c379a000000000000000000000000000000000000000000000000000000000815260206004820181905260248201527f436865636b706f696e74733a20626c6f636b206e6f7420796574206d696e65646044820152606401610713565b6000611bbb8361217f565b84549091506000816005811115611c19576000611bd784612219565b611be1908561386a565b60008981526020902090915081015463ffffffff9081169086161015611c0957809150611c17565b611c14816001613817565b92505b505b6000611c27888685856122fe565b90508015611c7857611c4c88611c3e60018461386a565b600091825260209091200190565b5464010000000090047bffffffffffffffffffffffffffffffffffffffffffffffffffffffff16611c7b565b60005b7bffffffffffffffffffffffffffffffffffffffffffffffffffffffff1698975050505050505050565b73ffffffffffffffffffffffffffffffffffffffff82811660008181526006602052604080822080548686167fffffffffffffffffffffffff0000000000000000000000000000000000000000821681179092559151919094169392849290917f3134e8a2e6d97e929a7e54011ea5485d7d196dd5f0ba4d4ef95803e8e3fc257f9190a46107db8183611d378661235c565b612367565b610a9c8282604051806020016040528060008152506124fd565b600a805473ffffffffffffffffffffffffffffffffffffffff8381167fffffffffffffffffffffffff0000000000000000000000000000000000000000831681179093556040519116919082907f8be0079c531659141344cd1fd0a4f28419497f9722a3daafe3b4186f6b6457e090600090a35050565b80546000908015611e1357611de783611c3e60018461386a565b5464010000000090047bffffffffffffffffffffffffffffffffffffffffffffffffffffffff16610a6f565b60009392505050565b8173ffffffffffffffffffffffffffffffffffffffff168373ffffffffffffffffffffffffffffffffffffffff161415611eb2576040517f08c379a000000000000000000000000000000000000000000000000000000000815260206004820152601960248201527f4552433732313a20617070726f766520746f2063616c6c6572000000000000006044820152606401610713565b73ffffffffffffffffffffffffffffffffffffffff83811660008181526005602090815260408083209487168084529482529182902080547fffffffffffffffffffffffffffffffffffffffffffffffffffffffffffffff001686151590811790915591519182527f17307eab39ab6107e8899845ad3d59bd9653f200f220920489ca2b5937696c31910160405180910390a3505050565b611f55848484611477565b611f61848484846125a0565b610e7d576040517f08c379a000000000000000000000000000000000000000000000000000000000815260206004820152603260248201527f4552433732313a207472616e7366657220746f206e6f6e20455243373231526560448201527f63656976657220696d706c656d656e74657200000000000000000000000000006064820152608401610713565b6000610582611ffa611808565b836040517f19010000000000000000000000000000000000000000000000000000000000006020820152602281018390526042810182905260009060620160405160208183030381529060405280519060200120905092915050565b60008060006120678787878761279c565b915091506120748161288b565b5095945050505050565b73ffffffffffffffffffffffffffffffffffffffff811660009081526009602052604090208054600181018255905b50919050565b6001811115610e7d5773ffffffffffffffffffffffffffffffffffffffff8416156121135773ffffffffffffffffffffffffffffffffffffffff84166000908152600360205260408120805483929061210d90849061386a565b90915550505b73ffffffffffffffffffffffffffffffffffffffff831615610e7d5773ffffffffffffffffffffffffffffffffffffffff831660009081526003602052604081208054839290612164908490613817565b909155505050505050565b61217a848483612a42565b610e7d565b600063ffffffff821115612215576040517f08c379a000000000000000000000000000000000000000000000000000000000815260206004820152602660248201527f53616665436173743a2076616c756520646f65736e27742066697420696e203360448201527f32206269747300000000000000000000000000000000000000000000000000006064820152608401610713565b5090565b60008161222857506000919050565b6000600161223584612ad9565b901c6001901b9050600181848161224e5761224e613963565b048201901c9050600181848161226657612266613963565b048201901c9050600181848161227e5761227e613963565b048201901c9050600181848161229657612296613963565b048201901c905060018184816122ae576122ae613963565b048201901c905060018184816122c6576122c6613963565b048201901c905060018184816122de576122de613963565b048201901c9050610a6f818285816122f8576122f8613963565b04612b6d565b60005b818310156123545760006123158484612b83565b60008781526020902090915063ffffffff86169082015463ffffffff1611156123405780925061234e565b61234b816001613817565b93505b50612301565b509392505050565b600061058282610bec565b8173ffffffffffffffffffffffffffffffffffffffff168373ffffffffffffffffffffffffffffffffffffffff16141580156123a35750600081115b156107db5773ffffffffffffffffffffffffffffffffffffffff8316156124585773ffffffffffffffffffffffffffffffffffffffff8316600090815260076020526040812081906123f890612b9e85612baa565b915091508473ffffffffffffffffffffffffffffffffffffffff167fdec2bacdd2f05b59de34da9b523dff8be42e5e38e818c82fdb0bae774387a724838360405161244d929190918252602082015260400190565b60405180910390a250505b73ffffffffffffffffffffffffffffffffffffffff8216156107db5773ffffffffffffffffffffffffffffffffffffffff8216600090815260076020526040812081906124a890612bf785612baa565b915091508373ffffffffffffffffffffffffffffffffffffffff167fdec2bacdd2f05b59de34da9b523dff8be42e5e38e818c82fdb0bae774387a724838360405161098c929190918252602082015260400190565b6125078383612c03565b61251460008484846125a0565b6107db576040517f08c379a000000000000000000000000000000000000000000000000000000000815260206004820152603260248201527f4552433732313a207472616e7366657220746f206e6f6e20455243373231526560448201527f63656976657220696d706c656d656e74657200000000000000000000000000006064820152608401610713565b600073ffffffffffffffffffffffffffffffffffffffff84163b15612794576040517f150b7a0200000000000000000000000000000000000000000000000000000000815273ffffffffffffffffffffffffffffffffffffffff85169063150b7a02906126179033908990889088906004016135e7565b602060405180830381600087803b15801561263157600080fd5b505af192505050801561267f575060408051601f3d9081017fffffffffffffffffffffffffffffffffffffffffffffffffffffffffffffffe016820190925261267c9181019061349d565b60015b612749573d8080156126ad576040519150601f19603f3d011682016040523d82523d6000602084013e6126b2565b606091505b508051612741576040517f08c379a000000000000000000000000000000000000000000000000000000000815260206004820152603260248201527f4552433732313a207472616e7366657220746f206e6f6e20455243373231526560448201527f63656976657220696d706c656d656e74657200000000000000000000000000006064820152608401610713565b805181602001fd5b7fffffffff00000000000000000000000000000000000000000000000000000000167f150b7a020000000000000000000000000000000000000000000000000000000014905061146f565b50600161146f565b6000807f7fffffffffffffffffffffffffffffff5d576e7357a4501ddfe92f46681b20a08311156127d35750600090506003612882565b6040805160008082526020820180845289905260ff881692820192909252606081018690526080810185905260019060a0016020604051602081039080840390855afa158015612827573d6000803e3d6000fd5b50506040517fffffffffffffffffffffffffffffffffffffffffffffffffffffffffffffffe0015191505073ffffffffffffffffffffffffffffffffffffffff811661287b57600060019250925050612882565b9150600090505b94509492505050565b600081600481111561289f5761289f613992565b14156128a85750565b60018160048111156128bc576128bc613992565b1415612924576040517f08c379a000000000000000000000000000000000000000000000000000000000815260206004820152601860248201527f45434453413a20696e76616c6964207369676e617475726500000000000000006044820152606401610713565b600281600481111561293857612938613992565b14156129a0576040517f08c379a000000000000000000000000000000000000000000000000000000000815260206004820152601f60248201527f45434453413a20696e76616c6964207369676e6174757265206c656e677468006044820152606401610713565b60038160048111156129b4576129b4613992565b14156111a6576040517f08c379a000000000000000000000000000000000000000000000000000000000815260206004820152602260248201527f45434453413a20696e76616c6964207369676e6174757265202773272076616c60448201527f75650000000000000000000000000000000000000000000000000000000000006064820152608401610713565b73ffffffffffffffffffffffffffffffffffffffff8316612a6e57612a6b6008612bf783612baa565b50505b73ffffffffffffffffffffffffffffffffffffffff8216612a9a57612a976008612b9e83612baa565b50505b73ffffffffffffffffffffffffffffffffffffffff8381166000908152600660205260408082205485841683529120546107db92918216911683612367565b600080608083901c15612aee57608092831c92015b604083901c15612b0057604092831c92015b602083901c15612b1257602092831c92015b601083901c15612b2457601092831c92015b600883901c15612b3657600892831c92015b600483901c15612b4857600492831c92015b600283901c15612b5a57600292831c92015b600183901c156105825760010192915050565b6000818310612b7c5781610a6f565b5090919050565b6000612b92600284841861382f565b610a6f90848416613817565b6000610a6f828461386a565b600080612bea85612be5612bbd88611dcd565b7bffffffffffffffffffffffffffffffffffffffffffffffffffffffff16868863ffffffff16565b612e40565b915091505b935093915050565b6000610a6f8284613817565b73ffffffffffffffffffffffffffffffffffffffff8216612c80576040517f08c379a000000000000000000000000000000000000000000000000000000000815260206004820181905260248201527f4552433732313a206d696e7420746f20746865207a65726f20616464726573736044820152606401610713565b60008181526002602052604090205473ffffffffffffffffffffffffffffffffffffffff1615612d0c576040517f08c379a000000000000000000000000000000000000000000000000000000000815260206004820152601c60248201527f4552433732313a20746f6b656e20616c7265616479206d696e746564000000006044820152606401610713565b612d1a6000838360016120b3565b60008181526002602052604090205473ffffffffffffffffffffffffffffffffffffffff1615612da6576040517f08c379a000000000000000000000000000000000000000000000000000000000815260206004820152601c60248201527f4552433732313a20746f6b656e20616c7265616479206d696e746564000000006044820152606401610713565b73ffffffffffffffffffffffffffffffffffffffff8216600081815260036020908152604080832080546001019055848352600290915280822080547fffffffffffffffffffffffff0000000000000000000000000000000000000000168417905551839291907fddf252ad1be2c89b69c2b068fc378daa952ba7f163c4a11628f55a4df523b3ef908290a4610a9c60008383600161216f565b600080612e5e84612e504361217f565b612e5986612e8b565b612f39565b7bffffffffffffffffffffffffffffffffffffffffffffffffffffffff91821693501690505b9250929050565b60007bffffffffffffffffffffffffffffffffffffffffffffffffffffffff821115612215576040517f08c379a000000000000000000000000000000000000000000000000000000000815260206004820152602760248201527f53616665436173743a2076616c756520646f65736e27742066697420696e203260448201527f32342062697473000000000000000000000000000000000000000000000000006064820152608401610713565b8254600090819080156130e2576000612f5787611c3e60018561386a565b60408051808201909152905463ffffffff8082168084526401000000009092047bffffffffffffffffffffffffffffffffffffffffffffffffffffffff1660208401529192509087161015613008576040517f08c379a000000000000000000000000000000000000000000000000000000000815260206004820152601b60248201527f436865636b706f696e743a2064656372656173696e67206b65797300000000006044820152606401610713565b8563ffffffff16816000015163ffffffff16141561306d578461303088611c3e60018661386a565b80547bffffffffffffffffffffffffffffffffffffffffffffffffffffffff929092166401000000000263ffffffff9092169190911790556130d2565b6040805180820190915263ffffffff80881682527bffffffffffffffffffffffffffffffffffffffffffffffffffffffff80881660208085019182528b54600181018d5560008d81529190912094519151909216640100000000029216919091179101555b602001519250839150612bef9050565b50506040805180820190915263ffffffff80851682527bffffffffffffffffffffffffffffffffffffffffffffffffffffffff80851660208085019182528854600181018a5560008a815291822095519251909316640100000000029190931617920191909155905081612bef565b82805461315d906138ad565b90600052602060002090601f01602090048101928261317f57600085556131e3565b82601f106131b6578280017fffffffffffffffffffffffffffffffffffffffffffffffffffffffffffffff008235161785556131e3565b828001600101855582156131e3579182015b828111156131e35782358255916020019190600101906131c8565b506122159291505b8082111561221557600081556001016131eb565b6000604082840312156120ad57600080fd5b60006020828403121561322357600080fd5b8135610a6f816139f0565b6000806040838503121561324157600080fd5b823561324c816139f0565b9150602083013561325c816139f0565b809150509250929050565b60008060006060848603121561327c57600080fd5b8335613287816139f0565b92506020840135613297816139f0565b929592945050506040919091013590565b600080600080608085870312156132be57600080fd5b84356132c9816139f0565b935060208501356132d9816139f0565b925060408501359150606085013567ffffffffffffffff8111156132fc57600080fd5b8501601f8101871361330d57600080fd5b803561332061331b826137d1565b613782565b81815288602083850101111561333557600080fd5b8160208401602083013760006020838301015280935050505092959194509250565b6000806040838503121561336a57600080fd5b8235613375816139f0565b9150602083013561325c81613a12565b6000806040838503121561339857600080fd5b82356133a3816139f0565b9150602083013567ffffffffffffffff8111156133bf57600080fd5b6133cb858286016131ff565b9150509250929050565b600080604083850312156133e857600080fd5b82356133f3816139f0565b946020939093013593505050565b60008060008060008060c0878903121561341a57600080fd5b8635613425816139f0565b95506020870135945060408701359350606087013560ff8116811461344957600080fd5b9598949750929560808101359460a0909101359350915050565b60006020828403121561347557600080fd5b8151610a6f81613a12565b60006020828403121561349257600080fd5b8135610a6f81613a20565b6000602082840312156134af57600080fd5b8151610a6f81613a20565b6000602082840312156134cc57600080fd5b815167ffffffffffffffff8111156134e357600080fd5b8201601f810184136134f457600080fd5b805161350261331b826137d1565b81815285602083850101111561351757600080fd5b613528826020830160208601613881565b95945050505050565b60006020828403121561354357600080fd5b5035919050565b6000806040838503121561355d57600080fd5b82359150602083013567ffffffffffffffff8111156133bf57600080fd5b6000806040838503121561358e57600080fd5b50508035926020909101359150565b600081518084526135b5816020860160208601613881565b601f017fffffffffffffffffffffffffffffffffffffffffffffffffffffffffffffffe0169290920160200192915050565b600073ffffffffffffffffffffffffffffffffffffffff808716835280861660208401525083604083015260806060830152613626608083018461359d565b9695505050505050565b602081526000610a6f602083018461359d565b60408152600083357fffffffffffffffffffffffffffffffffffffffffffffffffffffffffffffffe185360301811261367b57600080fd5b8401803567ffffffffffffffff81111561369457600080fd5b8036038613156136a357600080fd5b604080850152806080850152806020830160a0860137600060a082860101526020860135606085015260a07fffffffffffffffffffffffffffffffffffffffffffffffffffffffffffffffe0601f83011685010192505050610a6f602083018473ffffffffffffffffffffffffffffffffffffffff169052565b60008083357fffffffffffffffffffffffffffffffffffffffffffffffffffffffffffffffe184360301811261375257600080fd5b83018035915067ffffffffffffffff82111561376d57600080fd5b602001915036819003821315612e8457600080fd5b604051601f82017fffffffffffffffffffffffffffffffffffffffffffffffffffffffffffffffe016810167ffffffffffffffff811182821017156137c9576137c96139c1565b604052919050565b600067ffffffffffffffff8211156137eb576137eb6139c1565b50601f017fffffffffffffffffffffffffffffffffffffffffffffffffffffffffffffffe01660200190565b6000821982111561382a5761382a613934565b500190565b600082613865577f4e487b7100000000000000000000000000000000000000000000000000000000600052601260045260246000fd5b500490565b60008282101561387c5761387c613934565b500390565b60005b8381101561389c578181015183820152602001613884565b83811115610e7d5750506000910152565b600181811c908216806138c157607f821691505b602082108114156120ad577f4e487b7100000000000000000000000000000000000000000000000000000000600052602260045260246000fd5b60007fffffffffffffffffffffffffffffffffffffffffffffffffffffffffffffffff82141561392d5761392d613934565b5060010190565b7f4e487b7100000000000000000000000000000000000000000000000000000000600052601160045260246000fd5b7f4e487b7100000000000000000000000000000000000000000000000000000000600052601260045260246000fd5b7f4e487b7100000000000000000000000000000000000000000000000000000000600052602160045260246000fd5b7f4e487b7100000000000000000000000000000000000000000000000000000000600052604160045260246000fd5b73ffffffffffffffffffffffffffffffffffffffff811681146111a657600080fd5b80151581146111a657600080fd5b7fffffffff00000000000000000000000000000000000000000000000000000000811681146111a657600080fdfea2646970667358221220d425a5065668220dc7e339d1a335cd2edeeb82f4076bf3349dd18d7deea3195164736f6c63430008060033",
    "linkReferences": {}
  },
  "methodIdentifiers": {
    "DOMAIN_SEPARATOR()": "3644e515",
    "approve(address,uint256)": "095ea7b3",
    "balanceOf(address)": "70a08231",
    "count()": "06661abd",
    "createFor(address,(string,uint256))": "666d87a0",
    "delegate(address)": "5c19a95c",
    "delegateBySig(address,uint256,uint256,uint8,bytes32,bytes32)": "c3cda520",
    "delegates(address)": "587cde1e",
    "getApproved(uint256)": "081812fc",
    "getPastTotalSupply(uint256)": "8e539e8c",
    "getPastVotes(address,uint256)": "3a46b1a8",
    "getVotes(address)": "9ab24eb0",
    "isApprovedForAll(address,address)": "e985e9c5",
    "metadataContentOf(uint256,uint256)": "39fbc775",
    "name()": "06fdde03",
    "nonces(address)": "7ecebe00",
    "operatorStore()": "ad007d63",
    "owner()": "8da5cb5b",
    "ownerOf(uint256)": "6352211e",
    "renounceOwnership()": "715018a6",
    "safeTransferFrom(address,address,uint256)": "42842e0e",
    "safeTransferFrom(address,address,uint256,bytes)": "b88d4fde",
    "setApprovalForAll(address,bool)": "a22cb465",
    "setMetadataOf(uint256,(string,uint256))": "36574975",
    "setTokenUriResolver(address)": "2407497e",
    "supportsInterface(bytes4)": "01ffc9a7",
    "symbol()": "95d89b41",
    "tokenURI(uint256)": "c87b56dd",
    "tokenUriResolver()": "e131fc0c",
    "transferFrom(address,address,uint256)": "23b872dd",
    "transferOwnership(address)": "f2fde38b"
  },
  "id": 63
}