{
  "abi": [
    {
      "inputs": [
        {
          "internalType": "string",
          "name": "_name",
          "type": "string"
        },
        {
          "internalType": "string",
          "name": "_symbol",
          "type": "string"
        },
        {
          "internalType": "uint256",
          "name": "_projectId",
          "type": "uint256"
        },
        {
          "internalType": "contract ITicketBooth",
          "name": "_v1TicketBooth",
          "type": "address"
        },
        {
          "internalType": "contract IJBTokenStore",
          "name": "_v2TokenStore",
          "type": "address"
        },
        {
          "internalType": "uint256",
          "name": "_v1ProjectId",
          "type": "uint256"
        }
      ],
      "stateMutability": "nonpayable",
      "type": "constructor"
    },
    {
      "inputs": [],
      "name": "BAD_PROJECT",
      "type": "error"
    },
    {
      "anonymous": false,
      "inputs": [
        {
          "indexed": true,
          "internalType": "address",
          "name": "owner",
          "type": "address"
        },
        {
          "indexed": true,
          "internalType": "address",
          "name": "spender",
          "type": "address"
        },
        {
          "indexed": false,
          "internalType": "uint256",
          "name": "value",
          "type": "uint256"
        }
      ],
      "name": "Approval",
      "type": "event"
    },
    {
      "anonymous": false,
      "inputs": [
        {
          "indexed": true,
          "internalType": "address",
          "name": "previousOwner",
          "type": "address"
        },
        {
          "indexed": true,
          "internalType": "address",
          "name": "newOwner",
          "type": "address"
        }
      ],
      "name": "OwnershipTransferred",
      "type": "event"
    },
    {
      "anonymous": false,
      "inputs": [
        {
          "indexed": true,
          "internalType": "address",
          "name": "from",
          "type": "address"
        },
        {
          "indexed": true,
          "internalType": "address",
          "name": "to",
          "type": "address"
        },
        {
          "indexed": false,
          "internalType": "uint256",
          "name": "value",
          "type": "uint256"
        }
      ],
      "name": "Transfer",
      "type": "event"
    },
    {
      "inputs": [],
      "name": "DOMAIN_SEPARATOR",
      "outputs": [
        {
          "internalType": "bytes32",
          "name": "",
          "type": "bytes32"
        }
      ],
      "stateMutability": "view",
      "type": "function"
    },
    {
      "inputs": [
        {
          "internalType": "address",
          "name": "owner",
          "type": "address"
        },
        {
          "internalType": "address",
          "name": "spender",
          "type": "address"
        }
      ],
      "name": "allowance",
      "outputs": [
        {
          "internalType": "uint256",
          "name": "",
          "type": "uint256"
        }
      ],
      "stateMutability": "view",
      "type": "function"
    },
    {
      "inputs": [
        {
          "internalType": "address",
          "name": "spender",
          "type": "address"
        },
        {
          "internalType": "uint256",
          "name": "amount",
          "type": "uint256"
        }
      ],
      "name": "approve",
      "outputs": [
        {
          "internalType": "bool",
          "name": "",
          "type": "bool"
        }
      ],
      "stateMutability": "nonpayable",
      "type": "function"
    },
    {
      "inputs": [
        {
          "internalType": "uint256",
          "name": "_projectId",
          "type": "uint256"
        },
        {
          "internalType": "address",
          "name": "_spender",
          "type": "address"
        },
        {
          "internalType": "uint256",
          "name": "_amount",
          "type": "uint256"
        }
      ],
      "name": "approve",
      "outputs": [],
      "stateMutability": "nonpayable",
      "type": "function"
    },
    {
      "inputs": [
        {
          "internalType": "address",
          "name": "_account",
          "type": "address"
        },
        {
          "internalType": "uint256",
          "name": "_projectId",
          "type": "uint256"
        }
      ],
      "name": "balanceOf",
      "outputs": [
        {
          "internalType": "uint256",
          "name": "",
          "type": "uint256"
        }
      ],
      "stateMutability": "view",
      "type": "function"
    },
    {
      "inputs": [
        {
          "internalType": "address",
          "name": "account",
          "type": "address"
        }
      ],
      "name": "balanceOf",
      "outputs": [
        {
          "internalType": "uint256",
          "name": "",
          "type": "uint256"
        }
      ],
      "stateMutability": "view",
      "type": "function"
    },
    {
      "inputs": [
        {
          "internalType": "uint256",
          "name": "_projectId",
          "type": "uint256"
        },
        {
          "internalType": "address",
          "name": "_account",
          "type": "address"
        },
        {
          "internalType": "uint256",
          "name": "_amount",
          "type": "uint256"
        }
      ],
      "name": "burn",
      "outputs": [],
      "stateMutability": "nonpayable",
      "type": "function"
    },
    {
      "inputs": [],
      "name": "decimals",
      "outputs": [
        {
          "internalType": "uint8",
          "name": "",
          "type": "uint8"
        }
      ],
      "stateMutability": "view",
      "type": "function"
    },
    {
      "inputs": [
        {
          "internalType": "address",
          "name": "spender",
          "type": "address"
        },
        {
          "internalType": "uint256",
          "name": "subtractedValue",
          "type": "uint256"
        }
      ],
      "name": "decreaseAllowance",
      "outputs": [
        {
          "internalType": "bool",
          "name": "",
          "type": "bool"
        }
      ],
      "stateMutability": "nonpayable",
      "type": "function"
    },
    {
      "inputs": [
        {
          "internalType": "address",
          "name": "spender",
          "type": "address"
        },
        {
          "internalType": "uint256",
          "name": "addedValue",
          "type": "uint256"
        }
      ],
      "name": "increaseAllowance",
      "outputs": [
        {
          "internalType": "bool",
          "name": "",
          "type": "bool"
        }
      ],
      "stateMutability": "nonpayable",
      "type": "function"
    },
    {
      "inputs": [],
      "name": "migrate",
      "outputs": [],
      "stateMutability": "nonpayable",
      "type": "function"
    },
    {
      "inputs": [
        {
          "internalType": "uint256",
          "name": "_projectId",
          "type": "uint256"
        },
        {
          "internalType": "address",
          "name": "_account",
          "type": "address"
        },
        {
          "internalType": "uint256",
          "name": "_amount",
          "type": "uint256"
        }
      ],
      "name": "mint",
      "outputs": [],
      "stateMutability": "nonpayable",
      "type": "function"
    },
    {
      "inputs": [],
      "name": "name",
      "outputs": [
        {
          "internalType": "string",
          "name": "",
          "type": "string"
        }
      ],
      "stateMutability": "view",
      "type": "function"
    },
    {
      "inputs": [
        {
          "internalType": "address",
          "name": "owner",
          "type": "address"
        }
      ],
      "name": "nonces",
      "outputs": [
        {
          "internalType": "uint256",
          "name": "",
          "type": "uint256"
        }
      ],
      "stateMutability": "view",
      "type": "function"
    },
    {
      "inputs": [],
      "name": "owner",
      "outputs": [
        {
          "internalType": "address",
          "name": "",
          "type": "address"
        }
      ],
      "stateMutability": "view",
      "type": "function"
    },
    {
      "inputs": [
        {
          "internalType": "address",
          "name": "owner",
          "type": "address"
        },
        {
          "internalType": "address",
          "name": "spender",
          "type": "address"
        },
        {
          "internalType": "uint256",
          "name": "value",
          "type": "uint256"
        },
        {
          "internalType": "uint256",
          "name": "deadline",
          "type": "uint256"
        },
        {
          "internalType": "uint8",
          "name": "v",
          "type": "uint8"
        },
        {
          "internalType": "bytes32",
          "name": "r",
          "type": "bytes32"
        },
        {
          "internalType": "bytes32",
          "name": "s",
          "type": "bytes32"
        }
      ],
      "name": "permit",
      "outputs": [],
      "stateMutability": "nonpayable",
      "type": "function"
    },
    {
      "inputs": [],
      "name": "projectId",
      "outputs": [
        {
          "internalType": "uint256",
          "name": "",
          "type": "uint256"
        }
      ],
      "stateMutability": "view",
      "type": "function"
    },
    {
      "inputs": [],
      "name": "renounceOwnership",
      "outputs": [],
      "stateMutability": "nonpayable",
      "type": "function"
    },
    {
      "inputs": [],
      "name": "symbol",
      "outputs": [
        {
          "internalType": "string",
          "name": "",
          "type": "string"
        }
      ],
      "stateMutability": "view",
      "type": "function"
    },
    {
      "inputs": [],
      "name": "totalSupply",
      "outputs": [
        {
          "internalType": "uint256",
          "name": "",
          "type": "uint256"
        }
      ],
      "stateMutability": "view",
      "type": "function"
    },
    {
      "inputs": [
        {
          "internalType": "uint256",
          "name": "_projectId",
          "type": "uint256"
        }
      ],
      "name": "totalSupply",
      "outputs": [
        {
          "internalType": "uint256",
          "name": "",
          "type": "uint256"
        }
      ],
      "stateMutability": "view",
      "type": "function"
    },
    {
      "inputs": [
        {
          "internalType": "address",
          "name": "to",
          "type": "address"
        },
        {
          "internalType": "uint256",
          "name": "amount",
          "type": "uint256"
        }
      ],
      "name": "transfer",
      "outputs": [
        {
          "internalType": "bool",
          "name": "",
          "type": "bool"
        }
      ],
      "stateMutability": "nonpayable",
      "type": "function"
    },
    {
      "inputs": [
        {
          "internalType": "uint256",
          "name": "_projectId",
          "type": "uint256"
        },
        {
          "internalType": "address",
          "name": "_to",
          "type": "address"
        },
        {
          "internalType": "uint256",
          "name": "_amount",
          "type": "uint256"
        }
      ],
      "name": "transfer",
      "outputs": [],
      "stateMutability": "nonpayable",
      "type": "function"
    },
    {
      "inputs": [
        {
          "internalType": "uint256",
          "name": "_projectId",
          "type": "uint256"
        },
        {
          "internalType": "address",
          "name": "_from",
          "type": "address"
        },
        {
          "internalType": "address",
          "name": "_to",
          "type": "address"
        },
        {
          "internalType": "uint256",
          "name": "_amount",
          "type": "uint256"
        }
      ],
      "name": "transferFrom",
      "outputs": [],
      "stateMutability": "nonpayable",
      "type": "function"
    },
    {
      "inputs": [
        {
          "internalType": "address",
          "name": "from",
          "type": "address"
        },
        {
          "internalType": "address",
          "name": "to",
          "type": "address"
        },
        {
          "internalType": "uint256",
          "name": "amount",
          "type": "uint256"
        }
      ],
      "name": "transferFrom",
      "outputs": [
        {
          "internalType": "bool",
          "name": "",
          "type": "bool"
        }
      ],
      "stateMutability": "nonpayable",
      "type": "function"
    },
    {
      "inputs": [
        {
          "internalType": "address",
          "name": "newOwner",
          "type": "address"
        }
      ],
      "name": "transferOwnership",
      "outputs": [],
      "stateMutability": "nonpayable",
      "type": "function"
    },
    {
      "inputs": [],
      "name": "v1ProjectId",
      "outputs": [
        {
          "internalType": "uint256",
          "name": "",
          "type": "uint256"
        }
      ],
      "stateMutability": "view",
      "type": "function"
    },
    {
      "inputs": [],
      "name": "v1TicketBooth",
      "outputs": [
        {
          "internalType": "contract ITicketBooth",
          "name": "",
          "type": "address"
        }
      ],
      "stateMutability": "view",
      "type": "function"
    },
    {
      "inputs": [],
      "name": "v2TokenStore",
      "outputs": [
        {
          "internalType": "contract IJBTokenStore",
          "name": "",
          "type": "address"
        }
      ],
      "stateMutability": "view",
      "type": "function"
    }
  ],
  "bytecode": {
    "object": "0x6101c06040523480156200001257600080fd5b50604051620031063803806200310683398101604081905262000035916200026c565b6040805180820190915260018152603160f81b60208201528690819081886003620000618382620003a3565b506004620000708282620003a3565b5050825160209384012082519284019290922060e08390526101008190524660a0818152604080517f8b73c3c69bb8fe3d512ecc4cf759cc79239f7b179b0ffacaa9a75d522b39400f818901819052818301979097526060810194909452608080850193909352308483018190528151808603909301835260c09485019091528151919096012090529290925261012052506200010f9050336200013c565b6001600855610140939093526001600160a01b039182166101605216610180526101a052506200046f9050565b600780546001600160a01b038381166001600160a01b0319831681179093556040519116919082907f8be0079c531659141344cd1fd0a4f28419497f9722a3daafe3b4186f6b6457e090600090a35050565b634e487b7160e01b600052604160045260246000fd5b600082601f830112620001b657600080fd5b81516001600160401b0380821115620001d357620001d36200018e565b604051601f8301601f19908116603f01168101908282118183101715620001fe57620001fe6200018e565b816040528381526020925086838588010111156200021b57600080fd5b600091505b838210156200023f578582018301518183018401529082019062000220565b600093810190920192909252949350505050565b6001600160a01b03811681146200026957600080fd5b50565b60008060008060008060c087890312156200028657600080fd5b86516001600160401b03808211156200029e57600080fd5b620002ac8a838b01620001a4565b97506020890151915080821115620002c357600080fd5b50620002d289828a01620001a4565b955050604087015193506060870151620002ec8162000253565b6080880151909350620002ff8162000253565b8092505060a087015190509295509295509295565b600181811c908216806200032957607f821691505b6020821081036200034a57634e487b7160e01b600052602260045260246000fd5b50919050565b601f8211156200039e57600081815260208120601f850160051c81016020861015620003795750805b601f850160051c820191505b818110156200039a5782815560010162000385565b5050505b505050565b81516001600160401b03811115620003bf57620003bf6200018e565b620003d781620003d0845462000314565b8462000350565b602080601f8311600181146200040f5760008415620003f65750858301515b600019600386901b1c1916600185901b1785556200039a565b600085815260208120601f198616915b8281101562000440578886015182559484019460019091019084016200041f565b50858210156200045f5787850151600019600388901b60f8161c191681555b5050505050600190811b01905550565b60805160a05160c05160e05161010051610120516101405161016051610180516101a051612b26620005e06000396000818161042d015281816105970152818161062b015281816106f8015281816118b50152818161194701528181611a1e01528181611af80152611d530152600081816103ba015281816107ad0152818161083a0152818161090701528181611e0301528181611e9301528181611f8201526122000152600081816101d7015281816105c1015281816106510152818161071e015281816118dd0152818161197001528181611a5f01528181611b210152611d860152600081816102db01528181610814015281816108e1015281816109ba01528181610aeb01528181610b5301528181610c0401528181610fcb01528181611e6a01528181611f410152818161203a0152818161210e01526121cd015260006115b601526000611605015260006115e001526000611539015260006115630152600061158d0152612b266000f3fe608060405234801561001057600080fd5b50600436106101cd5760003560e01c8063836a104011610104578063a457c2d7116100a2578063d7388f0511610071578063d7388f0514610428578063dd62ed3e1461044f578063f2fde38b14610495578063f8548e36146104a857600080fd5b8063a457c2d7146103dc578063a9059cbb146103ef578063bd85b03914610402578063d505accf1461041557600080fd5b80638fd3ab80116100de5780638fd3ab801461039257806395d89b411461039a5780639eea5f66146103a2578063a2ba0e79146103b557600080fd5b8063836a10401461034e5780638cb0a511146103615780638da5cb5b1461037457600080fd5b8063313ce567116101715780633fafa1271161014b5780633fafa127146102d657806370a08231146102fd578063715018a6146103335780637ecebe001461033b57600080fd5b8063313ce567146102ac5780633644e515146102bb57806339509351146102c357600080fd5b8063095ea7b3116101ad578063095ea7b31461025957806318160ddd1461027c5780631c0f12b61461028457806323b872dd1461029957600080fd5b8062263783146101d2578062fdd58e1461022357806306fdde0314610244575b600080fd5b6101f97f000000000000000000000000000000000000000000000000000000000000000081565b60405173ffffffffffffffffffffffffffffffffffffffff90911681526020015b60405180910390f35b610236610231366004612792565b6104bb565b60405190815260200161021a565b61024c6104e8565b60405161021a91906127be565b61026c610267366004612792565b61057a565b604051901515815260200161021a565b610236610592565b61029761029236600461282a565b6109b8565b005b61026c6102a7366004612872565b610a23565b6040516012815260200161021a565b610236610a4c565b61026c6102d1366004612792565b610a56565b6102367f000000000000000000000000000000000000000000000000000000000000000081565b61023661030b3660046128b3565b73ffffffffffffffffffffffffffffffffffffffff1660009081526020819052604090205490565b610297610aa2565b6102366103493660046128b3565b610ab6565b61029761035c3660046128d7565b610ae1565b61029761036f3660046128d7565b610b51565b60075473ffffffffffffffffffffffffffffffffffffffff166101f9565b610297610bba565b61024c610beb565b6102976103b03660046128d7565b610bfa565b6101f97f000000000000000000000000000000000000000000000000000000000000000081565b61026c6103ea366004612792565b610c65565b61026c6103fd366004612792565b610d3b565b6102366104103660046128fe565b610d49565b610297610423366004612917565b610d53565b6102367f000000000000000000000000000000000000000000000000000000000000000081565b61023661045d36600461298e565b73ffffffffffffffffffffffffffffffffffffffff918216600090815260016020908152604080832093909416825291909152205490565b6102976104a33660046128b3565b610f12565b6102976104b63660046128d7565b610fc9565b73ffffffffffffffffffffffffffffffffffffffff82166000908152602081905260409020545b92915050565b6060600380546104f7906129c7565b80601f0160208091040260200160405190810160405280929190818152602001828054610523906129c7565b80156105705780601f1061054557610100808354040283529160200191610570565b820191906000526020600020905b81548152906001019060200180831161055357829003601f168201915b5050505050905090565b60003361058881858561102c565b5060019392505050565b6000807f0000000000000000000000000000000000000000000000000000000000000000158015906105f957507f000000000000000000000000000000000000000000000000000000000000000073ffffffffffffffffffffffffffffffffffffffff1615155b156107ab576040517efdd58e0000000000000000000000000000000000000000000000000000000081523060048201527f000000000000000000000000000000000000000000000000000000000000000060248201527f000000000000000000000000000000000000000000000000000000000000000073ffffffffffffffffffffffffffffffffffffffff169062fdd58e90604401602060405180830381865afa1580156106ac573d6000803e3d6000fd5b505050506040513d601f19601f820116820180604052508101906106d09190612a14565b6040517f75b0d9cd0000000000000000000000000000000000000000000000000000000081527f000000000000000000000000000000000000000000000000000000000000000060048201527f000000000000000000000000000000000000000000000000000000000000000073ffffffffffffffffffffffffffffffffffffffff16906375b0d9cd90602401602060405180830381865afa15801561077a573d6000803e3d6000fd5b505050506040513d601f19601f8201168201806040525081019061079e9190612a14565b6107a89190612a5c565b90505b7f000000000000000000000000000000000000000000000000000000000000000073ffffffffffffffffffffffffffffffffffffffff161561099e576040517efdd58e0000000000000000000000000000000000000000000000000000000081523060048201527f000000000000000000000000000000000000000000000000000000000000000060248201527f000000000000000000000000000000000000000000000000000000000000000073ffffffffffffffffffffffffffffffffffffffff169062fdd58e90604401602060405180830381865afa158015610895573d6000803e3d6000fd5b505050506040513d601f19601f820116820180604052508101906108b99190612a14565b6040517f75b0d9cd0000000000000000000000000000000000000000000000000000000081527f000000000000000000000000000000000000000000000000000000000000000060048201527f000000000000000000000000000000000000000000000000000000000000000073ffffffffffffffffffffffffffffffffffffffff16906375b0d9cd90602401602060405180830381865afa158015610963573d6000803e3d6000fd5b505050506040513d601f19601f820116820180604052508101906109879190612a14565b6109919190612a5c565b61099b9082612a6f565b90505b806109a860025490565b6109b29190612a6f565b91505090565b7f00000000000000000000000000000000000000000000000000000000000000008414610a11576040517fcdceed0000000000000000000000000000000000000000000000000000000000815260040160405180910390fd5b610a1c838383610a23565b5050505050565b600033610a318582856111df565b610a3c8585856112b0565b506001949350505050565b905090565b6000610a4761151f565b33600081815260016020908152604080832073ffffffffffffffffffffffffffffffffffffffff871684529091528120549091906105889082908690610a9d908790612a6f565b61102c565b610aaa611653565b610ab460006116d4565b565b73ffffffffffffffffffffffffffffffffffffffff81166000908152600560205260408120546104e2565b610ae9611653565b7f00000000000000000000000000000000000000000000000000000000000000008314610b42576040517fcdceed0000000000000000000000000000000000000000000000000000000000815260040160405180910390fd5b610b4c828261174b565b505050565b7f00000000000000000000000000000000000000000000000000000000000000008314610baa576040517fcdceed0000000000000000000000000000000000000000000000000000000000815260040160405180910390fd5b610bb4828261057a565b50505050565b610bc261183e565b6000610bcc6118b1565b01610bd5611dff565b01610be0338261174b565b50610ab46001600855565b6060600480546104f7906129c7565b610c02611653565b7f00000000000000000000000000000000000000000000000000000000000000008314610c5b576040517fcdceed0000000000000000000000000000000000000000000000000000000000815260040160405180910390fd5b610b4c8282612244565b33600081815260016020908152604080832073ffffffffffffffffffffffffffffffffffffffff8716845290915281205490919083811015610d2e576040517f08c379a000000000000000000000000000000000000000000000000000000000815260206004820152602560248201527f45524332303a2064656372656173656420616c6c6f77616e63652062656c6f7760448201527f207a65726f00000000000000000000000000000000000000000000000000000060648201526084015b60405180910390fd5b610a3c828686840361102c565b6000336105888185856112b0565b60006104e2610592565b83421115610dbd576040517f08c379a000000000000000000000000000000000000000000000000000000000815260206004820152601d60248201527f45524332305065726d69743a206578706972656420646561646c696e650000006044820152606401610d25565b60007f6e71edae12b1b97f4d1f60370fef10105fa2faae0126114a169c64845d6126c9888888610dec8c612408565b60408051602081019690965273ffffffffffffffffffffffffffffffffffffffff94851690860152929091166060840152608083015260a082015260c0810186905260e0016040516020818303038152906040528051906020012090506000610e548261243d565b90506000610e64828787876124a6565b90508973ffffffffffffffffffffffffffffffffffffffff168173ffffffffffffffffffffffffffffffffffffffff1614610efb576040517f08c379a000000000000000000000000000000000000000000000000000000000815260206004820152601e60248201527f45524332305065726d69743a20696e76616c6964207369676e617475726500006044820152606401610d25565b610f068a8a8a61102c565b50505050505050505050565b610f1a611653565b73ffffffffffffffffffffffffffffffffffffffff8116610fbd576040517f08c379a000000000000000000000000000000000000000000000000000000000815260206004820152602660248201527f4f776e61626c653a206e6577206f776e657220697320746865207a65726f206160448201527f64647265737300000000000000000000000000000000000000000000000000006064820152608401610d25565b610fc6816116d4565b50565b7f00000000000000000000000000000000000000000000000000000000000000008314611022576040517fcdceed0000000000000000000000000000000000000000000000000000000000815260040160405180910390fd5b610bb48282610d3b565b73ffffffffffffffffffffffffffffffffffffffff83166110ce576040517f08c379a0000000000000000000000000000000000000000000000000000000008152602060048201526024808201527f45524332303a20617070726f76652066726f6d20746865207a65726f2061646460448201527f72657373000000000000000000000000000000000000000000000000000000006064820152608401610d25565b73ffffffffffffffffffffffffffffffffffffffff8216611171576040517f08c379a000000000000000000000000000000000000000000000000000000000815260206004820152602260248201527f45524332303a20617070726f766520746f20746865207a65726f20616464726560448201527f73730000000000000000000000000000000000000000000000000000000000006064820152608401610d25565b73ffffffffffffffffffffffffffffffffffffffff83811660008181526001602090815260408083209487168084529482529182902085905590518481527f8c5be1e5ebec7d5bd14f71427d1e84f3dd0314c0f7b2291e5b200ac8c7c3b925910160405180910390a3505050565b73ffffffffffffffffffffffffffffffffffffffff8381166000908152600160209081526040808320938616835292905220547fffffffffffffffffffffffffffffffffffffffffffffffffffffffffffffffff8114610bb457818110156112a3576040517f08c379a000000000000000000000000000000000000000000000000000000000815260206004820152601d60248201527f45524332303a20696e73756666696369656e7420616c6c6f77616e63650000006044820152606401610d25565b610bb4848484840361102c565b73ffffffffffffffffffffffffffffffffffffffff8316611353576040517f08c379a000000000000000000000000000000000000000000000000000000000815260206004820152602560248201527f45524332303a207472616e736665722066726f6d20746865207a65726f20616460448201527f64726573730000000000000000000000000000000000000000000000000000006064820152608401610d25565b73ffffffffffffffffffffffffffffffffffffffff82166113f6576040517f08c379a000000000000000000000000000000000000000000000000000000000815260206004820152602360248201527f45524332303a207472616e7366657220746f20746865207a65726f206164647260448201527f65737300000000000000000000000000000000000000000000000000000000006064820152608401610d25565b73ffffffffffffffffffffffffffffffffffffffff8316600090815260208190526040902054818110156114ac576040517f08c379a000000000000000000000000000000000000000000000000000000000815260206004820152602660248201527f45524332303a207472616e7366657220616d6f756e742065786365656473206260448201527f616c616e636500000000000000000000000000000000000000000000000000006064820152608401610d25565b73ffffffffffffffffffffffffffffffffffffffff848116600081815260208181526040808320878703905593871680835291849020805487019055925185815290927fddf252ad1be2c89b69c2b068fc378daa952ba7f163c4a11628f55a4df523b3ef910160405180910390a3610bb4565b60003073ffffffffffffffffffffffffffffffffffffffff7f00000000000000000000000000000000000000000000000000000000000000001614801561158557507f000000000000000000000000000000000000000000000000000000000000000046145b156115af57507f000000000000000000000000000000000000000000000000000000000000000090565b50604080517f00000000000000000000000000000000000000000000000000000000000000006020808301919091527f0000000000000000000000000000000000000000000000000000000000000000828401527f000000000000000000000000000000000000000000000000000000000000000060608301524660808301523060a0808401919091528351808403909101815260c0909201909252805191012090565b60075473ffffffffffffffffffffffffffffffffffffffff163314610ab4576040517f08c379a000000000000000000000000000000000000000000000000000000000815260206004820181905260248201527f4f776e61626c653a2063616c6c6572206973206e6f7420746865206f776e65726044820152606401610d25565b6007805473ffffffffffffffffffffffffffffffffffffffff8381167fffffffffffffffffffffffff0000000000000000000000000000000000000000831681179093556040519116919082907f8be0079c531659141344cd1fd0a4f28419497f9722a3daafe3b4186f6b6457e090600090a35050565b73ffffffffffffffffffffffffffffffffffffffff82166117c8576040517f08c379a000000000000000000000000000000000000000000000000000000000815260206004820152601f60248201527f45524332303a206d696e7420746f20746865207a65726f2061646472657373006044820152606401610d25565b80600260008282546117da9190612a6f565b909155505073ffffffffffffffffffffffffffffffffffffffff8216600081815260208181526040808320805486019055518481527fddf252ad1be2c89b69c2b068fc378daa952ba7f163c4a11628f55a4df523b3ef910160405180910390a35050565b6002600854036118aa576040517f08c379a000000000000000000000000000000000000000000000000000000000815260206004820152601f60248201527f5265656e7472616e637947756172643a207265656e7472616e742063616c6c006044820152606401610d25565b6002600855565b60007f0000000000000000000000000000000000000000000000000000000000000000158061191457507f000000000000000000000000000000000000000000000000000000000000000073ffffffffffffffffffffffffffffffffffffffff16155b1561191f5750600090565b6040517f465909fc0000000000000000000000000000000000000000000000000000000081527f000000000000000000000000000000000000000000000000000000000000000060048201526000907f000000000000000000000000000000000000000000000000000000000000000073ffffffffffffffffffffffffffffffffffffffff169063465909fc90602401602060405180830381865afa1580156119cc573d6000803e3d6000fd5b505050506040513d601f19601f820116820180604052508101906119f09190612a82565b6040517fb656463b0000000000000000000000000000000000000000000000000000000081523360048201527f0000000000000000000000000000000000000000000000000000000000000000602482015290915060009073ffffffffffffffffffffffffffffffffffffffff7f0000000000000000000000000000000000000000000000000000000000000000169063b656463b90604401602060405180830381865afa158015611aa6573d6000803e3d6000fd5b505050506040513d601f19601f82011682018060405250810190611aca9190612a14565b6040517f8ef4c8070000000000000000000000000000000000000000000000000000000081523360048201527f000000000000000000000000000000000000000000000000000000000000000060248201529091507f000000000000000000000000000000000000000000000000000000000000000073ffffffffffffffffffffffffffffffffffffffff1690638ef4c80790604401602060405180830381865afa158015611b7d573d6000803e3d6000fd5b505050506040513d601f19601f82011682018060405250810190611ba19190612a14565b611bab9082612a5c565b9050600073ffffffffffffffffffffffffffffffffffffffff831615611c5e576040517f70a0823100000000000000000000000000000000000000000000000000000000815233600482015273ffffffffffffffffffffffffffffffffffffffff8416906370a0823190602401602060405180830381865afa158015611c35573d6000803e3d6000fd5b505050506040513d601f19601f82011682018060405250810190611c599190612a14565b611c61565b60005b9050818101935083600003611c7a576000935050505090565b8015611d1f576040517f23b872dd0000000000000000000000000000000000000000000000000000000081523360048201523060248201526044810182905273ffffffffffffffffffffffffffffffffffffffff8416906323b872dd906064016020604051808303816000875af1158015611cf9573d6000803e3d6000fd5b505050506040513d601f19601f82011682018060405250810190611d1d9190612a9f565b505b8115611df9576040517f33681fb10000000000000000000000000000000000000000000000000000000081523360048201527f00000000000000000000000000000000000000000000000000000000000000006024820152604481018390523060648201527f000000000000000000000000000000000000000000000000000000000000000073ffffffffffffffffffffffffffffffffffffffff16906333681fb1906084015b600060405180830381600087803b158015611de057600080fd5b505af1158015611df4573d6000803e3d6000fd5b505050505b50505090565b60007f000000000000000000000000000000000000000000000000000000000000000073ffffffffffffffffffffffffffffffffffffffff16611e425750600090565b6040517fea78803f0000000000000000000000000000000000000000000000000000000081527f000000000000000000000000000000000000000000000000000000000000000060048201526000907f000000000000000000000000000000000000000000000000000000000000000073ffffffffffffffffffffffffffffffffffffffff169063ea78803f90602401602060405180830381865afa158015611eef573d6000803e3d6000fd5b505050506040513d601f19601f82011682018060405250810190611f139190612a82565b6040517f5287af370000000000000000000000000000000000000000000000000000000081523360048201527f0000000000000000000000000000000000000000000000000000000000000000602482015290915060009073ffffffffffffffffffffffffffffffffffffffff7f00000000000000000000000000000000000000000000000000000000000000001690635287af3790604401602060405180830381865afa158015611fc9573d6000803e3d6000fd5b505050506040513d601f19601f82011682018060405250810190611fed9190612a14565b9050600073ffffffffffffffffffffffffffffffffffffffff8316156120c4576040517efdd58e0000000000000000000000000000000000000000000000000000000081523360048201527f0000000000000000000000000000000000000000000000000000000000000000602482015273ffffffffffffffffffffffffffffffffffffffff84169062fdd58e90604401602060405180830381865afa15801561209b573d6000803e3d6000fd5b505050506040513d601f19601f820116820180604052508101906120bf9190612a14565b6120c7565b60005b90508181019350836000036120e0576000935050505090565b8015612199576040517f1c0f12b60000000000000000000000000000000000000000000000000000000081527f000000000000000000000000000000000000000000000000000000000000000060048201523360248201523060448201526064810182905273ffffffffffffffffffffffffffffffffffffffff841690631c0f12b690608401600060405180830381600087803b15801561218057600080fd5b505af1158015612194573d6000803e3d6000fd5b505050505b8115611df9576040517fac689bcd0000000000000000000000000000000000000000000000000000000081523360048201527f00000000000000000000000000000000000000000000000000000000000000006024820152306044820152606481018390527f000000000000000000000000000000000000000000000000000000000000000073ffffffffffffffffffffffffffffffffffffffff169063ac689bcd90608401611dc6565b73ffffffffffffffffffffffffffffffffffffffff82166122e7576040517f08c379a000000000000000000000000000000000000000000000000000000000815260206004820152602160248201527f45524332303a206275726e2066726f6d20746865207a65726f2061646472657360448201527f73000000000000000000000000000000000000000000000000000000000000006064820152608401610d25565b73ffffffffffffffffffffffffffffffffffffffff82166000908152602081905260409020548181101561239d576040517f08c379a000000000000000000000000000000000000000000000000000000000815260206004820152602260248201527f45524332303a206275726e20616d6f756e7420657863656564732062616c616e60448201527f63650000000000000000000000000000000000000000000000000000000000006064820152608401610d25565b73ffffffffffffffffffffffffffffffffffffffff83166000818152602081815260408083208686039055600280548790039055518581529192917fddf252ad1be2c89b69c2b068fc378daa952ba7f163c4a11628f55a4df523b3ef910160405180910390a3505050565b73ffffffffffffffffffffffffffffffffffffffff811660009081526005602052604090208054600181018255905b50919050565b60006104e261244a61151f565b836040517f19010000000000000000000000000000000000000000000000000000000000006020820152602281018390526042810182905260009060620160405160208183030381529060405280519060200120905092915050565b60008060006124b7878787876124ce565b915091506124c4816125bd565b5095945050505050565b6000807f7fffffffffffffffffffffffffffffff5d576e7357a4501ddfe92f46681b20a083111561250557506000905060036125b4565b6040805160008082526020820180845289905260ff881692820192909252606081018690526080810185905260019060a0016020604051602081039080840390855afa158015612559573d6000803e3d6000fd5b50506040517fffffffffffffffffffffffffffffffffffffffffffffffffffffffffffffffe0015191505073ffffffffffffffffffffffffffffffffffffffff81166125ad576000600192509250506125b4565b9150600090505b94509492505050565b60008160048111156125d1576125d1612ac1565b036125d95750565b60018160048111156125ed576125ed612ac1565b03612654576040517f08c379a000000000000000000000000000000000000000000000000000000000815260206004820152601860248201527f45434453413a20696e76616c6964207369676e617475726500000000000000006044820152606401610d25565b600281600481111561266857612668612ac1565b036126cf576040517f08c379a000000000000000000000000000000000000000000000000000000000815260206004820152601f60248201527f45434453413a20696e76616c6964207369676e6174757265206c656e677468006044820152606401610d25565b60038160048111156126e3576126e3612ac1565b03610fc6576040517f08c379a000000000000000000000000000000000000000000000000000000000815260206004820152602260248201527f45434453413a20696e76616c6964207369676e6174757265202773272076616c60448201527f75650000000000000000000000000000000000000000000000000000000000006064820152608401610d25565b73ffffffffffffffffffffffffffffffffffffffff81168114610fc657600080fd5b600080604083850312156127a557600080fd5b82356127b081612770565b946020939093013593505050565b600060208083528351808285015260005b818110156127eb578581018301518582016040015282016127cf565b5060006040828601015260407fffffffffffffffffffffffffffffffffffffffffffffffffffffffffffffffe0601f8301168501019250505092915050565b6000806000806080858703121561284057600080fd5b84359350602085013561285281612770565b9250604085013561286281612770565b9396929550929360600135925050565b60008060006060848603121561288757600080fd5b833561289281612770565b925060208401356128a281612770565b929592945050506040919091013590565b6000602082840312156128c557600080fd5b81356128d081612770565b9392505050565b6000806000606084860312156128ec57600080fd5b8335925060208401356128a281612770565b60006020828403121561291057600080fd5b5035919050565b600080600080600080600060e0888a03121561293257600080fd5b873561293d81612770565b9650602088013561294d81612770565b95506040880135945060608801359350608088013560ff8116811461297157600080fd5b9699959850939692959460a0840135945060c09093013592915050565b600080604083850312156129a157600080fd5b82356129ac81612770565b915060208301356129bc81612770565b809150509250929050565b600181811c908216806129db57607f821691505b602082108103612437577f4e487b7100000000000000000000000000000000000000000000000000000000600052602260045260246000fd5b600060208284031215612a2657600080fd5b5051919050565b7f4e487b7100000000000000000000000000000000000000000000000000000000600052601160045260246000fd5b818103818111156104e2576104e2612a2d565b808201808211156104e2576104e2612a2d565b600060208284031215612a9457600080fd5b81516128d081612770565b600060208284031215612ab157600080fd5b815180151581146128d057600080fd5b7f4e487b7100000000000000000000000000000000000000000000000000000000600052602160045260246000fdfea2646970667358221220816c7c3d9612670f8ac63eb8c50a68d23a08284dcb80af0534b33dd1388ff9d664736f6c63430008110033",
    "linkReferences": {}
  },
  "methodIdentifiers": {
    "DOMAIN_SEPARATOR()": "3644e515",
    "allowance(address,address)": "dd62ed3e",
    "approve(address,uint256)": "095ea7b3",
    "approve(uint256,address,uint256)": "8cb0a511",
    "balanceOf(address)": "70a08231",
    "balanceOf(address,uint256)": "00fdd58e",
    "burn(uint256,address,uint256)": "9eea5f66",
    "decimals()": "313ce567",
    "decreaseAllowance(address,uint256)": "a457c2d7",
    "increaseAllowance(address,uint256)": "39509351",
    "migrate()": "8fd3ab80",
    "mint(uint256,address,uint256)": "836a1040",
    "name()": "06fdde03",
    "nonces(address)": "7ecebe00",
    "owner()": "8da5cb5b",
    "permit(address,address,uint256,uint256,uint8,bytes32,bytes32)": "d505accf",
    "projectId()": "3fafa127",
    "renounceOwnership()": "715018a6",
    "symbol()": "95d89b41",
    "totalSupply()": "18160ddd",
    "totalSupply(uint256)": "bd85b039",
    "transfer(address,uint256)": "a9059cbb",
    "transfer(uint256,address,uint256)": "f8548e36",
    "transferFrom(address,address,uint256)": "23b872dd",
    "transferFrom(uint256,address,address,uint256)": "1c0f12b6",
    "transferOwnership(address)": "f2fde38b",
    "v1ProjectId()": "d7388f05",
    "v1TicketBooth()": "00263783",
    "v2TokenStore()": "a2ba0e79"
  },
  "id": 0
}