{
  "abi": [
    {
      "inputs": [
        {
          "internalType": "string",
          "name": "_name",
          "type": "string"
        },
        {
          "internalType": "string",
          "name": "_symbol",
          "type": "string"
        },
        {
          "internalType": "uint256",
          "name": "_projectId",
          "type": "uint256"
        },
        {
          "internalType": "contract ITicketBooth",
          "name": "_v1TicketBooth",
          "type": "address"
        },
        {
          "internalType": "contract IJBTokenStore",
          "name": "_v2TokenStore",
          "type": "address"
        },
        {
          "internalType": "uint256",
          "name": "_v1ProjectId",
          "type": "uint256"
        }
      ],
      "stateMutability": "nonpayable",
      "type": "constructor"
    },
    {
      "inputs": [],
      "name": "BAD_PROJECT",
      "type": "error"
    },
    {
      "anonymous": false,
      "inputs": [
        {
          "indexed": true,
          "internalType": "address",
          "name": "owner",
          "type": "address"
        },
        {
          "indexed": true,
          "internalType": "address",
          "name": "spender",
          "type": "address"
        },
        {
          "indexed": false,
          "internalType": "uint256",
          "name": "value",
          "type": "uint256"
        }
      ],
      "name": "Approval",
      "type": "event"
    },
    {
      "anonymous": false,
      "inputs": [
        {
          "indexed": true,
          "internalType": "address",
          "name": "previousOwner",
          "type": "address"
        },
        {
          "indexed": true,
          "internalType": "address",
          "name": "newOwner",
          "type": "address"
        }
      ],
      "name": "OwnershipTransferred",
      "type": "event"
    },
    {
      "anonymous": false,
      "inputs": [
        {
          "indexed": true,
          "internalType": "address",
          "name": "from",
          "type": "address"
        },
        {
          "indexed": true,
          "internalType": "address",
          "name": "to",
          "type": "address"
        },
        {
          "indexed": false,
          "internalType": "uint256",
          "name": "value",
          "type": "uint256"
        }
      ],
      "name": "Transfer",
      "type": "event"
    },
    {
      "inputs": [],
      "name": "DOMAIN_SEPARATOR",
      "outputs": [
        {
          "internalType": "bytes32",
          "name": "",
          "type": "bytes32"
        }
      ],
      "stateMutability": "view",
      "type": "function"
    },
    {
      "inputs": [
        {
          "internalType": "address",
          "name": "owner",
          "type": "address"
        },
        {
          "internalType": "address",
          "name": "spender",
          "type": "address"
        }
      ],
      "name": "allowance",
      "outputs": [
        {
          "internalType": "uint256",
          "name": "",
          "type": "uint256"
        }
      ],
      "stateMutability": "view",
      "type": "function"
    },
    {
      "inputs": [
        {
          "internalType": "address",
          "name": "spender",
          "type": "address"
        },
        {
          "internalType": "uint256",
          "name": "amount",
          "type": "uint256"
        }
      ],
      "name": "approve",
      "outputs": [
        {
          "internalType": "bool",
          "name": "",
          "type": "bool"
        }
      ],
      "stateMutability": "nonpayable",
      "type": "function"
    },
    {
      "inputs": [
        {
          "internalType": "uint256",
          "name": "_projectId",
          "type": "uint256"
        },
        {
          "internalType": "address",
          "name": "_spender",
          "type": "address"
        },
        {
          "internalType": "uint256",
          "name": "_amount",
          "type": "uint256"
        }
      ],
      "name": "approve",
      "outputs": [],
      "stateMutability": "nonpayable",
      "type": "function"
    },
    {
      "inputs": [
        {
          "internalType": "address",
          "name": "_account",
          "type": "address"
        },
        {
          "internalType": "uint256",
          "name": "_projectId",
          "type": "uint256"
        }
      ],
      "name": "balanceOf",
      "outputs": [
        {
          "internalType": "uint256",
          "name": "",
          "type": "uint256"
        }
      ],
      "stateMutability": "view",
      "type": "function"
    },
    {
      "inputs": [
        {
          "internalType": "address",
          "name": "account",
          "type": "address"
        }
      ],
      "name": "balanceOf",
      "outputs": [
        {
          "internalType": "uint256",
          "name": "",
          "type": "uint256"
        }
      ],
      "stateMutability": "view",
      "type": "function"
    },
    {
      "inputs": [
        {
          "internalType": "uint256",
          "name": "_projectId",
          "type": "uint256"
        },
        {
          "internalType": "address",
          "name": "_account",
          "type": "address"
        },
        {
          "internalType": "uint256",
          "name": "_amount",
          "type": "uint256"
        }
      ],
      "name": "burn",
      "outputs": [],
      "stateMutability": "nonpayable",
      "type": "function"
    },
    {
      "inputs": [],
      "name": "decimals",
      "outputs": [
        {
          "internalType": "uint8",
          "name": "",
          "type": "uint8"
        }
      ],
      "stateMutability": "view",
      "type": "function"
    },
    {
      "inputs": [
        {
          "internalType": "address",
          "name": "spender",
          "type": "address"
        },
        {
          "internalType": "uint256",
          "name": "subtractedValue",
          "type": "uint256"
        }
      ],
      "name": "decreaseAllowance",
      "outputs": [
        {
          "internalType": "bool",
          "name": "",
          "type": "bool"
        }
      ],
      "stateMutability": "nonpayable",
      "type": "function"
    },
    {
      "inputs": [
        {
          "internalType": "address",
          "name": "spender",
          "type": "address"
        },
        {
          "internalType": "uint256",
          "name": "addedValue",
          "type": "uint256"
        }
      ],
      "name": "increaseAllowance",
      "outputs": [
        {
          "internalType": "bool",
          "name": "",
          "type": "bool"
        }
      ],
      "stateMutability": "nonpayable",
      "type": "function"
    },
    {
      "inputs": [],
      "name": "migrate",
      "outputs": [],
      "stateMutability": "nonpayable",
      "type": "function"
    },
    {
      "inputs": [
        {
          "internalType": "uint256",
          "name": "_projectId",
          "type": "uint256"
        },
        {
          "internalType": "address",
          "name": "_account",
          "type": "address"
        },
        {
          "internalType": "uint256",
          "name": "_amount",
          "type": "uint256"
        }
      ],
      "name": "mint",
      "outputs": [],
      "stateMutability": "nonpayable",
      "type": "function"
    },
    {
      "inputs": [],
      "name": "name",
      "outputs": [
        {
          "internalType": "string",
          "name": "",
          "type": "string"
        }
      ],
      "stateMutability": "view",
      "type": "function"
    },
    {
      "inputs": [
        {
          "internalType": "address",
          "name": "owner",
          "type": "address"
        }
      ],
      "name": "nonces",
      "outputs": [
        {
          "internalType": "uint256",
          "name": "",
          "type": "uint256"
        }
      ],
      "stateMutability": "view",
      "type": "function"
    },
    {
      "inputs": [],
      "name": "owner",
      "outputs": [
        {
          "internalType": "address",
          "name": "",
          "type": "address"
        }
      ],
      "stateMutability": "view",
      "type": "function"
    },
    {
      "inputs": [
        {
          "internalType": "address",
          "name": "owner",
          "type": "address"
        },
        {
          "internalType": "address",
          "name": "spender",
          "type": "address"
        },
        {
          "internalType": "uint256",
          "name": "value",
          "type": "uint256"
        },
        {
          "internalType": "uint256",
          "name": "deadline",
          "type": "uint256"
        },
        {
          "internalType": "uint8",
          "name": "v",
          "type": "uint8"
        },
        {
          "internalType": "bytes32",
          "name": "r",
          "type": "bytes32"
        },
        {
          "internalType": "bytes32",
          "name": "s",
          "type": "bytes32"
        }
      ],
      "name": "permit",
      "outputs": [],
      "stateMutability": "nonpayable",
      "type": "function"
    },
    {
      "inputs": [],
      "name": "projectId",
      "outputs": [
        {
          "internalType": "uint256",
          "name": "",
          "type": "uint256"
        }
      ],
      "stateMutability": "view",
      "type": "function"
    },
    {
      "inputs": [],
      "name": "renounceOwnership",
      "outputs": [],
      "stateMutability": "nonpayable",
      "type": "function"
    },
    {
      "inputs": [],
      "name": "symbol",
      "outputs": [
        {
          "internalType": "string",
          "name": "",
          "type": "string"
        }
      ],
      "stateMutability": "view",
      "type": "function"
    },
    {
      "inputs": [],
      "name": "totalSupply",
      "outputs": [
        {
          "internalType": "uint256",
          "name": "",
          "type": "uint256"
        }
      ],
      "stateMutability": "view",
      "type": "function"
    },
    {
      "inputs": [
        {
          "internalType": "uint256",
          "name": "_projectId",
          "type": "uint256"
        }
      ],
      "name": "totalSupply",
      "outputs": [
        {
          "internalType": "uint256",
          "name": "",
          "type": "uint256"
        }
      ],
      "stateMutability": "view",
      "type": "function"
    },
    {
      "inputs": [
        {
          "internalType": "address",
          "name": "to",
          "type": "address"
        },
        {
          "internalType": "uint256",
          "name": "amount",
          "type": "uint256"
        }
      ],
      "name": "transfer",
      "outputs": [
        {
          "internalType": "bool",
          "name": "",
          "type": "bool"
        }
      ],
      "stateMutability": "nonpayable",
      "type": "function"
    },
    {
      "inputs": [
        {
          "internalType": "uint256",
          "name": "_projectId",
          "type": "uint256"
        },
        {
          "internalType": "address",
          "name": "_to",
          "type": "address"
        },
        {
          "internalType": "uint256",
          "name": "_amount",
          "type": "uint256"
        }
      ],
      "name": "transfer",
      "outputs": [],
      "stateMutability": "nonpayable",
      "type": "function"
    },
    {
      "inputs": [
        {
          "internalType": "uint256",
          "name": "_projectId",
          "type": "uint256"
        },
        {
          "internalType": "address",
          "name": "_from",
          "type": "address"
        },
        {
          "internalType": "address",
          "name": "_to",
          "type": "address"
        },
        {
          "internalType": "uint256",
          "name": "_amount",
          "type": "uint256"
        }
      ],
      "name": "transferFrom",
      "outputs": [],
      "stateMutability": "nonpayable",
      "type": "function"
    },
    {
      "inputs": [
        {
          "internalType": "address",
          "name": "from",
          "type": "address"
        },
        {
          "internalType": "address",
          "name": "to",
          "type": "address"
        },
        {
          "internalType": "uint256",
          "name": "amount",
          "type": "uint256"
        }
      ],
      "name": "transferFrom",
      "outputs": [
        {
          "internalType": "bool",
          "name": "",
          "type": "bool"
        }
      ],
      "stateMutability": "nonpayable",
      "type": "function"
    },
    {
      "inputs": [
        {
          "internalType": "address",
          "name": "newOwner",
          "type": "address"
        }
      ],
      "name": "transferOwnership",
      "outputs": [],
      "stateMutability": "nonpayable",
      "type": "function"
    },
    {
      "inputs": [],
      "name": "v1ProjectId",
      "outputs": [
        {
          "internalType": "uint256",
          "name": "",
          "type": "uint256"
        }
      ],
      "stateMutability": "view",
      "type": "function"
    },
    {
      "inputs": [],
      "name": "v1TicketBooth",
      "outputs": [
        {
          "internalType": "contract ITicketBooth",
          "name": "",
          "type": "address"
        }
      ],
      "stateMutability": "view",
      "type": "function"
    },
    {
      "inputs": [],
      "name": "v2TokenStore",
      "outputs": [
        {
          "internalType": "contract IJBTokenStore",
          "name": "",
          "type": "address"
        }
      ],
      "stateMutability": "view",
      "type": "function"
    }
  ],
  "bytecode": {
    "object": "0x6101c06040523480156200001257600080fd5b506040516200300138038062003001833981016040819052620000359162000312565b8580604051806040016040528060018152602001603160f81b815250888881600390805190602001906200006b929190620001b5565b50805162000081906004906020840190620001b5565b5050825160208085019190912083518483012060e08290526101008190524660a0818152604080517f8b73c3c69bb8fe3d512ecc4cf759cc79239f7b179b0ffacaa9a75d522b39400f81880181905281830187905260608201869052608082019490945230818401528151808203909301835260c0019052805194019390932091935091906080523060601b60c05261012052506200013093506200012a9250506200015f9050565b62000163565b610140939093526001600160601b0319606092831b811661016052911b16610180526101a05250620004269050565b3390565b600780546001600160a01b038381166001600160a01b0319831681179093556040519116919082907f8be0079c531659141344cd1fd0a4f28419497f9722a3daafe3b4186f6b6457e090600090a35050565b828054620001c390620003ba565b90600052602060002090601f016020900481019282620001e7576000855562000232565b82601f106200020257805160ff191683800117855562000232565b8280016001018555821562000232579182015b828111156200023257825182559160200191906001019062000215565b506200024092915062000244565b5090565b5b8082111562000240576000815560010162000245565b600082601f8301126200026d57600080fd5b81516001600160401b03808211156200028a576200028a620003f7565b604051601f8301601f19908116603f01168101908282118183101715620002b557620002b5620003f7565b81604052838152602092508683858801011115620002d257600080fd5b600091505b83821015620002f65785820183015181830184015290820190620002d7565b83821115620003085760008385830101525b9695505050505050565b60008060008060008060c087890312156200032c57600080fd5b86516001600160401b03808211156200034457600080fd5b620003528a838b016200025b565b975060208901519150808211156200036957600080fd5b506200037889828a016200025b565b95505060408701519350606087015162000392816200040d565b6080880151909350620003a5816200040d565b8092505060a087015190509295509295509295565b600181811c90821680620003cf57607f821691505b60208210811415620003f157634e487b7160e01b600052602260045260246000fd5b50919050565b634e487b7160e01b600052604160045260246000fd5b6001600160a01b03811681146200042357600080fd5b50565b60805160a05160c05160601c60e0516101005161012051610140516101605160601c6101805160601c6101a051612a6f620005926000396000818161042d015281816105980152818161062c015281816107080152818161186e01528181611900015281816119e60152611c640152600081816103ba015281816107cc015281816108590152818161093501528181611d1401528181611da401528181611ea2015261213b0152600081816101d7015281816105c2015281816106520152818161072e015281816118960152818161192901528181611a270152611c970152600081816102db015281816108330152818161090f015281816109f701528181610b2a01528181610b9201528181610c3301528181610ff701528181611d7b01528181611e6101528181611f69015281816120490152612108015260006115e2015260006116310152600061160c015260006115650152600061158f015260006115b90152612a6f6000f3fe608060405234801561001057600080fd5b50600436106101cd5760003560e01c8063836a104011610104578063a457c2d7116100a2578063d7388f0511610071578063d7388f0514610428578063dd62ed3e1461044f578063f2fde38b14610495578063f8548e36146104a857600080fd5b8063a457c2d7146103dc578063a9059cbb146103ef578063bd85b03914610402578063d505accf1461041557600080fd5b80638fd3ab80116100de5780638fd3ab801461039257806395d89b411461039a5780639eea5f66146103a2578063a2ba0e79146103b557600080fd5b8063836a10401461034e5780638cb0a511146103615780638da5cb5b1461037457600080fd5b8063313ce567116101715780633fafa1271161014b5780633fafa127146102d657806370a08231146102fd578063715018a6146103335780637ecebe001461033b57600080fd5b8063313ce567146102ac5780633644e515146102bb57806339509351146102c357600080fd5b8063095ea7b3116101ad578063095ea7b31461025957806318160ddd1461027c5780631c0f12b61461028457806323b872dd1461029957600080fd5b8062263783146101d2578062fdd58e1461022357806306fdde0314610244575b600080fd5b6101f97f000000000000000000000000000000000000000000000000000000000000000081565b60405173ffffffffffffffffffffffffffffffffffffffff90911681526020015b60405180910390f35b6102366102313660046127bd565b6104bb565b60405190815260200161021a565b61024c6104e9565b60405161021a91906128c9565b61026c6102673660046127bd565b61057b565b604051901515815260200161021a565b610236610593565b61029761029236600461285a565b6109f5565b005b61026c6102a7366004612705565b610a60565b6040516012815260200161021a565b610236610a89565b61026c6102d13660046127bd565b610a93565b6102367f000000000000000000000000000000000000000000000000000000000000000081565b61023661030b3660046126af565b73ffffffffffffffffffffffffffffffffffffffff1660009081526020819052604090205490565b610297610adf565b6102366103493660046126af565b610af3565b61029761035c3660046128a2565b610b20565b61029761036f3660046128a2565b610b90565b60075473ffffffffffffffffffffffffffffffffffffffff166101f9565b610297610bf9565b61024c610c1a565b6102976103b03660046128a2565b610c29565b6101f97f000000000000000000000000000000000000000000000000000000000000000081565b61026c6103ea3660046127bd565b610c94565b61026c6103fd3660046127bd565b610d6a565b610236610410366004612828565b610d78565b610297610423366004612746565b610d82565b6102367f000000000000000000000000000000000000000000000000000000000000000081565b61023661045d3660046126cc565b73ffffffffffffffffffffffffffffffffffffffff918216600090815260016020908152604080832093909416825291909152205490565b6102976104a33660046126af565b610f41565b6102976104b63660046128a2565b610ff5565b73ffffffffffffffffffffffffffffffffffffffff82166000908152602081905260408120545b9392505050565b6060600380546104f89061296b565b80601f01602080910402602001604051908101604052809291908181526020018280546105249061296b565b80156105715780601f1061054657610100808354040283529160200191610571565b820191906000526020600020905b81548152906001019060200180831161055457829003601f168201915b5050505050905090565b600033610589818585611058565b5060019392505050565b6000807f0000000000000000000000000000000000000000000000000000000000000000158015906105fa57507f000000000000000000000000000000000000000000000000000000000000000073ffffffffffffffffffffffffffffffffffffffff1615155b156107ca576040517efdd58e0000000000000000000000000000000000000000000000000000000081523060048201527f000000000000000000000000000000000000000000000000000000000000000060248201527f000000000000000000000000000000000000000000000000000000000000000073ffffffffffffffffffffffffffffffffffffffff169062fdd58e9060440160206040518083038186803b1580156106a857600080fd5b505afa1580156106bc573d6000803e3d6000fd5b505050506040513d601f19601f820116820180604052508101906106e09190612841565b6040517f75b0d9cd0000000000000000000000000000000000000000000000000000000081527f000000000000000000000000000000000000000000000000000000000000000060048201527f000000000000000000000000000000000000000000000000000000000000000073ffffffffffffffffffffffffffffffffffffffff16906375b0d9cd9060240160206040518083038186803b15801561078557600080fd5b505afa158015610799573d6000803e3d6000fd5b505050506040513d601f19601f820116820180604052508101906107bd9190612841565b6107c79190612954565b90505b7f000000000000000000000000000000000000000000000000000000000000000073ffffffffffffffffffffffffffffffffffffffff16156109db576040517efdd58e0000000000000000000000000000000000000000000000000000000081523060048201527f000000000000000000000000000000000000000000000000000000000000000060248201527f000000000000000000000000000000000000000000000000000000000000000073ffffffffffffffffffffffffffffffffffffffff169062fdd58e9060440160206040518083038186803b1580156108af57600080fd5b505afa1580156108c3573d6000803e3d6000fd5b505050506040513d601f19601f820116820180604052508101906108e79190612841565b6040517f75b0d9cd0000000000000000000000000000000000000000000000000000000081527f000000000000000000000000000000000000000000000000000000000000000060048201527f000000000000000000000000000000000000000000000000000000000000000073ffffffffffffffffffffffffffffffffffffffff16906375b0d9cd9060240160206040518083038186803b15801561098c57600080fd5b505afa1580156109a0573d6000803e3d6000fd5b505050506040513d601f19601f820116820180604052508101906109c49190612841565b6109ce9190612954565b6109d8908261293c565b90505b806109e560025490565b6109ef919061293c565b91505090565b7f00000000000000000000000000000000000000000000000000000000000000008414610a4e576040517fcdceed0000000000000000000000000000000000000000000000000000000000815260040160405180910390fd5b610a59838383610a60565b5050505050565b600033610a6e85828561120b565b610a798585856112dc565b506001949350505050565b905090565b6000610a8461154b565b33600081815260016020908152604080832073ffffffffffffffffffffffffffffffffffffffff871684529091528120549091906105899082908690610ada90879061293c565b611058565b610ae761167f565b610af16000611700565b565b73ffffffffffffffffffffffffffffffffffffffff81166000908152600560205260408120545b92915050565b610b2861167f565b7f00000000000000000000000000000000000000000000000000000000000000008314610b81576040517fcdceed0000000000000000000000000000000000000000000000000000000000815260040160405180910390fd5b610b8b8282611777565b505050565b7f00000000000000000000000000000000000000000000000000000000000000008314610be9576040517fcdceed0000000000000000000000000000000000000000000000000000000000815260040160405180910390fd5b610bf3828261057b565b50505050565b6000610c0361186a565b01610c0c611d10565b01610c173382611777565b50565b6060600480546104f89061296b565b610c3161167f565b7f00000000000000000000000000000000000000000000000000000000000000008314610c8a576040517fcdceed0000000000000000000000000000000000000000000000000000000000815260040160405180910390fd5b610b8b828261217f565b33600081815260016020908152604080832073ffffffffffffffffffffffffffffffffffffffff8716845290915281205490919083811015610d5d576040517f08c379a000000000000000000000000000000000000000000000000000000000815260206004820152602560248201527f45524332303a2064656372656173656420616c6c6f77616e63652062656c6f7760448201527f207a65726f00000000000000000000000000000000000000000000000000000060648201526084015b60405180910390fd5b610a798286868403611058565b6000336105898185856112dc565b6000610b1a610593565b83421115610dec576040517f08c379a000000000000000000000000000000000000000000000000000000000815260206004820152601d60248201527f45524332305065726d69743a206578706972656420646561646c696e650000006044820152606401610d54565b60007f6e71edae12b1b97f4d1f60370fef10105fa2faae0126114a169c64845d6126c9888888610e1b8c612343565b60408051602081019690965273ffffffffffffffffffffffffffffffffffffffff94851690860152929091166060840152608083015260a082015260c0810186905260e0016040516020818303038152906040528051906020012090506000610e8382612378565b90506000610e93828787876123e1565b90508973ffffffffffffffffffffffffffffffffffffffff168173ffffffffffffffffffffffffffffffffffffffff1614610f2a576040517f08c379a000000000000000000000000000000000000000000000000000000000815260206004820152601e60248201527f45524332305065726d69743a20696e76616c6964207369676e617475726500006044820152606401610d54565b610f358a8a8a611058565b50505050505050505050565b610f4961167f565b73ffffffffffffffffffffffffffffffffffffffff8116610fec576040517f08c379a000000000000000000000000000000000000000000000000000000000815260206004820152602660248201527f4f776e61626c653a206e6577206f776e657220697320746865207a65726f206160448201527f64647265737300000000000000000000000000000000000000000000000000006064820152608401610d54565b610c1781611700565b7f0000000000000000000000000000000000000000000000000000000000000000831461104e576040517fcdceed0000000000000000000000000000000000000000000000000000000000815260040160405180910390fd5b610bf38282610d6a565b73ffffffffffffffffffffffffffffffffffffffff83166110fa576040517f08c379a0000000000000000000000000000000000000000000000000000000008152602060048201526024808201527f45524332303a20617070726f76652066726f6d20746865207a65726f2061646460448201527f72657373000000000000000000000000000000000000000000000000000000006064820152608401610d54565b73ffffffffffffffffffffffffffffffffffffffff821661119d576040517f08c379a000000000000000000000000000000000000000000000000000000000815260206004820152602260248201527f45524332303a20617070726f766520746f20746865207a65726f20616464726560448201527f73730000000000000000000000000000000000000000000000000000000000006064820152608401610d54565b73ffffffffffffffffffffffffffffffffffffffff83811660008181526001602090815260408083209487168084529482529182902085905590518481527f8c5be1e5ebec7d5bd14f71427d1e84f3dd0314c0f7b2291e5b200ac8c7c3b925910160405180910390a3505050565b73ffffffffffffffffffffffffffffffffffffffff8381166000908152600160209081526040808320938616835292905220547fffffffffffffffffffffffffffffffffffffffffffffffffffffffffffffffff8114610bf357818110156112cf576040517f08c379a000000000000000000000000000000000000000000000000000000000815260206004820152601d60248201527f45524332303a20696e73756666696369656e7420616c6c6f77616e63650000006044820152606401610d54565b610bf38484848403611058565b73ffffffffffffffffffffffffffffffffffffffff831661137f576040517f08c379a000000000000000000000000000000000000000000000000000000000815260206004820152602560248201527f45524332303a207472616e736665722066726f6d20746865207a65726f20616460448201527f64726573730000000000000000000000000000000000000000000000000000006064820152608401610d54565b73ffffffffffffffffffffffffffffffffffffffff8216611422576040517f08c379a000000000000000000000000000000000000000000000000000000000815260206004820152602360248201527f45524332303a207472616e7366657220746f20746865207a65726f206164647260448201527f65737300000000000000000000000000000000000000000000000000000000006064820152608401610d54565b73ffffffffffffffffffffffffffffffffffffffff8316600090815260208190526040902054818110156114d8576040517f08c379a000000000000000000000000000000000000000000000000000000000815260206004820152602660248201527f45524332303a207472616e7366657220616d6f756e742065786365656473206260448201527f616c616e636500000000000000000000000000000000000000000000000000006064820152608401610d54565b73ffffffffffffffffffffffffffffffffffffffff848116600081815260208181526040808320878703905593871680835291849020805487019055925185815290927fddf252ad1be2c89b69c2b068fc378daa952ba7f163c4a11628f55a4df523b3ef910160405180910390a3610bf3565b60003073ffffffffffffffffffffffffffffffffffffffff7f0000000000000000000000000000000000000000000000000000000000000000161480156115b157507f000000000000000000000000000000000000000000000000000000000000000046145b156115db57507f000000000000000000000000000000000000000000000000000000000000000090565b50604080517f00000000000000000000000000000000000000000000000000000000000000006020808301919091527f0000000000000000000000000000000000000000000000000000000000000000828401527f000000000000000000000000000000000000000000000000000000000000000060608301524660808301523060a0808401919091528351808403909101815260c0909201909252805191012090565b60075473ffffffffffffffffffffffffffffffffffffffff163314610af1576040517f08c379a000000000000000000000000000000000000000000000000000000000815260206004820181905260248201527f4f776e61626c653a2063616c6c6572206973206e6f7420746865206f776e65726044820152606401610d54565b6007805473ffffffffffffffffffffffffffffffffffffffff8381167fffffffffffffffffffffffff0000000000000000000000000000000000000000831681179093556040519116919082907f8be0079c531659141344cd1fd0a4f28419497f9722a3daafe3b4186f6b6457e090600090a35050565b73ffffffffffffffffffffffffffffffffffffffff82166117f4576040517f08c379a000000000000000000000000000000000000000000000000000000000815260206004820152601f60248201527f45524332303a206d696e7420746f20746865207a65726f2061646472657373006044820152606401610d54565b8060026000828254611806919061293c565b909155505073ffffffffffffffffffffffffffffffffffffffff8216600081815260208181526040808320805486019055518481527fddf252ad1be2c89b69c2b068fc378daa952ba7f163c4a11628f55a4df523b3ef910160405180910390a35050565b60007f000000000000000000000000000000000000000000000000000000000000000015806118cd57507f000000000000000000000000000000000000000000000000000000000000000073ffffffffffffffffffffffffffffffffffffffff16155b156118d85750600090565b6040517f465909fc0000000000000000000000000000000000000000000000000000000081527f000000000000000000000000000000000000000000000000000000000000000060048201526000907f000000000000000000000000000000000000000000000000000000000000000073ffffffffffffffffffffffffffffffffffffffff169063465909fc9060240160206040518083038186803b15801561198057600080fd5b505afa158015611994573d6000803e3d6000fd5b505050506040513d601f19601f820116820180604052508101906119b8919061280b565b6040517fb656463b0000000000000000000000000000000000000000000000000000000081523360048201527f0000000000000000000000000000000000000000000000000000000000000000602482015290915060009073ffffffffffffffffffffffffffffffffffffffff7f0000000000000000000000000000000000000000000000000000000000000000169063b656463b9060440160206040518083038186803b158015611a6957600080fd5b505afa158015611a7d573d6000803e3d6000fd5b505050506040513d601f19601f82011682018060405250810190611aa19190612841565b9050600073ffffffffffffffffffffffffffffffffffffffff831615611b63576040517f70a0823100000000000000000000000000000000000000000000000000000000815233600482015273ffffffffffffffffffffffffffffffffffffffff8416906370a082319060240160206040518083038186803b158015611b2657600080fd5b505afa158015611b3a573d6000803e3d6000fd5b505050506040513d601f19601f82011682018060405250810190611b5e9190612841565b611b66565b60005b8281019450905083611b7c576000935050505090565b8015611c30576040517f23b872dd0000000000000000000000000000000000000000000000000000000081523360048201523060248201526044810182905273ffffffffffffffffffffffffffffffffffffffff8416906323b872dd90606401602060405180830381600087803b158015611bf657600080fd5b505af1158015611c0a573d6000803e3d6000fd5b505050506040513d601f19601f82011682018060405250810190611c2e91906127e9565b505b8115611d0a576040517f33681fb10000000000000000000000000000000000000000000000000000000081523360048201527f00000000000000000000000000000000000000000000000000000000000000006024820152604481018390523060648201527f000000000000000000000000000000000000000000000000000000000000000073ffffffffffffffffffffffffffffffffffffffff16906333681fb1906084015b600060405180830381600087803b158015611cf157600080fd5b505af1158015611d05573d6000803e3d6000fd5b505050505b50505090565b60007f000000000000000000000000000000000000000000000000000000000000000073ffffffffffffffffffffffffffffffffffffffff16611d535750600090565b6040517fea78803f0000000000000000000000000000000000000000000000000000000081527f000000000000000000000000000000000000000000000000000000000000000060048201526000907f000000000000000000000000000000000000000000000000000000000000000073ffffffffffffffffffffffffffffffffffffffff169063ea78803f9060240160206040518083038186803b158015611dfb57600080fd5b505afa158015611e0f573d6000803e3d6000fd5b505050506040513d601f19601f82011682018060405250810190611e33919061280b565b6040517f5287af370000000000000000000000000000000000000000000000000000000081523360048201527f0000000000000000000000000000000000000000000000000000000000000000602482015290915060009073ffffffffffffffffffffffffffffffffffffffff7f00000000000000000000000000000000000000000000000000000000000000001690635287af379060440160206040518083038186803b158015611ee457600080fd5b505afa158015611ef8573d6000803e3d6000fd5b505050506040513d601f19601f82011682018060405250810190611f1c9190612841565b9050600073ffffffffffffffffffffffffffffffffffffffff831615612002576040517efdd58e0000000000000000000000000000000000000000000000000000000081523360048201527f0000000000000000000000000000000000000000000000000000000000000000602482015273ffffffffffffffffffffffffffffffffffffffff84169062fdd58e9060440160206040518083038186803b158015611fc557600080fd5b505afa158015611fd9573d6000803e3d6000fd5b505050506040513d601f19601f82011682018060405250810190611ffd9190612841565b612005565b60005b828101945090508361201b576000935050505090565b80156120d4576040517f1c0f12b60000000000000000000000000000000000000000000000000000000081527f000000000000000000000000000000000000000000000000000000000000000060048201523360248201523060448201526064810182905273ffffffffffffffffffffffffffffffffffffffff841690631c0f12b690608401600060405180830381600087803b1580156120bb57600080fd5b505af11580156120cf573d6000803e3d6000fd5b505050505b8115611d0a576040517fac689bcd0000000000000000000000000000000000000000000000000000000081523360048201527f00000000000000000000000000000000000000000000000000000000000000006024820152306044820152606481018390527f000000000000000000000000000000000000000000000000000000000000000073ffffffffffffffffffffffffffffffffffffffff169063ac689bcd90608401611cd7565b73ffffffffffffffffffffffffffffffffffffffff8216612222576040517f08c379a000000000000000000000000000000000000000000000000000000000815260206004820152602160248201527f45524332303a206275726e2066726f6d20746865207a65726f2061646472657360448201527f73000000000000000000000000000000000000000000000000000000000000006064820152608401610d54565b73ffffffffffffffffffffffffffffffffffffffff8216600090815260208190526040902054818110156122d8576040517f08c379a000000000000000000000000000000000000000000000000000000000815260206004820152602260248201527f45524332303a206275726e20616d6f756e7420657863656564732062616c616e60448201527f63650000000000000000000000000000000000000000000000000000000000006064820152608401610d54565b73ffffffffffffffffffffffffffffffffffffffff83166000818152602081815260408083208686039055600280548790039055518581529192917fddf252ad1be2c89b69c2b068fc378daa952ba7f163c4a11628f55a4df523b3ef910160405180910390a3505050565b73ffffffffffffffffffffffffffffffffffffffff811660009081526005602052604090208054600181018255905b50919050565b6000610b1a61238561154b565b836040517f19010000000000000000000000000000000000000000000000000000000000006020820152602281018390526042810182905260009060620160405160208183030381529060405280519060200120905092915050565b60008060006123f287878787612409565b915091506123ff816124f8565b5095945050505050565b6000807f7fffffffffffffffffffffffffffffff5d576e7357a4501ddfe92f46681b20a083111561244057506000905060036124ef565b6040805160008082526020820180845289905260ff881692820192909252606081018690526080810185905260019060a0016020604051602081039080840390855afa158015612494573d6000803e3d6000fd5b50506040517fffffffffffffffffffffffffffffffffffffffffffffffffffffffffffffffe0015191505073ffffffffffffffffffffffffffffffffffffffff81166124e8576000600192509250506124ef565b9150600090505b94509492505050565b600081600481111561250c5761250c6129e8565b14156125155750565b6001816004811115612529576125296129e8565b1415612591576040517f08c379a000000000000000000000000000000000000000000000000000000000815260206004820152601860248201527f45434453413a20696e76616c6964207369676e617475726500000000000000006044820152606401610d54565b60028160048111156125a5576125a56129e8565b141561260d576040517f08c379a000000000000000000000000000000000000000000000000000000000815260206004820152601f60248201527f45434453413a20696e76616c6964207369676e6174757265206c656e677468006044820152606401610d54565b6003816004811115612621576126216129e8565b1415610c17576040517f08c379a000000000000000000000000000000000000000000000000000000000815260206004820152602260248201527f45434453413a20696e76616c6964207369676e6174757265202773272076616c60448201527f75650000000000000000000000000000000000000000000000000000000000006064820152608401610d54565b6000602082840312156126c157600080fd5b81356104e281612a17565b600080604083850312156126df57600080fd5b82356126ea81612a17565b915060208301356126fa81612a17565b809150509250929050565b60008060006060848603121561271a57600080fd5b833561272581612a17565b9250602084013561273581612a17565b929592945050506040919091013590565b600080600080600080600060e0888a03121561276157600080fd5b873561276c81612a17565b9650602088013561277c81612a17565b95506040880135945060608801359350608088013560ff811681146127a057600080fd5b9699959850939692959460a0840135945060c09093013592915050565b600080604083850312156127d057600080fd5b82356127db81612a17565b946020939093013593505050565b6000602082840312156127fb57600080fd5b815180151581146104e257600080fd5b60006020828403121561281d57600080fd5b81516104e281612a17565b60006020828403121561283a57600080fd5b5035919050565b60006020828403121561285357600080fd5b5051919050565b6000806000806080858703121561287057600080fd5b84359350602085013561288281612a17565b9250604085013561289281612a17565b9396929550929360600135925050565b6000806000606084860312156128b757600080fd5b83359250602084013561273581612a17565b600060208083528351808285015260005b818110156128f6578581018301518582016040015282016128da565b81811115612908576000604083870101525b50601f017fffffffffffffffffffffffffffffffffffffffffffffffffffffffffffffffe016929092016040019392505050565b6000821982111561294f5761294f6129b9565b500190565b600082821015612966576129666129b9565b500390565b600181811c9082168061297f57607f821691505b60208210811415612372577f4e487b7100000000000000000000000000000000000000000000000000000000600052602260045260246000fd5b7f4e487b7100000000000000000000000000000000000000000000000000000000600052601160045260246000fd5b7f4e487b7100000000000000000000000000000000000000000000000000000000600052602160045260246000fd5b73ffffffffffffffffffffffffffffffffffffffff81168114610c1757600080fdfea264697066735822122095a563415265432f2ac7c43624eb75fad9f43f5bd2ba14dc805bc5c1c101eec464736f6c63430008060033",
    "linkReferences": {}
  },
  "methodIdentifiers": {
    "DOMAIN_SEPARATOR()": "3644e515",
    "allowance(address,address)": "dd62ed3e",
    "approve(address,uint256)": "095ea7b3",
    "approve(uint256,address,uint256)": "8cb0a511",
    "balanceOf(address)": "70a08231",
    "balanceOf(address,uint256)": "00fdd58e",
    "burn(uint256,address,uint256)": "9eea5f66",
    "decimals()": "313ce567",
    "decreaseAllowance(address,uint256)": "a457c2d7",
    "increaseAllowance(address,uint256)": "39509351",
    "migrate()": "8fd3ab80",
    "mint(uint256,address,uint256)": "836a1040",
    "name()": "06fdde03",
    "nonces(address)": "7ecebe00",
    "owner()": "8da5cb5b",
    "permit(address,address,uint256,uint256,uint8,bytes32,bytes32)": "d505accf",
    "projectId()": "3fafa127",
    "renounceOwnership()": "715018a6",
    "symbol()": "95d89b41",
    "totalSupply()": "18160ddd",
    "totalSupply(uint256)": "bd85b039",
    "transfer(address,uint256)": "a9059cbb",
    "transfer(uint256,address,uint256)": "f8548e36",
    "transferFrom(address,address,uint256)": "23b872dd",
    "transferFrom(uint256,address,address,uint256)": "1c0f12b6",
    "transferOwnership(address)": "f2fde38b",
    "v1ProjectId()": "d7388f05",
    "v1TicketBooth()": "00263783",
    "v2TokenStore()": "a2ba0e79"
  },
  "id": 0
}