{
  "abi": [
    {
      "inputs": [
        {
          "internalType": "contract IProjects",
          "name": "_projects",
          "type": "address"
        },
        {
          "internalType": "contract IOperatorStore",
          "name": "_operatorStore",
          "type": "address"
        },
        {
          "internalType": "contract ITerminalDirectory",
          "name": "_terminalDirectory",
          "type": "address"
        }
      ],
      "stateMutability": "nonpayable",
      "type": "constructor"
    },
    {
      "anonymous": false,
      "inputs": [
        {
          "indexed": true,
          "internalType": "uint256",
          "name": "projectId",
          "type": "uint256"
        },
        {
          "indexed": true,
          "internalType": "uint256",
          "name": "configuration",
          "type": "uint256"
        },
        {
          "components": [
            {
              "internalType": "bool",
              "name": "preferUnstaked",
              "type": "bool"
            },
            {
              "internalType": "uint16",
              "name": "percent",
              "type": "uint16"
            },
            {
              "internalType": "uint48",
              "name": "lockedUntil",
              "type": "uint48"
            },
            {
              "internalType": "address payable",
              "name": "beneficiary",
              "type": "address"
            },
            {
              "internalType": "contract IModAllocator",
              "name": "allocator",
              "type": "address"
            },
            {
              "internalType": "uint56",
              "name": "projectId",
              "type": "uint56"
            }
          ],
          "indexed": false,
          "internalType": "struct PayoutMod",
          "name": "mods",
          "type": "tuple"
        },
        {
          "indexed": false,
          "internalType": "address",
          "name": "caller",
          "type": "address"
        }
      ],
      "name": "SetPayoutMod",
      "type": "event"
    },
    {
      "anonymous": false,
      "inputs": [
        {
          "indexed": true,
          "internalType": "uint256",
          "name": "projectId",
          "type": "uint256"
        },
        {
          "indexed": true,
          "internalType": "uint256",
          "name": "configuration",
          "type": "uint256"
        },
        {
          "components": [
            {
              "internalType": "bool",
              "name": "preferUnstaked",
              "type": "bool"
            },
            {
              "internalType": "uint16",
              "name": "percent",
              "type": "uint16"
            },
            {
              "internalType": "uint48",
              "name": "lockedUntil",
              "type": "uint48"
            },
            {
              "internalType": "address payable",
              "name": "beneficiary",
              "type": "address"
            }
          ],
          "indexed": false,
          "internalType": "struct TicketMod",
          "name": "mods",
          "type": "tuple"
        },
        {
          "indexed": false,
          "internalType": "address",
          "name": "caller",
          "type": "address"
        }
      ],
      "name": "SetTicketMod",
      "type": "event"
    },
    {
      "inputs": [],
      "name": "operatorStore",
      "outputs": [
        {
          "internalType": "contract IOperatorStore",
          "name": "",
          "type": "address"
        }
      ],
      "stateMutability": "view",
      "type": "function"
    },
    {
      "inputs": [
        {
          "internalType": "uint256",
          "name": "_projectId",
          "type": "uint256"
        },
        {
          "internalType": "uint256",
          "name": "_configuration",
          "type": "uint256"
        }
      ],
      "name": "payoutModsOf",
      "outputs": [
        {
          "components": [
            {
              "internalType": "bool",
              "name": "preferUnstaked",
              "type": "bool"
            },
            {
              "internalType": "uint16",
              "name": "percent",
              "type": "uint16"
            },
            {
              "internalType": "uint48",
              "name": "lockedUntil",
              "type": "uint48"
            },
            {
              "internalType": "address payable",
              "name": "beneficiary",
              "type": "address"
            },
            {
              "internalType": "contract IModAllocator",
              "name": "allocator",
              "type": "address"
            },
            {
              "internalType": "uint56",
              "name": "projectId",
              "type": "uint56"
            }
          ],
          "internalType": "struct PayoutMod[]",
          "name": "",
          "type": "tuple[]"
        }
      ],
      "stateMutability": "view",
      "type": "function"
    },
    {
      "inputs": [],
      "name": "projects",
      "outputs": [
        {
          "internalType": "contract IProjects",
          "name": "",
          "type": "address"
        }
      ],
      "stateMutability": "view",
      "type": "function"
    },
    {
      "inputs": [
        {
          "internalType": "uint256",
          "name": "_projectId",
          "type": "uint256"
        },
        {
          "internalType": "uint256",
          "name": "_configuration",
          "type": "uint256"
        },
        {
          "components": [
            {
              "internalType": "bool",
              "name": "preferUnstaked",
              "type": "bool"
            },
            {
              "internalType": "uint16",
              "name": "percent",
              "type": "uint16"
            },
            {
              "internalType": "uint48",
              "name": "lockedUntil",
              "type": "uint48"
            },
            {
              "internalType": "address payable",
              "name": "beneficiary",
              "type": "address"
            },
            {
              "internalType": "contract IModAllocator",
              "name": "allocator",
              "type": "address"
            },
            {
              "internalType": "uint56",
              "name": "projectId",
              "type": "uint56"
            }
          ],
          "internalType": "struct PayoutMod[]",
          "name": "_mods",
          "type": "tuple[]"
        }
      ],
      "name": "setPayoutMods",
      "outputs": [],
      "stateMutability": "nonpayable",
      "type": "function"
    },
    {
      "inputs": [
        {
          "internalType": "uint256",
          "name": "_projectId",
          "type": "uint256"
        },
        {
          "internalType": "uint256",
          "name": "_configuration",
          "type": "uint256"
        },
        {
          "components": [
            {
              "internalType": "bool",
              "name": "preferUnstaked",
              "type": "bool"
            },
            {
              "internalType": "uint16",
              "name": "percent",
              "type": "uint16"
            },
            {
              "internalType": "uint48",
              "name": "lockedUntil",
              "type": "uint48"
            },
            {
              "internalType": "address payable",
              "name": "beneficiary",
              "type": "address"
            }
          ],
          "internalType": "struct TicketMod[]",
          "name": "_mods",
          "type": "tuple[]"
        }
      ],
      "name": "setTicketMods",
      "outputs": [],
      "stateMutability": "nonpayable",
      "type": "function"
    },
    {
      "inputs": [],
      "name": "terminalDirectory",
      "outputs": [
        {
          "internalType": "contract ITerminalDirectory",
          "name": "",
          "type": "address"
        }
      ],
      "stateMutability": "view",
      "type": "function"
    },
    {
      "inputs": [
        {
          "internalType": "uint256",
          "name": "_projectId",
          "type": "uint256"
        },
        {
          "internalType": "uint256",
          "name": "_configuration",
          "type": "uint256"
        }
      ],
      "name": "ticketModsOf",
      "outputs": [
        {
          "components": [
            {
              "internalType": "bool",
              "name": "preferUnstaked",
              "type": "bool"
            },
            {
              "internalType": "uint16",
              "name": "percent",
              "type": "uint16"
            },
            {
              "internalType": "uint48",
              "name": "lockedUntil",
              "type": "uint48"
            },
            {
              "internalType": "address payable",
              "name": "beneficiary",
              "type": "address"
            }
          ],
          "internalType": "struct TicketMod[]",
          "name": "",
          "type": "tuple[]"
        }
      ],
      "stateMutability": "view",
      "type": "function"
    }
  ],
  "bytecode": {
    "object": "0x60e06040523480156200001157600080fd5b50604051620022ab380380620022ab83398101604081905262000034916200005c565b6001600160601b0319606092831b811660805290821b811660a05291901b1660c052620000c9565b6000806000606084860312156200007257600080fd5b83516200007f81620000b0565b60208501519093506200009281620000b0565b6040850151909250620000a581620000b0565b809150509250925092565b6001600160a01b0381168114620000c657600080fd5b50565b60805160601c60a05160601c60c05160601c6121806200012b6000396000818161011c015281816103710152610f8d01526000818160b00152818161044901526110650152600081816101580152818161053b015261115701526121806000f3fe608060405234801561001057600080fd5b506004361061007d5760003560e01c80638b79543c1161005b5780638b79543c14610117578063a67e210a1461013e578063ad007d6314610153578063ebe352a41461017a57600080fd5b80634833b512146100825780636abcf8e3146100ab5780637559aaaa146100f7575b600080fd5b610095610090366004611b46565b61018d565b6040516100a29190611e5d565b60405180910390f35b6100d27f000000000000000000000000000000000000000000000000000000000000000081565b60405173ffffffffffffffffffffffffffffffffffffffff90911681526020016100a2565b61010a610105366004611b46565b610251565b6040516100a29190611da7565b6100d27f000000000000000000000000000000000000000000000000000000000000000081565b61015161014c366004611b68565b610342565b005b6100d27f000000000000000000000000000000000000000000000000000000000000000081565b610151610188366004611ca3565b610f5e565b60008281526001602090815260408083208484528252808320805482518185028101850190935280835260609492939192909184015b82821015610245576000848152602090819020604080516080810182529185015460ff811615158352610100810461ffff16838501526301000000810465ffffffffffff16918301919091526901000000000000000000900473ffffffffffffffffffffffffffffffffffffffff1660608201528252600190920191016101c3565b50505050905092915050565b6000828152602081815260408083208484528252808320805482518185028101850190935280835260609492939192909184015b828210156102455760008481526020908190206040805160c08101825260028602909201805460ff811615158452610100810461ffff16848601526301000000810465ffffffffffff1692840192909252690100000000000000000090910473ffffffffffffffffffffffffffffffffffffffff9081166060840152600191820154908116608084015274010000000000000000000000000000000000000000900466ffffffffffffff1660a08301529083529092019101610285565b6040517f6352211e000000000000000000000000000000000000000000000000000000008152600481018490527f000000000000000000000000000000000000000000000000000000000000000073ffffffffffffffffffffffffffffffffffffffff1690636352211e9060240160206040518083038186803b1580156103c857600080fd5b505afa1580156103dc573d6000803e3d6000fd5b505050506040513d601f19601f820116820180604052508101906104009190611b05565b6040517f4fe0eced000000000000000000000000000000000000000000000000000000008152600481018590528490600e9073ffffffffffffffffffffffffffffffffffffffff7f00000000000000000000000000000000000000000000000000000000000000001690634fe0eced9060240160206040518083038186803b15801561048b57600080fd5b505afa15801561049f573d6000803e3d6000fd5b505050506040513d601f19601f820116820180604052508101906104c39190611b05565b3373ffffffffffffffffffffffffffffffffffffffff851614806105b557506040517fc161c93f00000000000000000000000000000000000000000000000000000000815233600482015273ffffffffffffffffffffffffffffffffffffffff858116602483015260448201859052606482018490527f0000000000000000000000000000000000000000000000000000000000000000169063c161c93f9060840160206040518083038186803b15801561057d57600080fd5b505afa158015610591573d6000803e3d6000fd5b505050506040513d601f19601f820116820180604052508101906105b59190611b29565b806105d557503373ffffffffffffffffffffffffffffffffffffffff8216145b610640576040517f08c379a000000000000000000000000000000000000000000000000000000000815260206004820152601860248201527f4f706572617461626c653a20554e415554484f52495a4544000000000000000060448201526064015b60405180910390fd5b60008551116106ab576040517f08c379a000000000000000000000000000000000000000000000000000000000815260206004820152601e60248201527f4d6f6453746f72653a3a7365745061796f75744d6f64733a204e4f5f4f5000006044820152606401610637565b600087815260208181526040808320898452825280832080548251818502810185019093528083529192909190849084015b8282101561079a5760008481526020908190206040805160c08101825260028602909201805460ff811615158452610100810461ffff16848601526301000000810465ffffffffffff1692840192909252690100000000000000000090910473ffffffffffffffffffffffffffffffffffffffff9081166060840152600191820154908116608084015274010000000000000000000000000000000000000000900466ffffffffffffff1660a083015290835290920191016106dd565b50505050905060005b8151811015610a77578181815181106107be576107be6120bc565b60200260200101516040015165ffffffffffff16421015610a65576000805b88518110156109d6578383815181106107f8576107f86120bc565b60200260200101516020015161ffff1689828151811061081a5761081a6120bc565b60200260200101516020015161ffff1614801561089c5750838381518110610844576108446120bc565b60200260200101516060015173ffffffffffffffffffffffffffffffffffffffff16898281518110610878576108786120bc565b60200260200101516060015173ffffffffffffffffffffffffffffffffffffffff16145b801561090d57508383815181106108b5576108b56120bc565b60200260200101516080015173ffffffffffffffffffffffffffffffffffffffff168982815181106108e9576108e96120bc565b60200260200101516080015173ffffffffffffffffffffffffffffffffffffffff16145b80156109645750838381518110610926576109266120bc565b602002602001015160a0015166ffffffffffffff1689828151811061094d5761094d6120bc565b602002602001015160a0015166ffffffffffffff16145b80156109ba575083838151811061097d5761097d6120bc565b60200260200101516040015165ffffffffffff168982815181106109a3576109a36120bc565b60200260200101516040015165ffffffffffff1610155b156109c457600191505b806109ce81612054565b9150506107dd565b5080610a63576040517f08c379a0000000000000000000000000000000000000000000000000000000008152602060048201526024808201527f4d6f6453746f72653a3a7365745061796f75744d6f64733a20534f4d455f4c4f60448201527f434b4544000000000000000000000000000000000000000000000000000000006064820152608401610637565b505b80610a6f81612054565b9150506107a3565b506000888152602081815260408083208a84529091528120610a98916119fa565b6000805b8751811015610f52576000888281518110610ab957610ab96120bc565b60200260200101516020015161ffff1611610b56576040517f08c379a000000000000000000000000000000000000000000000000000000000815260206004820152602860248201527f4d6f6453746f72653a3a7365745061796f75744d6f64733a204241445f4d4f4460448201527f5f50455243454e540000000000000000000000000000000000000000000000006064820152608401610637565b878181518110610b6857610b686120bc565b60200260200101516020015161ffff1682610b83919061203c565b9150612710821115610c17576040517f08c379a000000000000000000000000000000000000000000000000000000000815260206004820152602a60248201527f4d6f6453746f72653a3a7365745061796f75744d6f64733a204241445f544f5460448201527f414c5f50455243454e54000000000000000000000000000000000000000000006064820152608401610637565b600073ffffffffffffffffffffffffffffffffffffffff16888281518110610c4157610c416120bc565b60200260200101516080015173ffffffffffffffffffffffffffffffffffffffff16141580610cba5750600073ffffffffffffffffffffffffffffffffffffffff16888281518110610c9557610c956120bc565b60200260200101516060015173ffffffffffffffffffffffffffffffffffffffff1614155b610d46576040517f08c379a000000000000000000000000000000000000000000000000000000000815260206004820152602560248201527f4d6f6453746f72653a3a7365745061796f75744d6f64733a205a45524f5f414460448201527f44524553530000000000000000000000000000000000000000000000000000006064820152608401610637565b60008a8152602081815260408083208c845290915290208851899083908110610d7157610d716120bc565b6020908102919091018101518254600180820185556000948552938390208251600290920201805493830151604084015160608501517fffffffffffffffffffffffffffffffffffffffffffffffffffffffffff0000009096169315157fffffffffffffffffffffffffffffffffffffffffffffffffffffffffff0000ff169390931761010061ffff90921691909102177fffffff0000000000000000000000000000000000000000000000000000ffffff16630100000065ffffffffffff909316929092027fffffff0000000000000000000000000000000000000000ffffffffffffffffff1691909117690100000000000000000073ffffffffffffffffffffffffffffffffffffffff9485160217815560808201519301805460a090920151939092167fffffffffff000000000000000000000000000000000000000000000000000000909116177401000000000000000000000000000000000000000066ffffffffffffff90931692909202919091179055875189908b907f11d093e1f86a50d3e49cd68b453d3dc4ea6c3785bf9d407f4ba2fcc44b0acbbd908b9085908110610f2157610f216120bc565b602002602001015133604051610f38929190611ee4565b60405180910390a380610f4a81612054565b915050610a9c565b50505050505050505050565b6040517f6352211e000000000000000000000000000000000000000000000000000000008152600481018490527f000000000000000000000000000000000000000000000000000000000000000073ffffffffffffffffffffffffffffffffffffffff1690636352211e9060240160206040518083038186803b158015610fe457600080fd5b505afa158015610ff8573d6000803e3d6000fd5b505050506040513d601f19601f8201168201806040525081019061101c9190611b05565b6040517f4fe0eced000000000000000000000000000000000000000000000000000000008152600481018590528490600f9073ffffffffffffffffffffffffffffffffffffffff7f00000000000000000000000000000000000000000000000000000000000000001690634fe0eced9060240160206040518083038186803b1580156110a757600080fd5b505afa1580156110bb573d6000803e3d6000fd5b505050506040513d601f19601f820116820180604052508101906110df9190611b05565b3373ffffffffffffffffffffffffffffffffffffffff851614806111d157506040517fc161c93f00000000000000000000000000000000000000000000000000000000815233600482015273ffffffffffffffffffffffffffffffffffffffff858116602483015260448201859052606482018490527f0000000000000000000000000000000000000000000000000000000000000000169063c161c93f9060840160206040518083038186803b15801561119957600080fd5b505afa1580156111ad573d6000803e3d6000fd5b505050506040513d601f19601f820116820180604052508101906111d19190611b29565b806111f157503373ffffffffffffffffffffffffffffffffffffffff8216145b611257576040517f08c379a000000000000000000000000000000000000000000000000000000000815260206004820152601860248201527f4f706572617461626c653a20554e415554484f52495a454400000000000000006044820152606401610637565b60008551116112c2576040517f08c379a000000000000000000000000000000000000000000000000000000000815260206004820152601e60248201527f4d6f6453746f72653a3a7365745469636b65744d6f64733a204e4f5f4f5000006044820152606401610637565b6000878152600160209081526040808320898452825280832080548251818502810185019093528083529192909190849084015b82821015611378576000848152602090819020604080516080810182529185015460ff811615158352610100810461ffff16838501526301000000810465ffffffffffff16918301919091526901000000000000000000900473ffffffffffffffffffffffffffffffffffffffff1660608201528252600190920191016112f6565b50505050905060005b815181101561158d5781818151811061139c5761139c6120bc565b60200260200101516040015165ffffffffffff1642101561157b576000805b88518110156114ec578383815181106113d6576113d66120bc565b60200260200101516020015161ffff168982815181106113f8576113f86120bc565b60200260200101516020015161ffff1614801561147a5750838381518110611422576114226120bc565b60200260200101516060015173ffffffffffffffffffffffffffffffffffffffff16898281518110611456576114566120bc565b60200260200101516060015173ffffffffffffffffffffffffffffffffffffffff16145b80156114d05750838381518110611493576114936120bc565b60200260200101516040015165ffffffffffff168982815181106114b9576114b96120bc565b60200260200101516040015165ffffffffffff1610155b156114da57600191505b806114e481612054565b9150506113bb565b5080611579576040517f08c379a0000000000000000000000000000000000000000000000000000000008152602060048201526024808201527f4d6f6453746f72653a3a7365745469636b65744d6f64733a20534f4d455f4c4f60448201527f434b4544000000000000000000000000000000000000000000000000000000006064820152608401610637565b505b8061158581612054565b915050611381565b5060008881526001602090815260408083208a845290915281206115b091611a1e565b6000805b8751811015610f525760008882815181106115d1576115d16120bc565b60200260200101516020015161ffff161161166e576040517f08c379a000000000000000000000000000000000000000000000000000000000815260206004820152602860248201527f4d6f6453746f72653a3a7365745469636b65744d6f64733a204241445f4d4f4460448201527f5f50455243454e540000000000000000000000000000000000000000000000006064820152608401610637565b878181518110611680576116806120bc565b60200260200101516020015161ffff168261169b919061203c565b915061271082111561172f576040517f08c379a000000000000000000000000000000000000000000000000000000000815260206004820152602a60248201527f4d6f6453746f72653a3a7365745469636b65744d6f64733a204241445f544f5460448201527f414c5f50455243454e54000000000000000000000000000000000000000000006064820152608401610637565b600073ffffffffffffffffffffffffffffffffffffffff16888281518110611759576117596120bc565b60200260200101516060015173ffffffffffffffffffffffffffffffffffffffff161415611809576040517f08c379a000000000000000000000000000000000000000000000000000000000815260206004820152602560248201527f4d6f6453746f72653a3a7365745469636b65744d6f64733a205a45524f5f414460448201527f44524553530000000000000000000000000000000000000000000000000000006064820152608401610637565b60008a81526001602090815260408083208c845290915290208851899083908110611836576118366120bc565b60209081029190910181015182546001810184556000938452928290208151930180549282015160408301516060909301517fffffffffffffffffffffffffffffffffffffffffffffffffffffffffff0000009094169415157fffffffffffffffffffffffffffffffffffffffffffffffffffffffffff0000ff169490941761010061ffff90951694909402939093177fffffff0000000000000000000000000000000000000000000000000000ffffff16630100000065ffffffffffff909216919091027fffffff0000000000000000000000000000000000000000ffffffffffffffffff1617690100000000000000000073ffffffffffffffffffffffffffffffffffffffff90921691909102179055875189908b907fbe6dc180c545b9c03d152e2058d9c71d2c7a2f1b897461cd0a4a161ba011c1c3908b9085908110611982576119826120bc565b602090810291909101810151604080518251151581528284015161ffff16938101939093528082015165ffffffffffff169083015260609081015173ffffffffffffffffffffffffffffffffffffffff169082015233608082015260a00160405180910390a3806119f281612054565b9150506115b4565b5080546000825560020290600052602060002090810190611a1b9190611a3c565b50565b5080546000825590600052602060002090810190611a1b9190611aa1565b5b80821115611a9d5780547fffffff00000000000000000000000000000000000000000000000000000000001681556001810180547fffffffffff000000000000000000000000000000000000000000000000000000169055600201611a3d565b5090565b5b80821115611a9d5780547fffffff0000000000000000000000000000000000000000000000000000000000168155600101611aa2565b803561ffff81168114611aea57600080fd5b919050565b803565ffffffffffff81168114611aea57600080fd5b600060208284031215611b1757600080fd5b8151611b228161211a565b9392505050565b600060208284031215611b3b57600080fd5b8151611b228161213c565b60008060408385031215611b5957600080fd5b50508035926020909101359150565b60008060006060808587031215611b7e57600080fd5b84359350602080860135935060408087013567ffffffffffffffff811115611ba557600080fd5b8701601f81018913611bb657600080fd5b8035611bc9611bc482612018565b611fc9565b8181528481019083860160c0808502860188018e1015611be857600080fd5b600095505b84861015611c905780828f031215611c0457600080fd5b611c0c611f7d565b8235611c178161213c565b8152611c24838a01611ad8565b89820152611c33888401611aef565b8882015289830135611c448161211a565b818b0152608083810135611c578161211a565b9082015260a08381013566ffffffffffffff81168114611c7657600080fd5b908201528452600195909501949287019290810190611bed565b5050809750505050505050509250925092565b600080600060608486031215611cb857600080fd5b83359250602080850135925060408086013567ffffffffffffffff811115611cdf57600080fd5b8601601f81018813611cf057600080fd5b8035611cfe611bc482612018565b8082825285820191508584018b878560071b8701011115611d1e57600080fd5b60009450845b84811015611d9557608080838f031215611d3c578687fd5b611d44611fa6565b8335611d4f8161213c565b8152611d5c848b01611ad8565b8a820152611d6b898501611aef565b898201526060840135611d7d8161211a565b60608201528552938801939190910190600101611d24565b50508096505050505050509250925092565b6020808252825182820181905260009190848201906040850190845b81811015611e5157611e3e83855180511515825261ffff602082015116602083015265ffffffffffff6040820151166040830152606081015173ffffffffffffffffffffffffffffffffffffffff8082166060850152806080840151166080850152505066ffffffffffffff60a08201511660a08301525050565b9284019260c09290920191600101611dc3565b50909695505050505050565b6020808252825182820181905260009190848201906040850190845b81811015611e5157611ed183855180511515825261ffff602082015116602083015265ffffffffffff604082015116604083015273ffffffffffffffffffffffffffffffffffffffff60608201511660608301525050565b9284019260809290920191600101611e79565b60e08101611f5a828580511515825261ffff602082015116602083015265ffffffffffff6040820151166040830152606081015173ffffffffffffffffffffffffffffffffffffffff8082166060850152806080840151166080850152505066ffffffffffffff60a08201511660a08301525050565b73ffffffffffffffffffffffffffffffffffffffff831660c08301529392505050565b60405160c0810167ffffffffffffffff81118282101715611fa057611fa06120eb565b60405290565b6040516080810167ffffffffffffffff81118282101715611fa057611fa06120eb565b604051601f82017fffffffffffffffffffffffffffffffffffffffffffffffffffffffffffffffe016810167ffffffffffffffff81118282101715612010576120106120eb565b604052919050565b600067ffffffffffffffff821115612032576120326120eb565b5060051b60200190565b6000821982111561204f5761204f61208d565b500190565b60007fffffffffffffffffffffffffffffffffffffffffffffffffffffffffffffffff8214156120865761208661208d565b5060010190565b7f4e487b7100000000000000000000000000000000000000000000000000000000600052601160045260246000fd5b7f4e487b7100000000000000000000000000000000000000000000000000000000600052603260045260246000fd5b7f4e487b7100000000000000000000000000000000000000000000000000000000600052604160045260246000fd5b73ffffffffffffffffffffffffffffffffffffffff81168114611a1b57600080fd5b8015158114611a1b57600080fdfea2646970667358221220a30300c78c4e73ceec9adfcec74aea9b2bcd50f293ef0cbd888e7f285ab9b1a664736f6c63430008060033",
    "linkReferences": {}
  },
  "methodIdentifiers": {
    "operatorStore()": "ad007d63",
    "payoutModsOf(uint256,uint256)": "7559aaaa",
    "projects()": "8b79543c",
    "setPayoutMods(uint256,uint256,(bool,uint16,uint48,address,address,uint56)[])": "a67e210a",
    "setTicketMods(uint256,uint256,(bool,uint16,uint48,address)[])": "ebe352a4",
    "terminalDirectory()": "6abcf8e3",
    "ticketModsOf(uint256,uint256)": "4833b512"
  },
  "id": 29
}