{
  "abi": [
    {
      "inputs": [
        {
          "internalType": "address",
          "name": "_owner",
          "type": "address"
        }
      ],
      "stateMutability": "nonpayable",
      "type": "constructor"
    },
    {
      "inputs": [
        {
          "internalType": "uint256",
          "name": "prod1",
          "type": "uint256"
        },
        {
          "internalType": "uint256",
          "name": "denominator",
          "type": "uint256"
        }
      ],
      "name": "PRBMath__MulDivOverflow",
      "type": "error"
    },
    {
      "inputs": [],
      "name": "PRICE_FEED_ALREADY_EXISTS",
      "type": "error"
    },
    {
      "inputs": [],
      "name": "PRICE_FEED_NOT_FOUND",
      "type": "error"
    },
    {
      "anonymous": false,
      "inputs": [
        {
          "indexed": true,
          "internalType": "uint256",
          "name": "currency",
          "type": "uint256"
        },
        {
          "indexed": true,
          "internalType": "uint256",
          "name": "base",
          "type": "uint256"
        },
        {
          "indexed": false,
          "internalType": "contract IJBPriceFeed",
          "name": "feed",
          "type": "address"
        }
      ],
      "name": "AddFeed",
      "type": "event"
    },
    {
      "anonymous": false,
      "inputs": [
        {
          "indexed": true,
          "internalType": "address",
          "name": "previousOwner",
          "type": "address"
        },
        {
          "indexed": true,
          "internalType": "address",
          "name": "newOwner",
          "type": "address"
        }
      ],
      "name": "OwnershipTransferred",
      "type": "event"
    },
    {
      "inputs": [
        {
          "internalType": "uint256",
          "name": "_currency",
          "type": "uint256"
        },
        {
          "internalType": "uint256",
          "name": "_base",
          "type": "uint256"
        },
        {
          "internalType": "contract IJBPriceFeed",
          "name": "_feed",
          "type": "address"
        }
      ],
      "name": "addFeedFor",
      "outputs": [],
      "stateMutability": "nonpayable",
      "type": "function"
    },
    {
      "inputs": [
        {
          "internalType": "uint256",
          "name": "",
          "type": "uint256"
        },
        {
          "internalType": "uint256",
          "name": "",
          "type": "uint256"
        }
      ],
      "name": "feedFor",
      "outputs": [
        {
          "internalType": "contract IJBPriceFeed",
          "name": "",
          "type": "address"
        }
      ],
      "stateMutability": "view",
      "type": "function"
    },
    {
      "inputs": [],
      "name": "owner",
      "outputs": [
        {
          "internalType": "address",
          "name": "",
          "type": "address"
        }
      ],
      "stateMutability": "view",
      "type": "function"
    },
    {
      "inputs": [
        {
          "internalType": "uint256",
          "name": "_currency",
          "type": "uint256"
        },
        {
          "internalType": "uint256",
          "name": "_base",
          "type": "uint256"
        },
        {
          "internalType": "uint256",
          "name": "_decimals",
          "type": "uint256"
        }
      ],
      "name": "priceFor",
      "outputs": [
        {
          "internalType": "uint256",
          "name": "",
          "type": "uint256"
        }
      ],
      "stateMutability": "view",
      "type": "function"
    },
    {
      "inputs": [],
      "name": "renounceOwnership",
      "outputs": [],
      "stateMutability": "nonpayable",
      "type": "function"
    },
    {
      "inputs": [
        {
          "internalType": "address",
          "name": "newOwner",
          "type": "address"
        }
      ],
      "name": "transferOwnership",
      "outputs": [],
      "stateMutability": "nonpayable",
      "type": "function"
    }
  ],
  "bytecode": {
    "object": "0x608060405234801561001057600080fd5b50604051610b8f380380610b8f83398101604081905261002f91610171565b61003833610047565b61004181610097565b506101a1565b600080546001600160a01b038381166001600160a01b0319831681178455604051919092169283917f8be0079c531659141344cd1fd0a4f28419497f9722a3daafe3b4186f6b6457e09190a35050565b61009f610115565b6001600160a01b0381166101095760405162461bcd60e51b815260206004820152602660248201527f4f776e61626c653a206e6577206f776e657220697320746865207a65726f206160448201526564647265737360d01b60648201526084015b60405180910390fd5b61011281610047565b50565b6000546001600160a01b0316331461016f5760405162461bcd60e51b815260206004820181905260248201527f4f776e61626c653a2063616c6c6572206973206e6f7420746865206f776e65726044820152606401610100565b565b60006020828403121561018357600080fd5b81516001600160a01b038116811461019a57600080fd5b9392505050565b6109df806101b06000396000f3fe608060405234801561001057600080fd5b50600436106100725760003560e01c806396364e6d1161005057806396364e6d1461010a578063a4d0caf21461011d578063f2fde38b1461013e57600080fd5b806315d63a9114610077578063715018a6146100e25780638da5cb5b146100ec575b600080fd5b6100b8610085366004610779565b600160209081526000928352604080842090915290825290205473ffffffffffffffffffffffffffffffffffffffff1681565b60405173ffffffffffffffffffffffffffffffffffffffff90911681526020015b60405180910390f35b6100ea610151565b005b60005473ffffffffffffffffffffffffffffffffffffffff166100b8565b6100ea61011836600461079b565b610165565b61013061012b3660046107d4565b610268565b6040519081526020016100d9565b6100ea61014c366004610743565b61048c565b610159610548565b61016360006105c9565b565b61016d610548565b600083815260016020908152604080832085845290915290205473ffffffffffffffffffffffffffffffffffffffff16156101d4576040517fd28d564f00000000000000000000000000000000000000000000000000000000815260040160405180910390fd5b600083815260016020908152604080832085845282529182902080547fffffffffffffffffffffffff00000000000000000000000000000000000000001673ffffffffffffffffffffffffffffffffffffffff85169081179091559151918252839185917f2809ef679fa4c20b88a6467f2660840ad173b5205fef76c270c5d7ba44cb7057910160405180910390a3505050565b6000828414156102845761027d82600a610861565b9050610485565b600084815260016020908152604080832086845290915290205473ffffffffffffffffffffffffffffffffffffffff168015610360576040517f7a3c4c170000000000000000000000000000000000000000000000000000000081526004810184905273ffffffffffffffffffffffffffffffffffffffff821690637a3c4c179060240160206040518083038186803b15801561032057600080fd5b505afa158015610334573d6000803e3d6000fd5b505050506040513d601f19601f820116820180604052508101906103589190610760565b915050610485565b50600083815260016020908152604080832087845290915290205473ffffffffffffffffffffffffffffffffffffffff168015610453576103586103a584600a610861565b6103b085600a610861565b6040517f7a3c4c170000000000000000000000000000000000000000000000000000000081526004810187905273ffffffffffffffffffffffffffffffffffffffff851690637a3c4c179060240160206040518083038186803b15801561041657600080fd5b505afa15801561042a573d6000803e3d6000fd5b505050506040513d601f19601f8201168201806040525081019061044e9190610760565b61063e565b6040517f75c9d5ca00000000000000000000000000000000000000000000000000000000815260040160405180910390fd5b9392505050565b610494610548565b73ffffffffffffffffffffffffffffffffffffffff811661053c576040517f08c379a000000000000000000000000000000000000000000000000000000000815260206004820152602660248201527f4f776e61626c653a206e6577206f776e657220697320746865207a65726f206160448201527f646472657373000000000000000000000000000000000000000000000000000060648201526084015b60405180910390fd5b610545816105c9565b50565b60005473ffffffffffffffffffffffffffffffffffffffff163314610163576040517f08c379a000000000000000000000000000000000000000000000000000000000815260206004820181905260248201527f4f776e61626c653a2063616c6c6572206973206e6f7420746865206f776e65726044820152606401610533565b6000805473ffffffffffffffffffffffffffffffffffffffff8381167fffffffffffffffffffffffff0000000000000000000000000000000000000000831681178455604051919092169283917f8be0079c531659141344cd1fd0a4f28419497f9722a3daafe3b4186f6b6457e09190a35050565b600080807fffffffffffffffffffffffffffffffffffffffffffffffffffffffffffffffff85870985870292508281108382030391505080600014156106975783828161068d5761068d610958565b0492505050610485565b8381106106da576040517f773cc18c0000000000000000000000000000000000000000000000000000000081526004810182905260248101859052604401610533565b60008486880960026001871981018816978890046003810283188082028403028082028403028082028403028082028403028082028403029081029092039091026000889003889004909101858311909403939093029303949094049190911702949350505050565b60006020828403121561075557600080fd5b813561048581610987565b60006020828403121561077257600080fd5b5051919050565b6000806040838503121561078c57600080fd5b50508035926020909101359150565b6000806000606084860312156107b057600080fd5b833592506020840135915060408401356107c981610987565b809150509250925092565b6000806000606084860312156107e957600080fd5b505081359360208301359350604090920135919050565b600181815b8085111561085957817fffffffffffffffffffffffffffffffffffffffffffffffffffffffffffffffff0482111561083f5761083f610929565b8085161561084c57918102915b93841c9390800290610805565b509250929050565b6000610485838360008261087757506001610923565b8161088457506000610923565b816001811461089a57600281146108a4576108c0565b6001915050610923565b60ff8411156108b5576108b5610929565b50506001821b610923565b5060208310610133831016604e8410600b84101617156108e3575081810a610923565b6108ed8383610800565b807fffffffffffffffffffffffffffffffffffffffffffffffffffffffffffffffff0482111561091f5761091f610929565b0290505b92915050565b7f4e487b7100000000000000000000000000000000000000000000000000000000600052601160045260246000fd5b7f4e487b7100000000000000000000000000000000000000000000000000000000600052601260045260246000fd5b73ffffffffffffffffffffffffffffffffffffffff8116811461054557600080fdfea2646970667358221220fe9ea2337bc7557f544f1637243c0b74419cba7f9ba52ed7a52e65ec516a8e3764736f6c63430008060033",
    "linkReferences": {}
  },
  "methodIdentifiers": {
    "addFeedFor(uint256,uint256,address)": "96364e6d",
    "feedFor(uint256,uint256)": "15d63a91",
    "owner()": "8da5cb5b",
    "priceFor(uint256,uint256,uint256)": "a4d0caf2",
    "renounceOwnership()": "715018a6",
    "transferOwnership(address)": "f2fde38b"
  },
  "id": 62
}