{
  "abi": [
    {
      "inputs": [
        {
          "internalType": "contract IProjects",
          "name": "_projects",
          "type": "address"
        },
        {
          "internalType": "contract IFundingCycles",
          "name": "_fundingCycles",
          "type": "address"
        },
        {
          "internalType": "contract ITicketBooth",
          "name": "_ticketBooth",
          "type": "address"
        },
        {
          "internalType": "contract IOperatorStore",
          "name": "_operatorStore",
          "type": "address"
        },
        {
          "internalType": "contract IModStore",
          "name": "_modStore",
          "type": "address"
        },
        {
          "internalType": "contract IPrices",
          "name": "_prices",
          "type": "address"
        },
        {
          "internalType": "contract ITerminalDirectory",
          "name": "_terminalDirectory",
          "type": "address"
        },
        {
          "internalType": "address",
          "name": "_owner",
          "type": "address"
        }
      ],
      "stateMutability": "nonpayable",
      "type": "constructor"
    },
    {
      "inputs": [
        {
          "internalType": "uint256",
          "name": "prod1",
          "type": "uint256"
        }
      ],
      "name": "PRBMath__MulDivFixedPointOverflow",
      "type": "error"
    },
    {
      "inputs": [
        {
          "internalType": "uint256",
          "name": "prod1",
          "type": "uint256"
        },
        {
          "internalType": "uint256",
          "name": "denominator",
          "type": "uint256"
        }
      ],
      "name": "PRBMath__MulDivOverflow",
      "type": "error"
    },
    {
      "anonymous": false,
      "inputs": [
        {
          "indexed": true,
          "internalType": "uint256",
          "name": "projectId",
          "type": "uint256"
        },
        {
          "indexed": false,
          "internalType": "uint256",
          "name": "value",
          "type": "uint256"
        },
        {
          "indexed": false,
          "internalType": "address",
          "name": "caller",
          "type": "address"
        }
      ],
      "name": "AddToBalance",
      "type": "event"
    },
    {
      "anonymous": false,
      "inputs": [
        {
          "indexed": false,
          "internalType": "contract ITerminal",
          "name": "allowed",
          "type": "address"
        }
      ],
      "name": "AllowMigration",
      "type": "event"
    },
    {
      "anonymous": false,
      "inputs": [
        {
          "indexed": true,
          "internalType": "uint256",
          "name": "fundingCycleId",
          "type": "uint256"
        },
        {
          "indexed": true,
          "internalType": "uint256",
          "name": "projectId",
          "type": "uint256"
        },
        {
          "indexed": false,
          "internalType": "address",
          "name": "caller",
          "type": "address"
        }
      ],
      "name": "Configure",
      "type": "event"
    },
    {
      "anonymous": false,
      "inputs": [
        {
          "indexed": false,
          "internalType": "uint256",
          "name": "amount",
          "type": "uint256"
        }
      ],
      "name": "Deposit",
      "type": "event"
    },
    {
      "anonymous": false,
      "inputs": [
        {
          "indexed": true,
          "internalType": "uint256",
          "name": "fundingCycleId",
          "type": "uint256"
        },
        {
          "indexed": true,
          "internalType": "uint256",
          "name": "projectId",
          "type": "uint256"
        },
        {
          "components": [
            {
              "internalType": "bool",
              "name": "preferUnstaked",
              "type": "bool"
            },
            {
              "internalType": "uint16",
              "name": "percent",
              "type": "uint16"
            },
            {
              "internalType": "uint48",
              "name": "lockedUntil",
              "type": "uint48"
            },
            {
              "internalType": "address payable",
              "name": "beneficiary",
              "type": "address"
            },
            {
              "internalType": "contract IModAllocator",
              "name": "allocator",
              "type": "address"
            },
            {
              "internalType": "uint56",
              "name": "projectId",
              "type": "uint56"
            }
          ],
          "indexed": false,
          "internalType": "struct PayoutMod",
          "name": "mod",
          "type": "tuple"
        },
        {
          "indexed": false,
          "internalType": "uint256",
          "name": "modCut",
          "type": "uint256"
        },
        {
          "indexed": false,
          "internalType": "address",
          "name": "caller",
          "type": "address"
        }
      ],
      "name": "DistributeToPayoutMod",
      "type": "event"
    },
    {
      "anonymous": false,
      "inputs": [
        {
          "indexed": true,
          "internalType": "uint256",
          "name": "fundingCycleId",
          "type": "uint256"
        },
        {
          "indexed": true,
          "internalType": "uint256",
          "name": "projectId",
          "type": "uint256"
        },
        {
          "components": [
            {
              "internalType": "bool",
              "name": "preferUnstaked",
              "type": "bool"
            },
            {
              "internalType": "uint16",
              "name": "percent",
              "type": "uint16"
            },
            {
              "internalType": "uint48",
              "name": "lockedUntil",
              "type": "uint48"
            },
            {
              "internalType": "address payable",
              "name": "beneficiary",
              "type": "address"
            }
          ],
          "indexed": false,
          "internalType": "struct TicketMod",
          "name": "mod",
          "type": "tuple"
        },
        {
          "indexed": false,
          "internalType": "uint256",
          "name": "modCut",
          "type": "uint256"
        },
        {
          "indexed": false,
          "internalType": "address",
          "name": "caller",
          "type": "address"
        }
      ],
      "name": "DistributeToTicketMod",
      "type": "event"
    },
    {
      "anonymous": false,
      "inputs": [
        {
          "indexed": false,
          "internalType": "uint256",
          "name": "target",
          "type": "uint256"
        }
      ],
      "name": "EnsureTargetLocalWei",
      "type": "event"
    },
    {
      "anonymous": false,
      "inputs": [
        {
          "indexed": true,
          "internalType": "uint256",
          "name": "projectId",
          "type": "uint256"
        },
        {
          "indexed": true,
          "internalType": "contract ITerminal",
          "name": "to",
          "type": "address"
        },
        {
          "indexed": false,
          "internalType": "uint256",
          "name": "_amount",
          "type": "uint256"
        },
        {
          "indexed": false,
          "internalType": "address",
          "name": "caller",
          "type": "address"
        }
      ],
      "name": "Migrate",
      "type": "event"
    },
    {
      "anonymous": false,
      "inputs": [
        {
          "indexed": true,
          "internalType": "address",
          "name": "previousOwner",
          "type": "address"
        },
        {
          "indexed": true,
          "internalType": "address",
          "name": "newOwner",
          "type": "address"
        }
      ],
      "name": "OwnershipTransferred",
      "type": "event"
    },
    {
      "anonymous": false,
      "inputs": [
        {
          "indexed": true,
          "internalType": "uint256",
          "name": "fundingCycleId",
          "type": "uint256"
        },
        {
          "indexed": true,
          "internalType": "uint256",
          "name": "projectId",
          "type": "uint256"
        },
        {
          "indexed": true,
          "internalType": "address",
          "name": "beneficiary",
          "type": "address"
        },
        {
          "indexed": false,
          "internalType": "uint256",
          "name": "amount",
          "type": "uint256"
        },
        {
          "indexed": false,
          "internalType": "uint256",
          "name": "beneficiaryTokens",
          "type": "uint256"
        },
        {
          "indexed": false,
          "internalType": "uint256",
          "name": "totalTokens",
          "type": "uint256"
        },
        {
          "indexed": false,
          "internalType": "string",
          "name": "note",
          "type": "string"
        },
        {
          "indexed": false,
          "internalType": "address",
          "name": "caller",
          "type": "address"
        }
      ],
      "name": "Pay",
      "type": "event"
    },
    {
      "anonymous": false,
      "inputs": [
        {
          "indexed": true,
          "internalType": "uint256",
          "name": "fundingCycleId",
          "type": "uint256"
        },
        {
          "indexed": true,
          "internalType": "uint256",
          "name": "projectId",
          "type": "uint256"
        },
        {
          "indexed": true,
          "internalType": "address",
          "name": "beneficiary",
          "type": "address"
        },
        {
          "indexed": false,
          "internalType": "uint256",
          "name": "count",
          "type": "uint256"
        },
        {
          "indexed": false,
          "internalType": "uint256",
          "name": "beneficiaryTicketAmount",
          "type": "uint256"
        },
        {
          "indexed": false,
          "internalType": "address",
          "name": "caller",
          "type": "address"
        }
      ],
      "name": "PrintReserveTickets",
      "type": "event"
    },
    {
      "anonymous": false,
      "inputs": [
        {
          "indexed": true,
          "internalType": "uint256",
          "name": "projectId",
          "type": "uint256"
        },
        {
          "indexed": true,
          "internalType": "address",
          "name": "beneficiary",
          "type": "address"
        },
        {
          "indexed": false,
          "internalType": "uint256",
          "name": "amount",
          "type": "uint256"
        },
        {
          "indexed": false,
          "internalType": "string",
          "name": "memo",
          "type": "string"
        },
        {
          "indexed": false,
          "internalType": "address",
          "name": "caller",
          "type": "address"
        }
      ],
      "name": "PrintTickets",
      "type": "event"
    },
    {
      "anonymous": false,
      "inputs": [
        {
          "indexed": true,
          "internalType": "address",
          "name": "holder",
          "type": "address"
        },
        {
          "indexed": true,
          "internalType": "address",
          "name": "beneficiary",
          "type": "address"
        },
        {
          "indexed": true,
          "internalType": "uint256",
          "name": "_projectId",
          "type": "uint256"
        },
        {
          "indexed": false,
          "internalType": "uint256",
          "name": "amount",
          "type": "uint256"
        },
        {
          "indexed": false,
          "internalType": "uint256",
          "name": "returnAmount",
          "type": "uint256"
        },
        {
          "indexed": false,
          "internalType": "address",
          "name": "caller",
          "type": "address"
        }
      ],
      "name": "Redeem",
      "type": "event"
    },
    {
      "anonymous": false,
      "inputs": [
        {
          "indexed": false,
          "internalType": "uint256",
          "name": "_amount",
          "type": "uint256"
        }
      ],
      "name": "SetFee",
      "type": "event"
    },
    {
      "anonymous": false,
      "inputs": [
        {
          "indexed": false,
          "internalType": "uint256",
          "name": "amount",
          "type": "uint256"
        }
      ],
      "name": "SetTargetLocalWei",
      "type": "event"
    },
    {
      "anonymous": false,
      "inputs": [
        {
          "indexed": false,
          "internalType": "contract IYielder",
          "name": "newYielder",
          "type": "address"
        }
      ],
      "name": "SetYielder",
      "type": "event"
    },
    {
      "anonymous": false,
      "inputs": [
        {
          "indexed": true,
          "internalType": "uint256",
          "name": "fundingCycleId",
          "type": "uint256"
        },
        {
          "indexed": true,
          "internalType": "uint256",
          "name": "projectId",
          "type": "uint256"
        },
        {
          "indexed": true,
          "internalType": "address",
          "name": "beneficiary",
          "type": "address"
        },
        {
          "indexed": false,
          "internalType": "uint256",
          "name": "amount",
          "type": "uint256"
        },
        {
          "indexed": false,
          "internalType": "uint256",
          "name": "currency",
          "type": "uint256"
        },
        {
          "indexed": false,
          "internalType": "uint256",
          "name": "netTransferAmount",
          "type": "uint256"
        },
        {
          "indexed": false,
          "internalType": "uint256",
          "name": "beneficiaryTransferAmount",
          "type": "uint256"
        },
        {
          "indexed": false,
          "internalType": "uint256",
          "name": "govFeeAmount",
          "type": "uint256"
        },
        {
          "indexed": false,
          "internalType": "address",
          "name": "caller",
          "type": "address"
        }
      ],
      "name": "Tap",
      "type": "event"
    },
    {
      "inputs": [
        {
          "internalType": "uint256",
          "name": "_projectId",
          "type": "uint256"
        }
      ],
      "name": "addToBalance",
      "outputs": [],
      "stateMutability": "payable",
      "type": "function"
    },
    {
      "inputs": [
        {
          "internalType": "contract ITerminal",
          "name": "_contract",
          "type": "address"
        }
      ],
      "name": "allowMigration",
      "outputs": [],
      "stateMutability": "nonpayable",
      "type": "function"
    },
    {
      "inputs": [
        {
          "internalType": "uint256",
          "name": "",
          "type": "uint256"
        }
      ],
      "name": "balanceOf",
      "outputs": [
        {
          "internalType": "uint256",
          "name": "",
          "type": "uint256"
        }
      ],
      "stateMutability": "view",
      "type": "function"
    },
    {
      "inputs": [
        {
          "internalType": "uint256",
          "name": "_projectId",
          "type": "uint256"
        }
      ],
      "name": "burnFromDeadAddress",
      "outputs": [],
      "stateMutability": "nonpayable",
      "type": "function"
    },
    {
      "inputs": [
        {
          "internalType": "address",
          "name": "_account",
          "type": "address"
        },
        {
          "internalType": "uint256",
          "name": "_projectId",
          "type": "uint256"
        },
        {
          "internalType": "uint256",
          "name": "_count",
          "type": "uint256"
        }
      ],
      "name": "claimableOverflowOf",
      "outputs": [
        {
          "internalType": "uint256",
          "name": "_claimableOverflow",
          "type": "uint256"
        }
      ],
      "stateMutability": "view",
      "type": "function"
    },
    {
      "inputs": [
        {
          "internalType": "uint256",
          "name": "_projectId",
          "type": "uint256"
        },
        {
          "components": [
            {
              "internalType": "uint256",
              "name": "target",
              "type": "uint256"
            },
            {
              "internalType": "uint256",
              "name": "currency",
              "type": "uint256"
            },
            {
              "internalType": "uint256",
              "name": "duration",
              "type": "uint256"
            },
            {
              "internalType": "uint256",
              "name": "cycleLimit",
              "type": "uint256"
            },
            {
              "internalType": "uint256",
              "name": "discountRate",
              "type": "uint256"
            },
            {
              "internalType": "contract IFundingCycleBallot",
              "name": "ballot",
              "type": "address"
            }
          ],
          "internalType": "struct FundingCycleProperties",
          "name": "_properties",
          "type": "tuple"
        },
        {
          "components": [
            {
              "internalType": "uint256",
              "name": "reservedRate",
              "type": "uint256"
            },
            {
              "internalType": "uint256",
              "name": "bondingCurveRate",
              "type": "uint256"
            },
            {
              "internalType": "uint256",
              "name": "reconfigurationBondingCurveRate",
              "type": "uint256"
            },
            {
              "internalType": "bool",
              "name": "payIsPaused",
              "type": "bool"
            },
            {
              "internalType": "bool",
              "name": "ticketPrintingIsAllowed",
              "type": "bool"
            },
            {
              "internalType": "contract ITreasuryExtension",
              "name": "treasuryExtension",
              "type": "address"
            }
          ],
          "internalType": "struct FundingCycleMetadata2",
          "name": "_metadata",
          "type": "tuple"
        },
        {
          "components": [
            {
              "internalType": "bool",
              "name": "preferUnstaked",
              "type": "bool"
            },
            {
              "internalType": "uint16",
              "name": "percent",
              "type": "uint16"
            },
            {
              "internalType": "uint48",
              "name": "lockedUntil",
              "type": "uint48"
            },
            {
              "internalType": "address payable",
              "name": "beneficiary",
              "type": "address"
            },
            {
              "internalType": "contract IModAllocator",
              "name": "allocator",
              "type": "address"
            },
            {
              "internalType": "uint56",
              "name": "projectId",
              "type": "uint56"
            }
          ],
          "internalType": "struct PayoutMod[]",
          "name": "_payoutMods",
          "type": "tuple[]"
        },
        {
          "components": [
            {
              "internalType": "bool",
              "name": "preferUnstaked",
              "type": "bool"
            },
            {
              "internalType": "uint16",
              "name": "percent",
              "type": "uint16"
            },
            {
              "internalType": "uint48",
              "name": "lockedUntil",
              "type": "uint48"
            },
            {
              "internalType": "address payable",
              "name": "beneficiary",
              "type": "address"
            }
          ],
          "internalType": "struct TicketMod[]",
          "name": "_ticketMods",
          "type": "tuple[]"
        }
      ],
      "name": "configure",
      "outputs": [
        {
          "internalType": "uint256",
          "name": "",
          "type": "uint256"
        }
      ],
      "stateMutability": "nonpayable",
      "type": "function"
    },
    {
      "inputs": [
        {
          "internalType": "uint256",
          "name": "_projectId",
          "type": "uint256"
        }
      ],
      "name": "currentOverflowOf",
      "outputs": [
        {
          "internalType": "uint256",
          "name": "overflow",
          "type": "uint256"
        }
      ],
      "stateMutability": "view",
      "type": "function"
    },
    {
      "inputs": [
        {
          "internalType": "address",
          "name": "_owner",
          "type": "address"
        },
        {
          "internalType": "bytes32",
          "name": "_handle",
          "type": "bytes32"
        },
        {
          "internalType": "string",
          "name": "_uri",
          "type": "string"
        },
        {
          "components": [
            {
              "internalType": "uint256",
              "name": "target",
              "type": "uint256"
            },
            {
              "internalType": "uint256",
              "name": "currency",
              "type": "uint256"
            },
            {
              "internalType": "uint256",
              "name": "duration",
              "type": "uint256"
            },
            {
              "internalType": "uint256",
              "name": "cycleLimit",
              "type": "uint256"
            },
            {
              "internalType": "uint256",
              "name": "discountRate",
              "type": "uint256"
            },
            {
              "internalType": "contract IFundingCycleBallot",
              "name": "ballot",
              "type": "address"
            }
          ],
          "internalType": "struct FundingCycleProperties",
          "name": "_properties",
          "type": "tuple"
        },
        {
          "components": [
            {
              "internalType": "uint256",
              "name": "reservedRate",
              "type": "uint256"
            },
            {
              "internalType": "uint256",
              "name": "bondingCurveRate",
              "type": "uint256"
            },
            {
              "internalType": "uint256",
              "name": "reconfigurationBondingCurveRate",
              "type": "uint256"
            },
            {
              "internalType": "bool",
              "name": "payIsPaused",
              "type": "bool"
            },
            {
              "internalType": "bool",
              "name": "ticketPrintingIsAllowed",
              "type": "bool"
            },
            {
              "internalType": "contract ITreasuryExtension",
              "name": "treasuryExtension",
              "type": "address"
            }
          ],
          "internalType": "struct FundingCycleMetadata2",
          "name": "_metadata",
          "type": "tuple"
        },
        {
          "components": [
            {
              "internalType": "bool",
              "name": "preferUnstaked",
              "type": "bool"
            },
            {
              "internalType": "uint16",
              "name": "percent",
              "type": "uint16"
            },
            {
              "internalType": "uint48",
              "name": "lockedUntil",
              "type": "uint48"
            },
            {
              "internalType": "address payable",
              "name": "beneficiary",
              "type": "address"
            },
            {
              "internalType": "contract IModAllocator",
              "name": "allocator",
              "type": "address"
            },
            {
              "internalType": "uint56",
              "name": "projectId",
              "type": "uint56"
            }
          ],
          "internalType": "struct PayoutMod[]",
          "name": "_payoutMods",
          "type": "tuple[]"
        },
        {
          "components": [
            {
              "internalType": "bool",
              "name": "preferUnstaked",
              "type": "bool"
            },
            {
              "internalType": "uint16",
              "name": "percent",
              "type": "uint16"
            },
            {
              "internalType": "uint48",
              "name": "lockedUntil",
              "type": "uint48"
            },
            {
              "internalType": "address payable",
              "name": "beneficiary",
              "type": "address"
            }
          ],
          "internalType": "struct TicketMod[]",
          "name": "_ticketMods",
          "type": "tuple[]"
        }
      ],
      "name": "deploy",
      "outputs": [],
      "stateMutability": "nonpayable",
      "type": "function"
    },
    {
      "inputs": [],
      "name": "fee",
      "outputs": [
        {
          "internalType": "uint256",
          "name": "",
          "type": "uint256"
        }
      ],
      "stateMutability": "view",
      "type": "function"
    },
    {
      "inputs": [],
      "name": "fundingCycles",
      "outputs": [
        {
          "internalType": "contract IFundingCycles",
          "name": "",
          "type": "address"
        }
      ],
      "stateMutability": "view",
      "type": "function"
    },
    {
      "inputs": [
        {
          "internalType": "uint256",
          "name": "_projectId",
          "type": "uint256"
        },
        {
          "internalType": "contract ITerminal",
          "name": "_to",
          "type": "address"
        }
      ],
      "name": "migrate",
      "outputs": [],
      "stateMutability": "nonpayable",
      "type": "function"
    },
    {
      "inputs": [
        {
          "internalType": "contract ITerminal",
          "name": "",
          "type": "address"
        }
      ],
      "name": "migrationIsAllowed",
      "outputs": [
        {
          "internalType": "bool",
          "name": "",
          "type": "bool"
        }
      ],
      "stateMutability": "view",
      "type": "function"
    },
    {
      "inputs": [],
      "name": "modStore",
      "outputs": [
        {
          "internalType": "contract IModStore",
          "name": "",
          "type": "address"
        }
      ],
      "stateMutability": "view",
      "type": "function"
    },
    {
      "inputs": [],
      "name": "operatorStore",
      "outputs": [
        {
          "internalType": "contract IOperatorStore",
          "name": "",
          "type": "address"
        }
      ],
      "stateMutability": "view",
      "type": "function"
    },
    {
      "inputs": [],
      "name": "owner",
      "outputs": [
        {
          "internalType": "address",
          "name": "",
          "type": "address"
        }
      ],
      "stateMutability": "view",
      "type": "function"
    },
    {
      "inputs": [
        {
          "internalType": "uint256",
          "name": "_projectId",
          "type": "uint256"
        },
        {
          "internalType": "address",
          "name": "_beneficiary",
          "type": "address"
        },
        {
          "internalType": "string",
          "name": "_memo",
          "type": "string"
        },
        {
          "internalType": "bool",
          "name": "_preferUnstakedTickets",
          "type": "bool"
        }
      ],
      "name": "pay",
      "outputs": [
        {
          "internalType": "uint256",
          "name": "",
          "type": "uint256"
        }
      ],
      "stateMutability": "payable",
      "type": "function"
    },
    {
      "inputs": [],
      "name": "prices",
      "outputs": [
        {
          "internalType": "contract IPrices",
          "name": "",
          "type": "address"
        }
      ],
      "stateMutability": "view",
      "type": "function"
    },
    {
      "inputs": [
        {
          "internalType": "uint256",
          "name": "_projectId",
          "type": "uint256"
        }
      ],
      "name": "printReservedTickets",
      "outputs": [
        {
          "internalType": "uint256",
          "name": "amount",
          "type": "uint256"
        }
      ],
      "stateMutability": "nonpayable",
      "type": "function"
    },
    {
      "inputs": [
        {
          "internalType": "uint256",
          "name": "_projectId",
          "type": "uint256"
        },
        {
          "internalType": "uint256",
          "name": "_amount",
          "type": "uint256"
        },
        {
          "internalType": "address",
          "name": "_beneficiary",
          "type": "address"
        },
        {
          "internalType": "string",
          "name": "_memo",
          "type": "string"
        },
        {
          "internalType": "bool",
          "name": "_preferUnstakedTickets",
          "type": "bool"
        }
      ],
      "name": "printTickets",
      "outputs": [],
      "stateMutability": "nonpayable",
      "type": "function"
    },
    {
      "inputs": [],
      "name": "projects",
      "outputs": [
        {
          "internalType": "contract IProjects",
          "name": "",
          "type": "address"
        }
      ],
      "stateMutability": "view",
      "type": "function"
    },
    {
      "inputs": [
        {
          "internalType": "address",
          "name": "_account",
          "type": "address"
        },
        {
          "internalType": "uint256",
          "name": "_projectId",
          "type": "uint256"
        },
        {
          "internalType": "uint256",
          "name": "_count",
          "type": "uint256"
        },
        {
          "internalType": "uint256",
          "name": "_minReturnedWei",
          "type": "uint256"
        },
        {
          "internalType": "address payable",
          "name": "_beneficiary",
          "type": "address"
        },
        {
          "internalType": "bool",
          "name": "_preferUnstaked",
          "type": "bool"
        }
      ],
      "name": "redeem",
      "outputs": [
        {
          "internalType": "uint256",
          "name": "amount",
          "type": "uint256"
        }
      ],
      "stateMutability": "nonpayable",
      "type": "function"
    },
    {
      "inputs": [],
      "name": "renounceOwnership",
      "outputs": [],
      "stateMutability": "nonpayable",
      "type": "function"
    },
    {
      "inputs": [
        {
          "internalType": "uint256",
          "name": "_projectId",
          "type": "uint256"
        },
        {
          "internalType": "uint256",
          "name": "_reservedRate",
          "type": "uint256"
        }
      ],
      "name": "reservedTicketBalanceOf",
      "outputs": [
        {
          "internalType": "uint256",
          "name": "",
          "type": "uint256"
        }
      ],
      "stateMutability": "view",
      "type": "function"
    },
    {
      "inputs": [
        {
          "internalType": "uint256",
          "name": "_fee",
          "type": "uint256"
        }
      ],
      "name": "setFee",
      "outputs": [],
      "stateMutability": "nonpayable",
      "type": "function"
    },
    {
      "inputs": [
        {
          "internalType": "uint256",
          "name": "_projectId",
          "type": "uint256"
        },
        {
          "internalType": "uint256",
          "name": "_amount",
          "type": "uint256"
        },
        {
          "internalType": "uint256",
          "name": "_currency",
          "type": "uint256"
        },
        {
          "internalType": "uint256",
          "name": "_minReturnedWei",
          "type": "uint256"
        }
      ],
      "name": "tap",
      "outputs": [
        {
          "internalType": "uint256",
          "name": "",
          "type": "uint256"
        }
      ],
      "stateMutability": "nonpayable",
      "type": "function"
    },
    {
      "inputs": [],
      "name": "terminalDirectory",
      "outputs": [
        {
          "internalType": "contract ITerminalDirectory",
          "name": "",
          "type": "address"
        }
      ],
      "stateMutability": "view",
      "type": "function"
    },
    {
      "inputs": [],
      "name": "ticketBooth",
      "outputs": [
        {
          "internalType": "contract ITicketBooth",
          "name": "",
          "type": "address"
        }
      ],
      "stateMutability": "view",
      "type": "function"
    },
    {
      "inputs": [
        {
          "internalType": "address",
          "name": "newOwner",
          "type": "address"
        }
      ],
      "name": "transferOwnership",
      "outputs": [],
      "stateMutability": "nonpayable",
      "type": "function"
    }
  ],
  "bytecode": {
    "object": "0x610160604052600a6004553480156200001757600080fd5b5060405162006c3638038062006c368339810160408190526200003a91620002bd565b606085901b6001600160601b03191660805260016000556200005c336200018e565b6001600160a01b038816158015906200007d57506001600160a01b03871615155b80156200009257506001600160a01b03861615155b8015620000a757506001600160a01b03841615155b8015620000bc57506001600160a01b03831615155b8015620000d157506001600160a01b03821615155b8015620000e657506001600160a01b03811615155b620001385760405162461bcd60e51b815260206004820152601860248201527f5465726d696e616c56313a205a45524f5f41444452455353000000000000000060448201526064015b60405180910390fd5b6001600160601b0319606089811b821660a05288811b821660c05287811b821660e05285811b82166101005284811b82166101205283901b16610140526200018081620001e0565b505050505050505062000394565b600180546001600160a01b038381166001600160a01b0319831681179093556040519116919082907f8be0079c531659141344cd1fd0a4f28419497f9722a3daafe3b4186f6b6457e090600090a35050565b620001ea6200025f565b6001600160a01b038116620002515760405162461bcd60e51b815260206004820152602660248201527f4f776e61626c653a206e6577206f776e657220697320746865207a65726f206160448201526564647265737360d01b60648201526084016200012f565b6200025c816200018e565b50565b6001546001600160a01b03163314620002bb5760405162461bcd60e51b815260206004820181905260248201527f4f776e61626c653a2063616c6c6572206973206e6f7420746865206f776e657260448201526064016200012f565b565b600080600080600080600080610100898b031215620002db57600080fd5b8851620002e8816200037e565b60208a0151909850620002fb816200037e565b60408a01519097506200030e816200037e565b60608a015190965062000321816200037e565b60808a015190955062000334816200037e565b60a08a015190945062000347816200037e565b60c08a01519093506200035a816200037e565b60e08a01519092506200036d816200037e565b809150509295985092959890939650565b6001600160a01b03811681146200025c57600080fd5b60805160601c60a05160601c60c05160601c60e05160601c6101005160601c6101205160601c6101405160601c6166db6200055b600039600081816102d601528181611fd30152818161231e015281816125490152818161412d0152818161420a015261466e015260008181610573015281816108e20152614a5e0152600081816104ab01528181611c4201528181611cf5015281816138b0015281816139630152818161443a01526150b201526000818161042a01528181610dd5015281816110d2015281816117de015281816121880152818161260d0152818161275e01528181612d6801528181612e5b01528181612f9a01528181613117015281816133e701528181613e4601526152150152600081816103440152818161078901528181610f0e0152818161120801528181611b4101528181612ae901528181613058015281816134f3015281816137af01528181613adc0152613be901526000818161038b01528181610ab401528181610b8d01528181611a8a01528181611d9b0152818161282a0152818161330b01526135ab0152600081816104df015281816113ce015281816114a701528181611ea50152818161293401526136b501526166db6000f3fe6080604052600436106101b75760003560e01c806392ad35f3116100ec578063af82d3be1161008a578063ddca3f4311610064578063ddca3f4314610595578063ddfd414a146105ab578063e0f793db146105cb578063f2fde38b146105eb57600080fd5b8063af82d3be14610501578063b9f1109114610521578063d3419bf31461056157600080fd5b80639c0eee02116100c65780639c0eee021461044c5780639cc7f7081461046c578063a7c3cca114610499578063ad007d63146104cd57600080fd5b806392ad35f3146103d85780639713eea6146103f85780639b602d601461041857600080fd5b806369fe0e2d11610159578063882af66711610133578063882af667146103325780638a19e355146103665780638b79543c146103795780638da5cb5b146103ad57600080fd5b806369fe0e2d146102a45780636abcf8e3146102c4578063715018a61461031d57600080fd5b80633015a5b5116101955780633015a5b514610222578063308a20ad146102425780633cc83ca614610264578063405b84fa1461028457600080fd5b806302c8986f146101bc57806308014ddc146101e25780632e9d3b8f14610202575b600080fd5b6101cf6101ca366004615c01565b61060b565b6040519081526020015b60405180910390f35b3480156101ee57600080fd5b506101cf6101fd366004615e45565b610746565b34801561020e57600080fd5b506101cf61021d36600461578b565b610d85565b34801561022e57600080fd5b506101cf61023d3660046157c0565b611348565b34801561024e57600080fd5b5061026261025d36600461567d565b6118ba565b005b34801561027057600080fd5b5061026261027f3660046156b7565b611a6b565b34801561029057600080fd5b5061026261029f366004615c75565b611d6c565b3480156102b057600080fd5b506102626102bf366004615be8565b6123de565b3480156102d057600080fd5b506102f87f000000000000000000000000000000000000000000000000000000000000000081565b60405173ffffffffffffffffffffffffffffffffffffffff90911681526020016101d9565b34801561032957600080fd5b50610262612485565b34801561033e57600080fd5b506102f87f000000000000000000000000000000000000000000000000000000000000000081565b610262610374366004615be8565b612499565b34801561038557600080fd5b506102f87f000000000000000000000000000000000000000000000000000000000000000081565b3480156103b957600080fd5b5060015473ffffffffffffffffffffffffffffffffffffffff166102f8565b3480156103e457600080fd5b506101cf6103f3366004615d39565b612719565b34801561040457600080fd5b50610262610413366004615d5b565b6127fb565b34801561042457600080fd5b506102f87f000000000000000000000000000000000000000000000000000000000000000081565b34801561045857600080fd5b50610262610467366004615be8565b612e22565b34801561047857600080fd5b506101cf610487366004615be8565b60036020526000908152604090205481565b3480156104a557600080fd5b506102f87f000000000000000000000000000000000000000000000000000000000000000081565b3480156104d957600080fd5b506102f87f000000000000000000000000000000000000000000000000000000000000000081565b34801561050d57600080fd5b506101cf61051c366004615be8565b61300f565b34801561052d57600080fd5b5061055161053c36600461567d565b60056020526000908152604090205460ff1681565b60405190151581526020016101d9565b34801561056d57600080fd5b506102f87f000000000000000000000000000000000000000000000000000000000000000081565b3480156105a157600080fd5b506101cf60045481565b3480156105b757600080fd5b506101cf6105c6366004615be8565b6134aa565b3480156105d757600080fd5b506101cf6105e6366004615ca5565b613579565b3480156105f757600080fd5b5061026261060636600461567d565b6139dc565b600080341161067b576040517f08c379a000000000000000000000000000000000000000000000000000000000815260206004820152601660248201527f5456315f313a3a7061793a204241445f414d4f554e540000000000000000000060448201526064015b60405180910390fd5b73ffffffffffffffffffffffffffffffffffffffff85166106f8576040517f08c379a000000000000000000000000000000000000000000000000000000000815260206004820152601860248201527f5456315f313a3a7061793a205a45524f5f4144445245535300000000000000006044820152606401610672565b61073c86348787878080601f016020809104026020016040519081016040528093929190818152602001838380828437600092019190915250899250613a93915050565b9695505050505050565b600061075061402e565b6040517f1ee2c9bf00000000000000000000000000000000000000000000000000000000815260048101869052602481018590526000907f000000000000000000000000000000000000000000000000000000000000000073ffffffffffffffffffffffffffffffffffffffff1690631ee2c9bf9060440161020060405180830381600087803b1580156107e357600080fd5b505af11580156107f7573d6000803e3d6000fd5b505050506040513d601f19601f8201168201806040525081019061081b9190615b1b565b805190915061082e576000915050610d73565b806101600151841461089c576040517f08c379a000000000000000000000000000000000000000000000000000000000815260206004820152601f60248201527f5456315f313a3a7461703a20554e45585045435445445f43555252454e4359006044820152606401610672565b6101608101516040517f9fa9372300000000000000000000000000000000000000000000000000000000815260009173ffffffffffffffffffffffffffffffffffffffff7f00000000000000000000000000000000000000000000000000000000000000001691639fa93723916109199160040190815260200190565b60206040518083038186803b15801561093157600080fd5b505afa158015610945573d6000803e3d6000fd5b505050506040513d601f19601f820116820180604052508101906109699190615a4f565b9050600061097787836140a2565b9050808511156109e3576040517f08c379a000000000000000000000000000000000000000000000000000000000815260206004820152601660248201527f5456315f313a3a7461703a20494e4144455155415445000000000000000000006044820152606401610672565b60208084015160009081526003909152604090205480821115610a62576040517f08c379a000000000000000000000000000000000000000000000000000000000815260206004820152601e60248201527f5456315f313a3a7461703a20494e53554646494349454e545f46554e445300006044820152606401610672565b610a6c82826164c8565b60008a81526003602090815260408083209390935586015191517f6352211e0000000000000000000000000000000000000000000000000000000081526004810192909252907f000000000000000000000000000000000000000000000000000000000000000073ffffffffffffffffffffffffffffffffffffffff1690636352211e9060240160206040518083038186803b158015610b0b57600080fd5b505afa158015610b1f573d6000803e3d6000fd5b505050506040513d601f19601f82011682018060405250810190610b43919061569a565b6040517f49491987000000000000000000000000000000000000000000000000000000008152600481018c905290915060009073ffffffffffffffffffffffffffffffffffffffff7f00000000000000000000000000000000000000000000000000000000000000001690634949198790602401602060405180830381600087803b158015610bd157600080fd5b505af1158015610be5573d6000803e3d6000fd5b505050506040513d601f19601f82011682018060405250810190610c099190615a4f565b905060008087610180015111610c20576000610c75565b6101808701516040517f4665652066726f6d2040000000000000000000000000000000000000000000006020820152602a8101849052610c759187918690604a016040516020818303038152906040526140b7565b90506000610cce88610c8784896164c8565b6040517f5061796f75742066726f6d2040000000000000000000000000000000000000006020820152602d8101879052604d016040516020818303038152906040526143f6565b90508015610ce057610ce084826148fa565b8373ffffffffffffffffffffffffffffffffffffffff16886020015189600001517fe7f36a5ce6404ca99aa79e20649f15a86eed188b6362c51d0302ba182b7af3b88f8c6101600151878c610d3591906164c8565b6040805193845260208401929092529082015260608101869052608081018790523360a082015260c00160405180910390a450509451955050505050505b610d7d6001600055565b949350505050565b6040517efdd58e00000000000000000000000000000000000000000000000000000000815273ffffffffffffffffffffffffffffffffffffffff84811660048301526024820184905260009183917f0000000000000000000000000000000000000000000000000000000000000000169062fdd58e9060440160206040518083038186803b158015610e1657600080fd5b505afa158015610e2a573d6000803e3d6000fd5b505050506040513d601f19601f82011682018060405250810190610e4e9190615a4f565b1015610edc576040517f08c379a000000000000000000000000000000000000000000000000000000000815260206004820152602e60248201527f5456315f313a3a636c61696d61626c654f766572666c6f773a20494e5355464660448201527f494349454e545f5449434b4554530000000000000000000000000000000000006064820152608401610672565b6040517f43a266c2000000000000000000000000000000000000000000000000000000008152600481018490526000907f000000000000000000000000000000000000000000000000000000000000000073ffffffffffffffffffffffffffffffffffffffff16906343a266c2906024016102006040518083038186803b158015610f6657600080fd5b505afa158015610f7a573d6000803e3d6000fd5b505050506040513d601f19601f82011682018060405250810190610f9e9190615b1b565b9050806040015160001415610fb7576000915050611341565b6000610fc282614a59565b905080925060006022836101e00151901c73ffffffffffffffffffffffffffffffffffffffff161115611090576022826101e00151901c73ffffffffffffffffffffffffffffffffffffffff1663b37961da866040518263ffffffff1660e01b815260040161103391815260200190565b60206040518083038186803b15801561104b57600080fd5b505afa15801561105f573d6000803e3d6000fd5b505050506040513d601f19601f820116820180604052508101906110839190615a4f565b61108d908461643c565b92505b826110a057600092505050611341565b6040517f75b0d9cd000000000000000000000000000000000000000000000000000000008152600481018690526000907f000000000000000000000000000000000000000000000000000000000000000073ffffffffffffffffffffffffffffffffffffffff16906375b0d9cd9060240160206040518083038186803b15801561112957600080fd5b505afa15801561113d573d6000803e3d6000fd5b505050506040513d601f19601f820116820180604052508101906111619190615a4f565b9050600061118f60026000898152602001908152602001600020546008866101e00151901c60ff1684614b7c565b905080156111a4576111a1818361643c565b91505b818614156111c6578285116111b957846111bb565b825b945050505050611341565b60006111d3868885614bef565b9050600060016040517fc55f571c000000000000000000000000000000000000000000000000000000008152600481018b90527f000000000000000000000000000000000000000000000000000000000000000073ffffffffffffffffffffffffffffffffffffffff169063c55f571c9060240160206040518083038186803b15801561125f57600080fd5b505afa158015611273573d6000803e3d6000fd5b505050506040513d601f19601f820116820180604052508101906112979190615a68565b60038111156112a8576112a86165af565b146112bf576010866101e00151901c60ff166112cd565b6018866101e00151901c60ff165b90508060c814156112e057819650611324565b806112f7576112f0828986614bef565b9650611324565b611321826113108a61130a8560c86164c8565b88614bef565b61131a908461643c565b60c8614bef565b96505b8487111561133a57849650505050505050611341565b5050505050505b9392505050565b600061135261402e565b868660033373ffffffffffffffffffffffffffffffffffffffff8416148061144857506040517fc161c93f00000000000000000000000000000000000000000000000000000000815233600482015273ffffffffffffffffffffffffffffffffffffffff848116602483015260448201849052606482018390527f0000000000000000000000000000000000000000000000000000000000000000169063c161c93f9060840160206040518083038186803b15801561141057600080fd5b505afa158015611424573d6000803e3d6000fd5b505050506040513d601f19601f820116820180604052508101906114489190615a32565b8061152157506040517fc161c93f00000000000000000000000000000000000000000000000000000000815233600482015273ffffffffffffffffffffffffffffffffffffffff848116602483015260006044830152606482018390527f0000000000000000000000000000000000000000000000000000000000000000169063c161c93f9060840160206040518083038186803b1580156114e957600080fd5b505afa1580156114fd573d6000803e3d6000fd5b505050506040513d601f19601f820116820180604052508101906115219190615a32565b611587576040517f08c379a000000000000000000000000000000000000000000000000000000000815260206004820152601860248201527f4f706572617461626c653a20554e415554484f52495a454400000000000000006044820152606401610672565b600088116115f1576040517f08c379a000000000000000000000000000000000000000000000000000000000815260206004820152601460248201527f5456315f313a3a72656465656d3a204e4f5f4f500000000000000000000000006044820152606401610672565b73ffffffffffffffffffffffffffffffffffffffff861661166e576040517f08c379a000000000000000000000000000000000000000000000000000000000815260206004820152601b60248201527f5456315f313a3a72656465656d3a205a45524f5f4144445245535300000000006044820152606401610672565b6116798a8a8a610d85565b9350868410156116e5576040517f08c379a000000000000000000000000000000000000000000000000000000000815260206004820152601960248201527f5456315f313a3a72656465656d3a20494e4144455155415445000000000000006044820152606401610672565b8315611715576000898152600360205260409020546117059085906164c8565b60008a8152600360205260409020555b600089815260026020526040812054908112611754578881126117415761173c8982616454565b611771565b61174b818a616454565b61173c90616518565b8861175e82616518565b611768919061643c565b61177190616518565b60008b8152600260205260409081902091909155517f65e0d73100000000000000000000000000000000000000000000000000000000815273ffffffffffffffffffffffffffffffffffffffff8c81166004830152602482018c9052604482018b905287151560648301527f000000000000000000000000000000000000000000000000000000000000000016906365e0d73190608401600060405180830381600087803b15801561182257600080fd5b505af1158015611836573d6000803e3d6000fd5b50505050600085111561184d5761184d87866148fa565b604080518a815260208101879052338183015290518b9173ffffffffffffffffffffffffffffffffffffffff8a811692908f16917f78ce282a3b64e54349642ee14253bf3ca2a4c69b6e479d57d196027f1d0a514e919081900360600190a45050505061073c6001600055565b6118c2614cf4565b73ffffffffffffffffffffffffffffffffffffffff8116611965576040517f08c379a000000000000000000000000000000000000000000000000000000000815260206004820152602360248201527f5456315f313a3a616c6c6f774d6967726174696f6e3a205a45524f5f4144445260448201527f45535300000000000000000000000000000000000000000000000000000000006064820152608401610672565b73ffffffffffffffffffffffffffffffffffffffff81163014156119e5576040517f08c379a000000000000000000000000000000000000000000000000000000000815260206004820152601c60248201527f5456315f313a3a616c6c6f774d6967726174696f6e3a204e4f5f4f50000000006044820152606401610672565b73ffffffffffffffffffffffffffffffffffffffff811660008181526005602090815260409182902080547fffffffffffffffffffffffffffffffffffffffffffffffffffffffffffffff0016600117905590519182527fdbee026e3c3dc50322e5f718d6bf90a96cefdc9e2bfa693436d0e1ddf600d1cc91015b60405180910390a150565b6000611a84611a7f36869003860186615a89565b614d75565b905060007f000000000000000000000000000000000000000000000000000000000000000073ffffffffffffffffffffffffffffffffffffffff166317753c468b8b8b8b306040518663ffffffff1660e01b8152600401611ae9959493929190615ee2565b602060405180830381600087803b158015611b0357600080fd5b505af1158015611b17573d6000803e3d6000fd5b505050506040513d601f19601f82011682018060405250810190611b3b9190615a4f565b905060007f000000000000000000000000000000000000000000000000000000000000000073ffffffffffffffffffffffffffffffffffffffff16638a1b0eb483898660045460016040518663ffffffff1660e01b8152600401611ba3959493929190616089565b61020060405180830381600087803b158015611bbe57600080fd5b505af1158015611bd2573d6000803e3d6000fd5b505050506040513d601f19601f82011682018060405250810190611bf69190615b1b565b855190915015611cac5760808101516040517fa67e210a00000000000000000000000000000000000000000000000000000000815273ffffffffffffffffffffffffffffffffffffffff7f0000000000000000000000000000000000000000000000000000000000000000169163a67e210a91611c799186918a9060040161610d565b600060405180830381600087803b158015611c9357600080fd5b505af1158015611ca7573d6000803e3d6000fd5b505050505b835115611d5f5760808101516040517febe352a400000000000000000000000000000000000000000000000000000000815273ffffffffffffffffffffffffffffffffffffffff7f0000000000000000000000000000000000000000000000000000000000000000169163ebe352a491611d2c91869189906004016161c6565b600060405180830381600087803b158015611d4657600080fd5b505af1158015611d5a573d6000803e3d6000fd5b505050505b5050505050505050505050565b6040517f6352211e000000000000000000000000000000000000000000000000000000008152600481018390527f000000000000000000000000000000000000000000000000000000000000000073ffffffffffffffffffffffffffffffffffffffff1690636352211e9060240160206040518083038186803b158015611df257600080fd5b505afa158015611e06573d6000803e3d6000fd5b505050506040513d601f19601f82011682018060405250810190611e2a919061569a565b8260043373ffffffffffffffffffffffffffffffffffffffff84161480611f1f57506040517fc161c93f00000000000000000000000000000000000000000000000000000000815233600482015273ffffffffffffffffffffffffffffffffffffffff848116602483015260448201849052606482018390527f0000000000000000000000000000000000000000000000000000000000000000169063c161c93f9060840160206040518083038186803b158015611ee757600080fd5b505afa158015611efb573d6000803e3d6000fd5b505050506040513d601f19601f82011682018060405250810190611f1f9190615a32565b611f85576040517f08c379a000000000000000000000000000000000000000000000000000000000815260206004820152601860248201527f4f706572617461626c653a20554e415554484f52495a454400000000000000006044820152606401610672565b611f8d61402e565b6040517f4fe0eced00000000000000000000000000000000000000000000000000000000815260048101869052309073ffffffffffffffffffffffffffffffffffffffff7f00000000000000000000000000000000000000000000000000000000000000001690634fe0eced9060240160206040518083038186803b15801561201557600080fd5b505afa158015612029573d6000803e3d6000fd5b505050506040513d601f19601f8201168201806040525081019061204d919061569a565b73ffffffffffffffffffffffffffffffffffffffff16146120ca576040517f08c379a000000000000000000000000000000000000000000000000000000000815260206004820152601c60248201527f5456315f313a3a6d6967726174653a20554e415554484f52495a4544000000006044820152606401610672565b73ffffffffffffffffffffffffffffffffffffffff841660009081526005602052604090205460ff16612159576040517f08c379a000000000000000000000000000000000000000000000000000000000815260206004820152601b60248201527f5456315f313a3a6d6967726174653a204e4f545f414c4c4f57454400000000006044820152606401610672565b6040517f75b0d9cd000000000000000000000000000000000000000000000000000000008152600481018690527f000000000000000000000000000000000000000000000000000000000000000073ffffffffffffffffffffffffffffffffffffffff16906375b0d9cd9060240160206040518083038186803b1580156121df57600080fd5b505afa1580156121f3573d6000803e3d6000fd5b505050506040513d601f19601f820116820180604052508101906122179190615a4f565b60008681526002602052604090205414612236576122348561300f565b505b6000858152600360205260408120805491905580156122d2576040517f8a19e3550000000000000000000000000000000000000000000000000000000081526004810187905273ffffffffffffffffffffffffffffffffffffffff861690638a19e3559083906024016000604051808303818588803b1580156122b857600080fd5b505af11580156122cc573d6000803e3d6000fd5b50505050505b6040517f9fc9ea470000000000000000000000000000000000000000000000000000000081526004810187905273ffffffffffffffffffffffffffffffffffffffff86811660248301527f00000000000000000000000000000000000000000000000000000000000000001690639fc9ea4790604401600060405180830381600087803b15801561236257600080fd5b505af1158015612376573d6000803e3d6000fd5b50506040805184815233602082015273ffffffffffffffffffffffffffffffffffffffff891693508992507fa7519e5f94697b7f53e97c5eb46a0c730a296ab686ab8fd333835c5f735784eb910160405180910390a3506123d76001600055565b5050505050565b6123e6614cf4565b600a811115612451576040517f08c379a000000000000000000000000000000000000000000000000000000000815260206004820152601660248201527f5456315f313a3a7365744665653a204241445f464545000000000000000000006044820152606401610672565b60048190556040518181527e172ddfc5ae88d08b3de01a5a187667c37a5a53989e8c175055cb6c993792a790602001611a60565b61248d614cf4565b6124976000614ff7565b565b60003411612503576040517f08c379a000000000000000000000000000000000000000000000000000000000815260206004820152601f60248201527f5456315f313a3a616464546f42616c616e63653a204241445f414d4f554e54006044820152606401610672565b6040517f4fe0eced00000000000000000000000000000000000000000000000000000000815260048101829052309073ffffffffffffffffffffffffffffffffffffffff7f00000000000000000000000000000000000000000000000000000000000000001690634fe0eced9060240160206040518083038186803b15801561258b57600080fd5b505afa15801561259f573d6000803e3d6000fd5b505050506040513d601f19601f820116820180604052508101906125c3919061569a565b73ffffffffffffffffffffffffffffffffffffffff16146126ac576040517f75b0d9cd000000000000000000000000000000000000000000000000000000008152600481018290527f000000000000000000000000000000000000000000000000000000000000000073ffffffffffffffffffffffffffffffffffffffff16906375b0d9cd9060240160206040518083038186803b15801561266457600080fd5b505afa158015612678573d6000803e3d6000fd5b505050506040513d601f19601f8201168201806040525081019061269c9190615a4f565b6000828152600260205260409020555b6000818152600360205260409020546126c690349061643c565b600082815260036020908152604091829020929092558051348152339281019290925282917f08534c4f6026a713959f9286d994e8430e6d0fd11045360abf782bacaa288d43910160405180910390a250565b6000828152600260205260408082205490517f75b0d9cd000000000000000000000000000000000000000000000000000000008152600481018590526127f2919084907f000000000000000000000000000000000000000000000000000000000000000073ffffffffffffffffffffffffffffffffffffffff16906375b0d9cd9060240160206040518083038186803b1580156127b557600080fd5b505afa1580156127c9573d6000803e3d6000fd5b505050506040513d601f19601f820116820180604052508101906127ed9190615a4f565b614b7c565b90505b92915050565b6040517f6352211e000000000000000000000000000000000000000000000000000000008152600481018690527f000000000000000000000000000000000000000000000000000000000000000073ffffffffffffffffffffffffffffffffffffffff1690636352211e9060240160206040518083038186803b15801561288157600080fd5b505afa158015612895573d6000803e3d6000fd5b505050506040513d601f19601f820116820180604052508101906128b9919061569a565b8560113373ffffffffffffffffffffffffffffffffffffffff841614806129ae57506040517fc161c93f00000000000000000000000000000000000000000000000000000000815233600482015273ffffffffffffffffffffffffffffffffffffffff848116602483015260448201849052606482018390527f0000000000000000000000000000000000000000000000000000000000000000169063c161c93f9060840160206040518083038186803b15801561297657600080fd5b505afa15801561298a573d6000803e3d6000fd5b505050506040513d601f19601f820116820180604052508101906129ae9190615a32565b612a14576040517f08c379a000000000000000000000000000000000000000000000000000000000815260206004820152601860248201527f4f706572617461626c653a20554e415554484f52495a454400000000000000006044820152606401610672565b73ffffffffffffffffffffffffffffffffffffffff8616612ab7576040517f08c379a000000000000000000000000000000000000000000000000000000000815260206004820152602160248201527f5456315f313a3a7072696e745469636b6574733a205a45524f5f41444452455360448201527f53000000000000000000000000000000000000000000000000000000000000006064820152608401610672565b6040517f43a266c2000000000000000000000000000000000000000000000000000000008152600481018990526000907f000000000000000000000000000000000000000000000000000000000000000073ffffffffffffffffffffffffffffffffffffffff16906343a266c2906024016102006040518083038186803b158015612b4157600080fd5b505afa158015612b55573d6000803e3d6000fd5b505050506040513d601f19601f82011682018060405250810190612b799190615b1b565b9050806040015160001480612b9a57506021816101e00151901c6001166001145b612c00576040517f08c379a000000000000000000000000000000000000000000000000000000000815260206004820181905260248201527f5456315f313a3a7072696e745469636b6574733a204e4f545f414c4c4f5745446044820152606401610672565b6000898152600260205260408120541280612c5557506000898152600260205260409020547f7fffffffffffffffffffffffffffffffffffffffffffffffffffffffffffffff90612c52908a9061643c565b11155b612ce1576040517f08c379a000000000000000000000000000000000000000000000000000000000815260206004820152602660248201527f5456315f313a3a7072696e745469636b6574733a20494e545f4c494d49545f5260448201527f45414348454400000000000000000000000000000000000000000000000000006064820152608401610672565b600089815260026020526040902054612cfb9089906163c8565b60008a8152600260205260409081902091909155517fe0826c8900000000000000000000000000000000000000000000000000000000815273ffffffffffffffffffffffffffffffffffffffff8881166004830152602482018b9052604482018a905286151560648301527f0000000000000000000000000000000000000000000000000000000000000000169063e0826c8990608401600060405180830381600087803b158015612dac57600080fd5b505af1158015612dc0573d6000803e3d6000fd5b505050508673ffffffffffffffffffffffffffffffffffffffff16897fb745c0ba548003047e8dc09b0dbf5eaed8ae262b5fe0221b4439af8cc40199058a8933604051612e0f9392919061604a565b60405180910390a3505050505050505050565b6040517efdd58e00000000000000000000000000000000000000000000000000000000815261dead6004820152602481018290526000907f000000000000000000000000000000000000000000000000000000000000000073ffffffffffffffffffffffffffffffffffffffff169062fdd58e9060440160206040518083038186803b158015612eb157600080fd5b505afa158015612ec5573d6000803e3d6000fd5b505050506040513d601f19601f82011682018060405250810190612ee99190615a4f565b905060008111612f55576040517f08c379a000000000000000000000000000000000000000000000000000000000815260206004820152601460248201527f30783030204e4f5448494e475f544f5f4255524e0000000000000000000000006044820152606401610672565b6040517f65e0d73100000000000000000000000000000000000000000000000000000000815261dead60048201526024810183905260448101829052600160648201527f000000000000000000000000000000000000000000000000000000000000000073ffffffffffffffffffffffffffffffffffffffff16906365e0d73190608401600060405180830381600087803b158015612ff357600080fd5b505af1158015613007573d6000803e3d6000fd5b505050505050565b6040517f43a266c200000000000000000000000000000000000000000000000000000000815260048101829052600090819073ffffffffffffffffffffffffffffffffffffffff7f000000000000000000000000000000000000000000000000000000000000000016906343a266c2906024016102006040518083038186803b15801561309b57600080fd5b505afa1580156130af573d6000803e3d6000fd5b505050506040513d601f19601f820116820180604052508101906130d39190615b1b565b80519091506130e55750600092915050565b6040517f75b0d9cd000000000000000000000000000000000000000000000000000000008152600481018490526000907f000000000000000000000000000000000000000000000000000000000000000073ffffffffffffffffffffffffffffffffffffffff16906375b0d9cd9060240160206040518083038186803b15801561316e57600080fd5b505afa158015613182573d6000803e3d6000fd5b505050506040513d601f19601f820116820180604052508101906131a69190615a4f565b90506131d260026000868152602001908152602001600020546008846101e00151901c60ff1683614b7c565b92507f7fffffffffffffffffffffffffffffffffffffffffffffffffffffffffffffff6131ff848361643c565b111561328d576040517f08c379a000000000000000000000000000000000000000000000000000000000815260206004820152602e60248201527f5456315f313a3a7072696e7452657365727665645469636b6574733a20494e5460448201527f5f4c494d49545f524541434845440000000000000000000000000000000000006064820152608401610672565b613297838261643c565b60008581526002602052604081209190915583156132be576132b9838561506e565b6132c1565b60005b6040517f6352211e0000000000000000000000000000000000000000000000000000000081526004810187905290915060009073ffffffffffffffffffffffffffffffffffffffff7f00000000000000000000000000000000000000000000000000000000000000001690636352211e9060240160206040518083038186803b15801561334d57600080fd5b505afa158015613361573d6000803e3d6000fd5b505050506040513d601f19601f82011682018060405250810190613385919061569a565b90508115613444576040517fe0826c8900000000000000000000000000000000000000000000000000000000815273ffffffffffffffffffffffffffffffffffffffff82811660048301526024820188905260448201849052600060648301527f0000000000000000000000000000000000000000000000000000000000000000169063e0826c8990608401600060405180830381600087803b15801561342b57600080fd5b505af115801561343f573d6000803e3d6000fd5b505050505b835160408051878152602081018590523381830152905173ffffffffffffffffffffffffffffffffffffffff841692899290917f54ad84f37b2d6ff349b859f99f05bceaba2ee199cde3b63ae47c38f5d6116c0d9181900360600190a450505050919050565b6040517f43a266c200000000000000000000000000000000000000000000000000000000815260048101829052600090819073ffffffffffffffffffffffffffffffffffffffff7f000000000000000000000000000000000000000000000000000000000000000016906343a266c2906024016102006040518083038186803b15801561353657600080fd5b505afa15801561354a573d6000803e3d6000fd5b505050506040513d601f19601f8201168201806040525081019061356e9190615b1b565b905061134181614a59565b6040517f6352211e000000000000000000000000000000000000000000000000000000008152600481018690526000907f000000000000000000000000000000000000000000000000000000000000000073ffffffffffffffffffffffffffffffffffffffff1690636352211e9060240160206040518083038186803b15801561360257600080fd5b505afa158015613616573d6000803e3d6000fd5b505050506040513d601f19601f8201168201806040525081019061363a919061569a565b8660013373ffffffffffffffffffffffffffffffffffffffff8416148061372f57506040517fc161c93f00000000000000000000000000000000000000000000000000000000815233600482015273ffffffffffffffffffffffffffffffffffffffff848116602483015260448201849052606482018390527f0000000000000000000000000000000000000000000000000000000000000000169063c161c93f9060840160206040518083038186803b1580156136f757600080fd5b505afa15801561370b573d6000803e3d6000fd5b505050506040513d601f19601f8201168201806040525081019061372f9190615a32565b613795576040517f08c379a000000000000000000000000000000000000000000000000000000000815260206004820152601860248201527f4f706572617461626c653a20554e415554484f52495a454400000000000000006044820152606401610672565b60006137a9611a7f368a90038a018a615a89565b905060007f000000000000000000000000000000000000000000000000000000000000000073ffffffffffffffffffffffffffffffffffffffff16638a1b0eb48c8c8560045460006040518663ffffffff1660e01b8152600401613811959493929190616089565b61020060405180830381600087803b15801561382c57600080fd5b505af1158015613840573d6000803e3d6000fd5b505050506040513d601f19601f820116820180604052508101906138649190615b1b565b88519091501561391a5760808101516040517fa67e210a00000000000000000000000000000000000000000000000000000000815273ffffffffffffffffffffffffffffffffffffffff7f0000000000000000000000000000000000000000000000000000000000000000169163a67e210a916138e7918f918d9060040161610d565b600060405180830381600087803b15801561390157600080fd5b505af1158015613915573d6000803e3d6000fd5b505050505b8651156139cd5760808101516040517febe352a400000000000000000000000000000000000000000000000000000000815273ffffffffffffffffffffffffffffffffffffffff7f0000000000000000000000000000000000000000000000000000000000000000169163ebe352a49161399a918f918c906004016161c6565b600060405180830381600087803b1580156139b457600080fd5b505af11580156139c8573d6000803e3d6000fd5b505050505b519a9950505050505050505050565b6139e4614cf4565b73ffffffffffffffffffffffffffffffffffffffff8116613a87576040517f08c379a000000000000000000000000000000000000000000000000000000000815260206004820152602660248201527f4f776e61626c653a206e6577206f776e657220697320746865207a65726f206160448201527f64647265737300000000000000000000000000000000000000000000000000006064820152608401610672565b613a9081614ff7565b50565b6040517f43a266c200000000000000000000000000000000000000000000000000000000815260048101869052600090819073ffffffffffffffffffffffffffffffffffffffff7f000000000000000000000000000000000000000000000000000000000000000016906343a266c2906024016102006040518083038186803b158015613b1f57600080fd5b505afa158015613b33573d6000803e3d6000fd5b505050506040513d601f19601f82011682018060405250810190613b579190615b1b565b90506020816101e00151901c600116600014613bcf576040517f08c379a000000000000000000000000000000000000000000000000000000000815260206004820152601260248201527f5456315f313a3a7061793a2050415553454400000000000000000000000000006044820152606401610672565b60008160400151600014613be7578160c00151613c85565b7f000000000000000000000000000000000000000000000000000000000000000073ffffffffffffffffffffffffffffffffffffffff1663e16fd0ec6040518163ffffffff1660e01b815260040160206040518083038186803b158015613c4d57600080fd5b505afa158015613c61573d6000803e3d6000fd5b505050506040513d601f19601f82011682018060405250810190613c859190615a4f565b90506000613c93888361532b565b905060008360400151600014613cb5576008846101e00151901c60ff16613cb8565b60005b90506000613ccb8361131a8460c86164c8565b60008c815260036020526040902054909150613ce8908b9061643c565b60008c8152600360205260409020558015613ea7576040850151613deb5760008b8152600260205260408120541280613d5b575060008b8152600260205260409020547f7fffffffffffffffffffffffffffffffffffffffffffffffffffffffffffffff90613d5890859061643c565b11155b613dc1576040517f08c379a000000000000000000000000000000000000000000000000000000000815260206004820152601c60248201527f5456315f313a3a70617920494e545f4c494d49545f52454143484544000000006044820152606401610672565b60008b815260026020526040902054613ddb9082906163c8565b60008c8152600260205260409020555b6040517fe0826c8900000000000000000000000000000000000000000000000000000000815273ffffffffffffffffffffffffffffffffffffffff8a81166004830152602482018d90526044820183905288151560648301527f0000000000000000000000000000000000000000000000000000000000000000169063e0826c8990608401600060405180830381600087803b158015613e8a57600080fd5b505af1158015613e9e573d6000803e3d6000fd5b50505050613fc2565b8215613fc25760008b8152600260205260408120541380613f0c575060008b8152600260205260409020547f7fffffffffffffffffffffffffffffffffffffffffffffffffffffffffffffff908490613eff90616518565b613f09919061643c565b11155b613f98576040517f08c379a000000000000000000000000000000000000000000000000000000000815260206004820152602660248201527f5456315f313a3a7072696e745469636b6574733a20494e545f4c494d49545f5260448201527f45414348454400000000000000000000000000000000000000000000000000006064820152608401610672565b60008b815260026020526040902054613fb2908490616454565b60008c8152600260205260409020555b8873ffffffffffffffffffffffffffffffffffffffff168b86600001517fd595184f93e5de76e6c92bf66d279d827d0be8fad5cec3a420d86716e1a665328d85888e3360405161401695949392919061625a565b60405180910390a45050915198975050505050505050565b6002600054141561409b576040517f08c379a000000000000000000000000000000000000000000000000000000000815260206004820152601f60248201527f5265656e7472616e637947756172643a207265656e7472616e742063616c6c006044820152606401610672565b6002600055565b60006127f283670de0b6b3a764000084614bef565b60006140ce8560c86140c9878261643c565b614bef565b6140d890866164c8565b9050806140e757506000610d7d565b6040517f4fe0eced00000000000000000000000000000000000000000000000000000000815260016004820152309073ffffffffffffffffffffffffffffffffffffffff7f00000000000000000000000000000000000000000000000000000000000000001690634fe0eced9060240160206040518083038186803b15801561416f57600080fd5b505afa158015614183573d6000803e3d6000fd5b505050506040513d601f19601f820116820180604052508101906141a7919061569a565b73ffffffffffffffffffffffffffffffffffffffff1614156141d8576141d260018285856000613a93565b50610d7d565b6040517f4fe0eced000000000000000000000000000000000000000000000000000000008152600160048201526000907f000000000000000000000000000000000000000000000000000000000000000073ffffffffffffffffffffffffffffffffffffffff1690634fe0eced9060240160206040518083038186803b15801561426157600080fd5b505afa158015614275573d6000803e3d6000fd5b505050506040513d601f19601f82011682018060405250810190614299919061569a565b905073ffffffffffffffffffffffffffffffffffffffff811661433e576040517f08c379a000000000000000000000000000000000000000000000000000000000815260206004820152602360248201527f5456315f313a3a5f74616b654665653a205445524d494e414c5f4e4f545f464f60448201527f554e4400000000000000000000000000000000000000000000000000000000006064820152608401610672565b6040517f02c8986f00000000000000000000000000000000000000000000000000000000815273ffffffffffffffffffffffffffffffffffffffff8216906302c8986f90849061439a9060019089908990600090600401615f61565b6020604051808303818588803b1580156143b357600080fd5b505af11580156143c7573d6000803e3d6000fd5b50505050506040513d601f19601f820116820180604052508101906143ec9190615a4f565b5050949350505050565b602083015160808401516040517f7559aaaa0000000000000000000000000000000000000000000000000000000081526004810192909252602482015282906000907f000000000000000000000000000000000000000000000000000000000000000073ffffffffffffffffffffffffffffffffffffffff1690637559aaaa9060440160006040518083038186803b15801561449157600080fd5b505afa1580156144a5573d6000803e3d6000fd5b505050506040513d6000823e601f3d9081017fffffffffffffffffffffffffffffffffffffffffffffffffffffffffffffffe01682016040526144eb9190810190615827565b90508051600014156144fd5750611341565b60005b81518110156148f157600082828151811061451d5761451d6165de565b60200260200101519050600061453e87836020015161ffff16612710614bef565b9050801561488b57608082015173ffffffffffffffffffffffffffffffffffffffff161561461b576080820151602089015160a084015160608501516040517fec695ef7000000000000000000000000000000000000000000000000000000008152600481019390935266ffffffffffffff909116602483015273ffffffffffffffffffffffffffffffffffffffff90811660448301529091169063ec695ef79083906064016000604051808303818588803b1580156145fd57600080fd5b505af1158015614611573d6000803e3d6000fd5b505050505061488b565b60a082015166ffffffffffffff161561487d5760a08201516040517f4fe0eced00000000000000000000000000000000000000000000000000000000815266ffffffffffffff90911660048201526000907f000000000000000000000000000000000000000000000000000000000000000073ffffffffffffffffffffffffffffffffffffffff1690634fe0eced9060240160206040518083038186803b1580156146c557600080fd5b505afa1580156146d9573d6000803e3d6000fd5b505050506040513d601f19601f820116820180604052508101906146fd919061569a565b905073ffffffffffffffffffffffffffffffffffffffff811661477c576040517f08c379a000000000000000000000000000000000000000000000000000000000815260206004820152601360248201527f5456315f313a3a7461703a204241445f4d4f44000000000000000000000000006044820152606401610672565b73ffffffffffffffffffffffffffffffffffffffff81163014156147c2576147bc8360a0015166ffffffffffffff168385606001518a8760000151613a93565b50614877565b60a0830151606084015184516040517f02c8986f00000000000000000000000000000000000000000000000000000000815273ffffffffffffffffffffffffffffffffffffffff8516936302c8986f938793614823938e91906004016162a7565b6020604051808303818588803b15801561483c57600080fd5b505af1158015614850573d6000803e3d6000fd5b50505050506040513d601f19601f820116820180604052508101906148759190615a4f565b505b5061488b565b61488b8260600151826148fa565b61489581866164c8565b9450876020015188600001517fd37e528ac0cd9d9eeaa32903a436be474cce5651f7d3313a580ceacdae5cb3458484336040516148d493929190615fa9565b60405180910390a3505080806148e9906164df565b915050614500565b50509392505050565b80471015614964576040517f08c379a000000000000000000000000000000000000000000000000000000000815260206004820152601d60248201527f416464726573733a20696e73756666696369656e742062616c616e63650000006044820152606401610672565b60008273ffffffffffffffffffffffffffffffffffffffff168260405160006040518083038185875af1925050503d80600081146149be576040519150601f19603f3d011682016040523d82523d6000602084013e6149c3565b606091505b5050905080614a54576040517f08c379a000000000000000000000000000000000000000000000000000000000815260206004820152603a60248201527f416464726573733a20756e61626c6520746f2073656e642076616c75652c207260448201527f6563697069656e74206d617920686176652072657665727465640000000000006064820152608401610672565b505050565b6000807f000000000000000000000000000000000000000000000000000000000000000073ffffffffffffffffffffffffffffffffffffffff16639fa937238461016001516040518263ffffffff1660e01b8152600401614abc91815260200190565b60206040518083038186803b158015614ad457600080fd5b505afa158015614ae8573d6000803e3d6000fd5b505050506040513d601f19601f82011682018060405250810190614b0c9190615a4f565b90506000836101c00151846101400151614b2691906164c8565b905060008115614b3f57614b3a82846140a2565b614b42565b60005b602080870151600090815260039091526040902054909150818110614b7057614b6b82826164c8565b61073c565b60009695505050505050565b6000806000851215614ba057614b9185616518565b614b9b908461643c565b614baa565b614baa85846164c8565b905080614bbb576000915050611341565b8360c81415614bcb579050611341565b80614bdc8160c86140c988826164c8565b614be691906164c8565b95945050505050565b600080807fffffffffffffffffffffffffffffffffffffffffffffffffffffffffffffffff8587098587029250828110838203039150508060001415614c4857838281614c3e57614c3e616580565b0492505050611341565b838110614c8b576040517f773cc18c0000000000000000000000000000000000000000000000000000000081526004810182905260248101859052604401610672565b60008486880960026001871981018816978890046003810283188082028403028082028403028082028403028082028403028082028403029081029092039091026000889003889004909101858311909403939093029303949094049190911702949350505050565b60015473ffffffffffffffffffffffffffffffffffffffff163314612497576040517f08c379a000000000000000000000000000000000000000000000000000000000815260206004820181905260248201527f4f776e61626c653a2063616c6c6572206973206e6f7420746865206f776e65726044820152606401610672565b600060c882600001511115614e0c576040517f08c379a000000000000000000000000000000000000000000000000000000000815260206004820152603e60248201527f5456315f313a3a5f76616c6964617465416e645061636b46756e64696e67437960448201527f636c654d657461646174613a204241445f52455345525645445f5241544500006064820152608401610672565b60c882602001511115614ec7576040517f08c379a000000000000000000000000000000000000000000000000000000000815260206004820152604360248201527f5456315f313a3a5f76616c6964617465416e645061636b46756e64696e67437960448201527f636c654d657461646174613a204241445f424f4e44494e475f43555256455f5260648201527f4154450000000000000000000000000000000000000000000000000000000000608482015260a401610672565b60c882604001511115614f82576040517f08c379a000000000000000000000000000000000000000000000000000000000815260206004820152605360248201527f5456315f313a3a5f76616c6964617465416e645061636b46756e64696e67437960448201527f636c654d657461646174613a204241445f5245434f4e46494755524154494f4e60648201527f5f424f4e44494e475f43555256455f5241544500000000000000000000000000608482015260a401610672565b50805160208201516040830151606084015160189190911b60109290921b60089390931b92909217176001179015614fbc57640100000000175b816080015115614fce57640200000000175b60a0919091015160221b7803fffffffffffffffffffffffffffffffffffffffc00000000161790565b6001805473ffffffffffffffffffffffffffffffffffffffff8381167fffffffffffffffffffffffff0000000000000000000000000000000000000000831681179093556040519116919082907f8be0079c531659141344cd1fd0a4f28419497f9722a3daafe3b4186f6b6457e090600090a35050565b602082015160808301516040517f4833b5120000000000000000000000000000000000000000000000000000000081526004810192909252602482015281906000907f000000000000000000000000000000000000000000000000000000000000000073ffffffffffffffffffffffffffffffffffffffff1690634833b5129060440160006040518083038186803b15801561510957600080fd5b505afa15801561511d573d6000803e3d6000fd5b505050506040513d6000823e601f3d9081017fffffffffffffffffffffffffffffffffffffffffffffffffffffffffffffffe0168201604052615163919081019061593e565b905060005b8151811015615323576000828281518110615185576151856165de565b6020026020010151905060006151a686836020015161ffff16612710614bef565b90508015615274576060820151602088015183516040517fe0826c8900000000000000000000000000000000000000000000000000000000815273ffffffffffffffffffffffffffffffffffffffff9384166004820152602481019290925260448201849052151560648201527f00000000000000000000000000000000000000000000000000000000000000009091169063e0826c8990608401600060405180830381600087803b15801561525b57600080fd5b505af115801561526f573d6000803e3d6000fd5b505050505b61527e81866164c8565b6020808901518951604080518751151581528785015161ffff16948101949094528087015165ffffffffffff169084015260608087015173ffffffffffffffffffffffffffffffffffffffff1690840152608083018590523360a084015292975091907fe499491e3f5b7f35b5078102c27aa039bbde7ed027b91c996ac41e15d8f87d5c9060c00160405180910390a35050808061531b906164df565b915050615168565b505092915050565b60006127f28383600080807fffffffffffffffffffffffffffffffffffffffffffffffffffffffffffffffff848609848602925082811083820303915050670de0b6b3a764000081106153ad576040517fd31b340200000000000000000000000000000000000000000000000000000000815260048101829052602401610672565b600080670de0b6b3a76400008688099150506706f05b59d3b1ffff8111826153e75780670de0b6b3a76400008504019450505050506127f5565b6204000082850304939091119091037d40000000000000000000000000000000000000000000000000000000000002919091177faccb18165bd6fe31ae1cf318dc5b51eee0e1ba569b88cd74c1773b91fac106690201905092915050565b600082601f83011261545657600080fd5b8135602061546b615466836163a4565b616355565b8281528181019085830160c08086028801850189101561548a57600080fd5b6000805b878110156155285782848c0312156154a4578182fd5b6154ac6162e5565b84356154b78161665e565b8152848801356154c68161666c565b818901526040858101356154d98161667c565b908201526060858101356154ec8161663c565b908201526080858101356154ff8161663c565b9082015260a08581013561551281616690565b908201528652948601949282019260010161548e565b50929998505050505050505050565b600082601f83011261554857600080fd5b81356020615558615466836163a4565b80838252828201915082860187848660071b890101111561557857600080fd5b6000805b868110156155f357608080848c031215615594578283fd5b61559c61630e565b84356155a78161665e565b8152848801356155b68161666c565b818901526040858101356155c98161667c565b908201526060858101356155dc8161663c565b90820152865294860194929092019160010161557c565b509198975050505050505050565b803561560c8161665e565b919050565b805161560c8161663c565b60008083601f84011261562e57600080fd5b50813567ffffffffffffffff81111561564657600080fd5b60208301915083602082850101111561565e57600080fd5b9250929050565b600060c0828403121561567757600080fd5b50919050565b60006020828403121561568f57600080fd5b81356113418161663c565b6000602082840312156156ac57600080fd5b81516113418161663c565b600080600080600080600080610220898b0312156156d457600080fd5b88356156df8161663c565b975060208901359650604089013567ffffffffffffffff8082111561570357600080fd5b61570f8c838d0161561c565b90985096508691506157248c60608d01615665565b95506157348c6101208d01615665565b94506101e08b013591508082111561574b57600080fd5b6157578c838d01615445565b93506102008b013591508082111561576e57600080fd5b5061577b8b828c01615537565b9150509295985092959890939650565b6000806000606084860312156157a057600080fd5b83356157ab8161663c565b95602085013595506040909401359392505050565b60008060008060008060c087890312156157d957600080fd5b86356157e48161663c565b955060208701359450604087013593506060870135925060808701356158098161663c565b915060a08701356158198161665e565b809150509295509295509295565b6000602080838503121561583a57600080fd5b825167ffffffffffffffff81111561585157600080fd5b8301601f8101851361586257600080fd5b8051615870615466826163a4565b8181528381019083850160c0808502860187018a101561588f57600080fd5b60009550855b8581101561592f5781838c0312156158ab578687fd5b6158b36162e5565b83516158be8161665e565b8152838901516158cd8161666c565b818a01526040848101516158e08161667c565b908201526060848101516158f38161663c565b908201526080848101516159068161663c565b9082015260a08481015161591981616690565b9082015285529387019391810191600101615895565b50919998505050505050505050565b6000602080838503121561595157600080fd5b825167ffffffffffffffff81111561596857600080fd5b8301601f8101851361597957600080fd5b8051615987615466826163a4565b80828252848201915084840188868560071b87010111156159a757600080fd5b60009450845b84811015615a2457608080838c0312156159c5578687fd5b6159cd61630e565b83516159d88161665e565b8152838901516159e78161666c565b818a01526040848101516159fa8161667c565b90820152606084810151615a0d8161663c565b9082015285529387019391909101906001016159ad565b509098975050505050505050565b600060208284031215615a4457600080fd5b81516113418161665e565b600060208284031215615a6157600080fd5b5051919050565b600060208284031215615a7a57600080fd5b81516004811061134157600080fd5b600060c08284031215615a9b57600080fd5b60405160c0810181811067ffffffffffffffff82111715615abe57615abe61660d565b80604052508235815260208301356020820152604083013560408201526060830135615ae98161665e565b60608201526080830135615afc8161665e565b608082015260a0830135615b0f8161663c565b60a08201529392505050565b60006102008284031215615b2e57600080fd5b615b36616331565b825181526020830151602082015260408301516040820152606083015160608201526080830151608082015260a083015160a082015260c083015160c0820152615b8260e08401615611565b60e0820152610100838101519082015261012080840151908201526101408084015190820152610160808401519082015261018080840151908201526101a080840151908201526101c080840151908201526101e0928301519281019290925250919050565b600060208284031215615bfa57600080fd5b5035919050565b600080600080600060808688031215615c1957600080fd5b853594506020860135615c2b8161663c565b9350604086013567ffffffffffffffff811115615c4757600080fd5b615c538882890161561c565b9094509250506060860135615c678161665e565b809150509295509295909350565b60008060408385031215615c8857600080fd5b823591506020830135615c9a8161663c565b809150509250929050565b60008060008060006101e08688031215615cbe57600080fd5b85359450615ccf8760208801615665565b9350615cde8760e08801615665565b92506101a086013567ffffffffffffffff80821115615cfc57600080fd5b615d0889838a01615445565b93506101c0880135915080821115615d1f57600080fd5b50615d2c88828901615537565b9150509295509295909350565b60008060408385031215615d4c57600080fd5b50508035926020909101359150565b600080600080600060a08688031215615d7357600080fd5b8535945060208087013594506040870135615d8d8161663c565b9350606087013567ffffffffffffffff80821115615daa57600080fd5b818901915089601f830112615dbe57600080fd5b813581811115615dd057615dd061660d565b615e00847fffffffffffffffffffffffffffffffffffffffffffffffffffffffffffffffe0601f84011601616355565b91508082528a84828501011115615e1657600080fd5b8084840185840137600084828401015250809450505050615e3960808701615601565b90509295509295909350565b60008060008060808587031215615e5b57600080fd5b5050823594602084013594506040840135936060013592509050565b6000815180845260005b81811015615e9d57602081850181015186830182015201615e81565b81811115615eaf576000602083870101525b50601f017fffffffffffffffffffffffffffffffffffffffffffffffffffffffffffffffe0169290920160200192915050565b600073ffffffffffffffffffffffffffffffffffffffff808816835286602084015260806040840152846080840152848660a0850137600060a0868501015260a07fffffffffffffffffffffffffffffffffffffffffffffffffffffffffffffffe0601f87011684010191508084166060840152509695505050505050565b84815273ffffffffffffffffffffffffffffffffffffffff84166020820152608060408201526000615f966080830185615e77565b9050821515606083015295945050505050565b6101008101616020828680511515825261ffff602082015116602083015265ffffffffffff6040820151166040830152606081015173ffffffffffffffffffffffffffffffffffffffff8082166060850152806080840151166080850152505066ffffffffffffff60a08201511660a08301525050565b8360c083015273ffffffffffffffffffffffffffffffffffffffff831660e0830152949350505050565b8381526060602082015260006160636060830185615e77565b905073ffffffffffffffffffffffffffffffffffffffff83166040830152949350505050565b60006101408201905086825285356020830152602086013560408301526040860135606083015260608601356080830152608086013560a083015260a08601356160d28161663c565b73ffffffffffffffffffffffffffffffffffffffff1660c083015260e082019490945261010081019290925215156101209091015292915050565b6000606082018583526020858185015260606040850152818551808452608086019150828701935060005b81811015615a24576161b383865180511515825261ffff602082015116602083015265ffffffffffff6040820151166040830152606081015173ffffffffffffffffffffffffffffffffffffffff8082166060850152806080840151166080850152505066ffffffffffffff60a08201511660a08301525050565b9383019360c09290920191600101616138565b600060608201858352602085818501526060604085015281855180845260809350838601915082870160005b8281101561592f5761624a84835180511515825261ffff602082015116602083015265ffffffffffff604082015116604083015273ffffffffffffffffffffffffffffffffffffffff60608201511660608301525050565b92850192908401906001016161f2565b85815284602082015283604082015260a06060820152600061627f60a0830185615e77565b905073ffffffffffffffffffffffffffffffffffffffff831660808301529695505050505050565b66ffffffffffffff8516815273ffffffffffffffffffffffffffffffffffffffff84166020820152608060408201526000615f966080830185615e77565b60405160c0810167ffffffffffffffff811182821017156163085761630861660d565b60405290565b6040516080810167ffffffffffffffff811182821017156163085761630861660d565b604051610200810167ffffffffffffffff811182821017156163085761630861660d565b604051601f82017fffffffffffffffffffffffffffffffffffffffffffffffffffffffffffffffe016810167ffffffffffffffff8111828210171561639c5761639c61660d565b604052919050565b600067ffffffffffffffff8211156163be576163be61660d565b5060051b60200190565b6000808212827f7fffffffffffffffffffffffffffffffffffffffffffffffffffffffffffffff0384138115161561640257616402616551565b827f800000000000000000000000000000000000000000000000000000000000000003841281161561643657616436616551565b50500190565b6000821982111561644f5761644f616551565b500190565b6000808312837f80000000000000000000000000000000000000000000000000000000000000000183128115161561648e5761648e616551565b837f7fffffffffffffffffffffffffffffffffffffffffffffffffffffffffffffff0183138116156164c2576164c2616551565b50500390565b6000828210156164da576164da616551565b500390565b60007fffffffffffffffffffffffffffffffffffffffffffffffffffffffffffffffff82141561651157616511616551565b5060010190565b60007f800000000000000000000000000000000000000000000000000000000000000082141561654a5761654a616551565b5060000390565b7f4e487b7100000000000000000000000000000000000000000000000000000000600052601160045260246000fd5b7f4e487b7100000000000000000000000000000000000000000000000000000000600052601260045260246000fd5b7f4e487b7100000000000000000000000000000000000000000000000000000000600052602160045260246000fd5b7f4e487b7100000000000000000000000000000000000000000000000000000000600052603260045260246000fd5b7f4e487b7100000000000000000000000000000000000000000000000000000000600052604160045260246000fd5b73ffffffffffffffffffffffffffffffffffffffff81168114613a9057600080fd5b8015158114613a9057600080fd5b61ffff81168114613a9057600080fd5b65ffffffffffff81168114613a9057600080fd5b66ffffffffffffff81168114613a9057600080fdfea26469706673582212209f239627df720da8f877f27c143e54ab1154da3ba5db935dbe416a560f0effa464736f6c63430008060033",
    "linkReferences": {}
  },
  "methodIdentifiers": {
    "addToBalance(uint256)": "8a19e355",
    "allowMigration(address)": "308a20ad",
    "balanceOf(uint256)": "9cc7f708",
    "burnFromDeadAddress(uint256)": "9c0eee02",
    "claimableOverflowOf(address,uint256,uint256)": "2e9d3b8f",
    "configure(uint256,(uint256,uint256,uint256,uint256,uint256,address),(uint256,uint256,uint256,bool,bool,address),(bool,uint16,uint48,address,address,uint56)[],(bool,uint16,uint48,address)[])": "e0f793db",
    "currentOverflowOf(uint256)": "ddfd414a",
    "deploy(address,bytes32,string,(uint256,uint256,uint256,uint256,uint256,address),(uint256,uint256,uint256,bool,bool,address),(bool,uint16,uint48,address,address,uint56)[],(bool,uint16,uint48,address)[])": "3cc83ca6",
    "fee()": "ddca3f43",
    "fundingCycles()": "882af667",
    "migrate(uint256,address)": "405b84fa",
    "migrationIsAllowed(address)": "b9f11091",
    "modStore()": "a7c3cca1",
    "operatorStore()": "ad007d63",
    "owner()": "8da5cb5b",
    "pay(uint256,address,string,bool)": "02c8986f",
    "prices()": "d3419bf3",
    "printReservedTickets(uint256)": "af82d3be",
    "printTickets(uint256,uint256,address,string,bool)": "9713eea6",
    "projects()": "8b79543c",
    "redeem(address,uint256,uint256,uint256,address,bool)": "3015a5b5",
    "renounceOwnership()": "715018a6",
    "reservedTicketBalanceOf(uint256,uint256)": "92ad35f3",
    "setFee(uint256)": "69fe0e2d",
    "tap(uint256,uint256,uint256,uint256)": "08014ddc",
    "terminalDirectory()": "6abcf8e3",
    "ticketBooth()": "9b602d60",
    "transferOwnership(address)": "f2fde38b"
  },
  "id": 32
}