{
  "abi": [
    {
      "inputs": [
        {
          "internalType": "contract IJBDirectory",
          "name": "_directory",
          "type": "address"
        }
      ],
      "stateMutability": "nonpayable",
      "type": "constructor"
    },
    {
      "inputs": [],
      "name": "TERMINAL_NOT_FOUND",
      "type": "error"
    },
    {
      "anonymous": false,
      "inputs": [
        {
          "indexed": true,
          "internalType": "uint256",
          "name": "projectId",
          "type": "uint256"
        },
        {
          "indexed": true,
          "internalType": "uint256",
          "name": "forProjectId",
          "type": "uint256"
        },
        {
          "indexed": true,
          "internalType": "address",
          "name": "beneficiary",
          "type": "address"
        },
        {
          "indexed": false,
          "internalType": "uint256",
          "name": "amount",
          "type": "uint256"
        },
        {
          "indexed": false,
          "internalType": "address",
          "name": "caller",
          "type": "address"
        }
      ],
      "name": "Allocate",
      "type": "event"
    },
    {
      "inputs": [
        {
          "internalType": "uint256",
          "name": "_projectId",
          "type": "uint256"
        },
        {
          "internalType": "uint256",
          "name": "_forProjectId",
          "type": "uint256"
        },
        {
          "internalType": "address",
          "name": "_beneficiary",
          "type": "address"
        }
      ],
      "name": "allocate",
      "outputs": [],
      "stateMutability": "payable",
      "type": "function"
    },
    {
      "inputs": [],
      "name": "directory",
      "outputs": [
        {
          "internalType": "contract IJBDirectory",
          "name": "",
          "type": "address"
        }
      ],
      "stateMutability": "view",
      "type": "function"
    },
    {
      "inputs": [
        {
          "internalType": "bytes4",
          "name": "_interfaceId",
          "type": "bytes4"
        }
      ],
      "name": "supportsInterface",
      "outputs": [
        {
          "internalType": "bool",
          "name": "",
          "type": "bool"
        }
      ],
      "stateMutability": "view",
      "type": "function"
    }
  ],
  "bytecode": {
    "object": "0x60a060405234801561001057600080fd5b5060405161057938038061057983398101604081905261002f91610040565b6001600160a01b0316608052610070565b60006020828403121561005257600080fd5b81516001600160a01b038116811461006957600080fd5b9392505050565b6080516104e861009160003960008181608001526101af01526104e86000f3fe6080604052600436106100345760003560e01c806301ffc9a714610039578063c41c2f241461006e578063ec695ef7146100c7575b600080fd5b34801561004557600080fd5b5061005961005436600461031e565b6100dc565b60405190151581526020015b60405180910390f35b34801561007a57600080fd5b506100a27f000000000000000000000000000000000000000000000000000000000000000081565b60405173ffffffffffffffffffffffffffffffffffffffff9091168152602001610065565b6100da6100d536600461038c565b610175565b005b60007fffffffff0000000000000000000000000000000000000000000000000000000082167fec695ef700000000000000000000000000000000000000000000000000000000148061016f57507f01ffc9a7000000000000000000000000000000000000000000000000000000007fffffffff000000000000000000000000000000000000000000000000000000008316145b92915050565b6040517f862026500000000000000000000000000000000000000000000000000000000081526004810183905261eeee60248201526000907f000000000000000000000000000000000000000000000000000000000000000073ffffffffffffffffffffffffffffffffffffffff1690638620265090604401602060405180830381865afa15801561020b573d6000803e3d6000fd5b505050506040513d601f19601f8201168201806040525081019061022f91906103c5565b905073ffffffffffffffffffffffffffffffffffffffff811661027e576040517ffba10dd600000000000000000000000000000000000000000000000000000000815260040160405180910390fd5b604080516020810182526000815290517f0cf8e85800000000000000000000000000000000000000000000000000000000815273ffffffffffffffffffffffffffffffffffffffff831691630cf8e8589134916102e6918891849161eeee91906004016103e2565b6000604051808303818588803b1580156102ff57600080fd5b505af1158015610313573d6000803e3d6000fd5b505050505050505050565b60006020828403121561033057600080fd5b81357fffffffff000000000000000000000000000000000000000000000000000000008116811461036057600080fd5b9392505050565b73ffffffffffffffffffffffffffffffffffffffff8116811461038957600080fd5b50565b6000806000606084860312156103a157600080fd5b833592506020840135915060408401356103ba81610367565b809150509250925092565b6000602082840312156103d757600080fd5b815161036081610367565b84815260006020858184015273ffffffffffffffffffffffffffffffffffffffff8516604084015260a06060840152601360a08401527f7631202d3e20763320616c6c6f636174696f6e0000000000000000000000000060c084015260e0608084015283518060e085015260005b8181101561046d5785810183015185820161010001528201610450565b5061010091506000828286010152817fffffffffffffffffffffffffffffffffffffffffffffffffffffffffffffffe0601f830116850101925050509594505050505056fea2646970667358221220ed78398ebd34f4a8ad8245fe9a92cc75d6224e80b00f708d272ab27b0e52047764736f6c63430008110033",
    "linkReferences": {}
  },
  "methodIdentifiers": {
    "allocate(uint256,uint256,address)": "ec695ef7",
    "directory()": "c41c2f24",
    "supportsInterface(bytes4)": "01ffc9a7"
  },
  "id": 2
}