{
  "abi": [
    {
      "inputs": [],
      "name": "ClaimHandle",
      "outputs": [
        {
          "internalType": "uint256",
          "name": "",
          "type": "uint256"
        }
      ],
      "stateMutability": "view",
      "type": "function"
    },
    {
      "inputs": [],
      "name": "Configure",
      "outputs": [
        {
          "internalType": "uint256",
          "name": "",
          "type": "uint256"
        }
      ],
      "stateMutability": "view",
      "type": "function"
    },
    {
      "inputs": [],
      "name": "Issue",
      "outputs": [
        {
          "internalType": "uint256",
          "name": "",
          "type": "uint256"
        }
      ],
      "stateMutability": "view",
      "type": "function"
    },
    {
      "inputs": [],
      "name": "Lock",
      "outputs": [
        {
          "internalType": "uint256",
          "name": "",
          "type": "uint256"
        }
      ],
      "stateMutability": "view",
      "type": "function"
    },
    {
      "inputs": [],
      "name": "Migrate",
      "outputs": [
        {
          "internalType": "uint256",
          "name": "",
          "type": "uint256"
        }
      ],
      "stateMutability": "view",
      "type": "function"
    },
    {
      "inputs": [],
      "name": "PrintPreminedTickets",
      "outputs": [
        {
          "internalType": "uint256",
          "name": "",
          "type": "uint256"
        }
      ],
      "stateMutability": "view",
      "type": "function"
    },
    {
      "inputs": [],
      "name": "PrintTickets",
      "outputs": [
        {
          "internalType": "uint256",
          "name": "",
          "type": "uint256"
        }
      ],
      "stateMutability": "view",
      "type": "function"
    },
    {
      "inputs": [],
      "name": "Redeem",
      "outputs": [
        {
          "internalType": "uint256",
          "name": "",
          "type": "uint256"
        }
      ],
      "stateMutability": "view",
      "type": "function"
    },
    {
      "inputs": [],
      "name": "RenewHandle",
      "outputs": [
        {
          "internalType": "uint256",
          "name": "",
          "type": "uint256"
        }
      ],
      "stateMutability": "view",
      "type": "function"
    },
    {
      "inputs": [],
      "name": "SetHandle",
      "outputs": [
        {
          "internalType": "uint256",
          "name": "",
          "type": "uint256"
        }
      ],
      "stateMutability": "view",
      "type": "function"
    },
    {
      "inputs": [],
      "name": "SetPayoutMods",
      "outputs": [
        {
          "internalType": "uint256",
          "name": "",
          "type": "uint256"
        }
      ],
      "stateMutability": "view",
      "type": "function"
    },
    {
      "inputs": [],
      "name": "SetTerminal",
      "outputs": [
        {
          "internalType": "uint256",
          "name": "",
          "type": "uint256"
        }
      ],
      "stateMutability": "view",
      "type": "function"
    },
    {
      "inputs": [],
      "name": "SetTicketMods",
      "outputs": [
        {
          "internalType": "uint256",
          "name": "",
          "type": "uint256"
        }
      ],
      "stateMutability": "view",
      "type": "function"
    },
    {
      "inputs": [],
      "name": "SetUri",
      "outputs": [
        {
          "internalType": "uint256",
          "name": "",
          "type": "uint256"
        }
      ],
      "stateMutability": "view",
      "type": "function"
    },
    {
      "inputs": [],
      "name": "Stake",
      "outputs": [
        {
          "internalType": "uint256",
          "name": "",
          "type": "uint256"
        }
      ],
      "stateMutability": "view",
      "type": "function"
    },
    {
      "inputs": [],
      "name": "Transfer",
      "outputs": [
        {
          "internalType": "uint256",
          "name": "",
          "type": "uint256"
        }
      ],
      "stateMutability": "view",
      "type": "function"
    },
    {
      "inputs": [],
      "name": "Unstake",
      "outputs": [
        {
          "internalType": "uint256",
          "name": "",
          "type": "uint256"
        }
      ],
      "stateMutability": "view",
      "type": "function"
    }
  ],
  "bytecode": {
    "object": "0x6101fa61003a600b82828239805160001a60731461002d57634e487b7160e01b600052600060045260246000fd5b30600052607381538281f3fe73000000000000000000000000000000000000000030146080604052600436106101255760003560e01c80637fe8bf4c116100bc578063ac313c961161008b578063ba4b2ac011610070578063ba4b2ac0146101ac578063d95402e7146101b4578063de20bc92146101bc57600080fd5b8063ac313c961461019c578063b553891d146101a457600080fd5b80637fe8bf4c1461017c57806382cebea514610184578063880a4e8b1461018c5780639d0ea7f81461019457600080fd5b8063467c4e68116100f8578063467c4e681461015c5780635e36203f1461016457806363c6b0931461016c5780637538eecf1461017457600080fd5b8063105fd46a1461012a578063207aba2414610144578063406dade31461014c57806346620e3914610154575b600080fd5b610132600581565b60405190815260200160405180910390f35b610132600481565b610132600c81565b610132600d81565b610132600981565b610132600181565b610132600681565b610132600b81565b610132601181565b610132601081565b610132600781565b610132600881565b610132600e81565b610132600281565b610132600f81565b610132600381565b610132600a8156fea2646970667358221220771c061dd5a1df0585ca22956df6b024b1640a172cf89eb0fec7cb2df0fcdf0c64736f6c63430008060033",
    "linkReferences": {}
  },
  "methodIdentifiers": {
    "ClaimHandle()": "880a4e8b",
    "Configure()": "5e36203f",
    "Issue()": "467c4e68",
    "Lock()": "46620e39",
    "Migrate()": "207aba24",
    "PrintPreminedTickets()": "b553891d",
    "PrintTickets()": "7fe8bf4c",
    "Redeem()": "d95402e7",
    "RenewHandle()": "9d0ea7f8",
    "SetHandle()": "105fd46a",
    "SetPayoutMods()": "ac313c96",
    "SetTerminal()": "82cebea5",
    "SetTicketMods()": "ba4b2ac0",
    "SetUri()": "63c6b093",
    "Stake()": "de20bc92",
    "Transfer()": "406dade3",
    "Unstake()": "7538eecf"
  },
  "id": 58
}