{
  "abi": [
    {
      "inputs": [
        {
          "internalType": "contract ITerminalDirectory",
          "name": "_terminalDirectory",
          "type": "address"
        }
      ],
      "stateMutability": "nonpayable",
      "type": "constructor"
    },
    {
      "inputs": [
        {
          "internalType": "uint256",
          "name": "prod1",
          "type": "uint256"
        },
        {
          "internalType": "uint256",
          "name": "denominator",
          "type": "uint256"
        }
      ],
      "name": "PRBMath__MulDivOverflow",
      "type": "error"
    },
    {
      "anonymous": false,
      "inputs": [
        {
          "indexed": true,
          "internalType": "uint256",
          "name": "fundingCycleId",
          "type": "uint256"
        },
        {
          "indexed": true,
          "internalType": "uint256",
          "name": "projectId",
          "type": "uint256"
        },
        {
          "indexed": false,
          "internalType": "uint256",
          "name": "reconfigured",
          "type": "uint256"
        },
        {
          "components": [
            {
              "internalType": "uint256",
              "name": "target",
              "type": "uint256"
            },
            {
              "internalType": "uint256",
              "name": "currency",
              "type": "uint256"
            },
            {
              "internalType": "uint256",
              "name": "duration",
              "type": "uint256"
            },
            {
              "internalType": "uint256",
              "name": "cycleLimit",
              "type": "uint256"
            },
            {
              "internalType": "uint256",
              "name": "discountRate",
              "type": "uint256"
            },
            {
              "internalType": "contract IFundingCycleBallot",
              "name": "ballot",
              "type": "address"
            }
          ],
          "indexed": false,
          "internalType": "struct FundingCycleProperties",
          "name": "_properties",
          "type": "tuple"
        },
        {
          "indexed": false,
          "internalType": "uint256",
          "name": "metadata",
          "type": "uint256"
        },
        {
          "indexed": false,
          "internalType": "address",
          "name": "caller",
          "type": "address"
        }
      ],
      "name": "Configure",
      "type": "event"
    },
    {
      "anonymous": false,
      "inputs": [
        {
          "indexed": true,
          "internalType": "uint256",
          "name": "fundingCycleId",
          "type": "uint256"
        },
        {
          "indexed": true,
          "internalType": "uint256",
          "name": "projectId",
          "type": "uint256"
        },
        {
          "indexed": false,
          "internalType": "uint256",
          "name": "number",
          "type": "uint256"
        },
        {
          "indexed": false,
          "internalType": "uint256",
          "name": "previous",
          "type": "uint256"
        },
        {
          "indexed": false,
          "internalType": "uint256",
          "name": "weight",
          "type": "uint256"
        },
        {
          "indexed": false,
          "internalType": "uint256",
          "name": "start",
          "type": "uint256"
        }
      ],
      "name": "Init",
      "type": "event"
    },
    {
      "anonymous": false,
      "inputs": [
        {
          "indexed": true,
          "internalType": "uint256",
          "name": "fundingCycleId",
          "type": "uint256"
        },
        {
          "indexed": true,
          "internalType": "uint256",
          "name": "projectId",
          "type": "uint256"
        },
        {
          "indexed": false,
          "internalType": "uint256",
          "name": "amount",
          "type": "uint256"
        },
        {
          "indexed": false,
          "internalType": "uint256",
          "name": "newTappedAmount",
          "type": "uint256"
        },
        {
          "indexed": false,
          "internalType": "address",
          "name": "caller",
          "type": "address"
        }
      ],
      "name": "Tap",
      "type": "event"
    },
    {
      "inputs": [],
      "name": "BASE_WEIGHT",
      "outputs": [
        {
          "internalType": "uint256",
          "name": "",
          "type": "uint256"
        }
      ],
      "stateMutability": "view",
      "type": "function"
    },
    {
      "inputs": [],
      "name": "MAX_CYCLE_LIMIT",
      "outputs": [
        {
          "internalType": "uint256",
          "name": "",
          "type": "uint256"
        }
      ],
      "stateMutability": "view",
      "type": "function"
    },
    {
      "inputs": [
        {
          "internalType": "uint256",
          "name": "_projectId",
          "type": "uint256"
        },
        {
          "components": [
            {
              "internalType": "uint256",
              "name": "target",
              "type": "uint256"
            },
            {
              "internalType": "uint256",
              "name": "currency",
              "type": "uint256"
            },
            {
              "internalType": "uint256",
              "name": "duration",
              "type": "uint256"
            },
            {
              "internalType": "uint256",
              "name": "cycleLimit",
              "type": "uint256"
            },
            {
              "internalType": "uint256",
              "name": "discountRate",
              "type": "uint256"
            },
            {
              "internalType": "contract IFundingCycleBallot",
              "name": "ballot",
              "type": "address"
            }
          ],
          "internalType": "struct FundingCycleProperties",
          "name": "_properties",
          "type": "tuple"
        },
        {
          "internalType": "uint256",
          "name": "_metadata",
          "type": "uint256"
        },
        {
          "internalType": "uint256",
          "name": "_fee",
          "type": "uint256"
        },
        {
          "internalType": "bool",
          "name": "_configureActiveFundingCycle",
          "type": "bool"
        }
      ],
      "name": "configure",
      "outputs": [
        {
          "components": [
            {
              "internalType": "uint256",
              "name": "id",
              "type": "uint256"
            },
            {
              "internalType": "uint256",
              "name": "projectId",
              "type": "uint256"
            },
            {
              "internalType": "uint256",
              "name": "number",
              "type": "uint256"
            },
            {
              "internalType": "uint256",
              "name": "basedOn",
              "type": "uint256"
            },
            {
              "internalType": "uint256",
              "name": "configured",
              "type": "uint256"
            },
            {
              "internalType": "uint256",
              "name": "cycleLimit",
              "type": "uint256"
            },
            {
              "internalType": "uint256",
              "name": "weight",
              "type": "uint256"
            },
            {
              "internalType": "contract IFundingCycleBallot",
              "name": "ballot",
              "type": "address"
            },
            {
              "internalType": "uint256",
              "name": "start",
              "type": "uint256"
            },
            {
              "internalType": "uint256",
              "name": "duration",
              "type": "uint256"
            },
            {
              "internalType": "uint256",
              "name": "target",
              "type": "uint256"
            },
            {
              "internalType": "uint256",
              "name": "currency",
              "type": "uint256"
            },
            {
              "internalType": "uint256",
              "name": "fee",
              "type": "uint256"
            },
            {
              "internalType": "uint256",
              "name": "discountRate",
              "type": "uint256"
            },
            {
              "internalType": "uint256",
              "name": "tapped",
              "type": "uint256"
            },
            {
              "internalType": "uint256",
              "name": "metadata",
              "type": "uint256"
            }
          ],
          "internalType": "struct FundingCycle",
          "name": "fundingCycle",
          "type": "tuple"
        }
      ],
      "stateMutability": "nonpayable",
      "type": "function"
    },
    {
      "inputs": [],
      "name": "count",
      "outputs": [
        {
          "internalType": "uint256",
          "name": "",
          "type": "uint256"
        }
      ],
      "stateMutability": "view",
      "type": "function"
    },
    {
      "inputs": [
        {
          "internalType": "uint256",
          "name": "_projectId",
          "type": "uint256"
        }
      ],
      "name": "currentBallotStateOf",
      "outputs": [
        {
          "internalType": "enum BallotState",
          "name": "",
          "type": "uint8"
        }
      ],
      "stateMutability": "view",
      "type": "function"
    },
    {
      "inputs": [
        {
          "internalType": "uint256",
          "name": "_projectId",
          "type": "uint256"
        }
      ],
      "name": "currentOf",
      "outputs": [
        {
          "components": [
            {
              "internalType": "uint256",
              "name": "id",
              "type": "uint256"
            },
            {
              "internalType": "uint256",
              "name": "projectId",
              "type": "uint256"
            },
            {
              "internalType": "uint256",
              "name": "number",
              "type": "uint256"
            },
            {
              "internalType": "uint256",
              "name": "basedOn",
              "type": "uint256"
            },
            {
              "internalType": "uint256",
              "name": "configured",
              "type": "uint256"
            },
            {
              "internalType": "uint256",
              "name": "cycleLimit",
              "type": "uint256"
            },
            {
              "internalType": "uint256",
              "name": "weight",
              "type": "uint256"
            },
            {
              "internalType": "contract IFundingCycleBallot",
              "name": "ballot",
              "type": "address"
            },
            {
              "internalType": "uint256",
              "name": "start",
              "type": "uint256"
            },
            {
              "internalType": "uint256",
              "name": "duration",
              "type": "uint256"
            },
            {
              "internalType": "uint256",
              "name": "target",
              "type": "uint256"
            },
            {
              "internalType": "uint256",
              "name": "currency",
              "type": "uint256"
            },
            {
              "internalType": "uint256",
              "name": "fee",
              "type": "uint256"
            },
            {
              "internalType": "uint256",
              "name": "discountRate",
              "type": "uint256"
            },
            {
              "internalType": "uint256",
              "name": "tapped",
              "type": "uint256"
            },
            {
              "internalType": "uint256",
              "name": "metadata",
              "type": "uint256"
            }
          ],
          "internalType": "struct FundingCycle",
          "name": "fundingCycle",
          "type": "tuple"
        }
      ],
      "stateMutability": "view",
      "type": "function"
    },
    {
      "inputs": [
        {
          "internalType": "uint256",
          "name": "_fundingCycleId",
          "type": "uint256"
        }
      ],
      "name": "get",
      "outputs": [
        {
          "components": [
            {
              "internalType": "uint256",
              "name": "id",
              "type": "uint256"
            },
            {
              "internalType": "uint256",
              "name": "projectId",
              "type": "uint256"
            },
            {
              "internalType": "uint256",
              "name": "number",
              "type": "uint256"
            },
            {
              "internalType": "uint256",
              "name": "basedOn",
              "type": "uint256"
            },
            {
              "internalType": "uint256",
              "name": "configured",
              "type": "uint256"
            },
            {
              "internalType": "uint256",
              "name": "cycleLimit",
              "type": "uint256"
            },
            {
              "internalType": "uint256",
              "name": "weight",
              "type": "uint256"
            },
            {
              "internalType": "contract IFundingCycleBallot",
              "name": "ballot",
              "type": "address"
            },
            {
              "internalType": "uint256",
              "name": "start",
              "type": "uint256"
            },
            {
              "internalType": "uint256",
              "name": "duration",
              "type": "uint256"
            },
            {
              "internalType": "uint256",
              "name": "target",
              "type": "uint256"
            },
            {
              "internalType": "uint256",
              "name": "currency",
              "type": "uint256"
            },
            {
              "internalType": "uint256",
              "name": "fee",
              "type": "uint256"
            },
            {
              "internalType": "uint256",
              "name": "discountRate",
              "type": "uint256"
            },
            {
              "internalType": "uint256",
              "name": "tapped",
              "type": "uint256"
            },
            {
              "internalType": "uint256",
              "name": "metadata",
              "type": "uint256"
            }
          ],
          "internalType": "struct FundingCycle",
          "name": "",
          "type": "tuple"
        }
      ],
      "stateMutability": "view",
      "type": "function"
    },
    {
      "inputs": [
        {
          "internalType": "uint256",
          "name": "",
          "type": "uint256"
        }
      ],
      "name": "latestIdOf",
      "outputs": [
        {
          "internalType": "uint256",
          "name": "",
          "type": "uint256"
        }
      ],
      "stateMutability": "view",
      "type": "function"
    },
    {
      "inputs": [
        {
          "internalType": "uint256",
          "name": "_projectId",
          "type": "uint256"
        }
      ],
      "name": "queuedOf",
      "outputs": [
        {
          "components": [
            {
              "internalType": "uint256",
              "name": "id",
              "type": "uint256"
            },
            {
              "internalType": "uint256",
              "name": "projectId",
              "type": "uint256"
            },
            {
              "internalType": "uint256",
              "name": "number",
              "type": "uint256"
            },
            {
              "internalType": "uint256",
              "name": "basedOn",
              "type": "uint256"
            },
            {
              "internalType": "uint256",
              "name": "configured",
              "type": "uint256"
            },
            {
              "internalType": "uint256",
              "name": "cycleLimit",
              "type": "uint256"
            },
            {
              "internalType": "uint256",
              "name": "weight",
              "type": "uint256"
            },
            {
              "internalType": "contract IFundingCycleBallot",
              "name": "ballot",
              "type": "address"
            },
            {
              "internalType": "uint256",
              "name": "start",
              "type": "uint256"
            },
            {
              "internalType": "uint256",
              "name": "duration",
              "type": "uint256"
            },
            {
              "internalType": "uint256",
              "name": "target",
              "type": "uint256"
            },
            {
              "internalType": "uint256",
              "name": "currency",
              "type": "uint256"
            },
            {
              "internalType": "uint256",
              "name": "fee",
              "type": "uint256"
            },
            {
              "internalType": "uint256",
              "name": "discountRate",
              "type": "uint256"
            },
            {
              "internalType": "uint256",
              "name": "tapped",
              "type": "uint256"
            },
            {
              "internalType": "uint256",
              "name": "metadata",
              "type": "uint256"
            }
          ],
          "internalType": "struct FundingCycle",
          "name": "",
          "type": "tuple"
        }
      ],
      "stateMutability": "view",
      "type": "function"
    },
    {
      "inputs": [
        {
          "internalType": "uint256",
          "name": "_projectId",
          "type": "uint256"
        },
        {
          "internalType": "uint256",
          "name": "_amount",
          "type": "uint256"
        }
      ],
      "name": "tap",
      "outputs": [
        {
          "components": [
            {
              "internalType": "uint256",
              "name": "id",
              "type": "uint256"
            },
            {
              "internalType": "uint256",
              "name": "projectId",
              "type": "uint256"
            },
            {
              "internalType": "uint256",
              "name": "number",
              "type": "uint256"
            },
            {
              "internalType": "uint256",
              "name": "basedOn",
              "type": "uint256"
            },
            {
              "internalType": "uint256",
              "name": "configured",
              "type": "uint256"
            },
            {
              "internalType": "uint256",
              "name": "cycleLimit",
              "type": "uint256"
            },
            {
              "internalType": "uint256",
              "name": "weight",
              "type": "uint256"
            },
            {
              "internalType": "contract IFundingCycleBallot",
              "name": "ballot",
              "type": "address"
            },
            {
              "internalType": "uint256",
              "name": "start",
              "type": "uint256"
            },
            {
              "internalType": "uint256",
              "name": "duration",
              "type": "uint256"
            },
            {
              "internalType": "uint256",
              "name": "target",
              "type": "uint256"
            },
            {
              "internalType": "uint256",
              "name": "currency",
              "type": "uint256"
            },
            {
              "internalType": "uint256",
              "name": "fee",
              "type": "uint256"
            },
            {
              "internalType": "uint256",
              "name": "discountRate",
              "type": "uint256"
            },
            {
              "internalType": "uint256",
              "name": "tapped",
              "type": "uint256"
            },
            {
              "internalType": "uint256",
              "name": "metadata",
              "type": "uint256"
            }
          ],
          "internalType": "struct FundingCycle",
          "name": "fundingCycle",
          "type": "tuple"
        }
      ],
      "stateMutability": "nonpayable",
      "type": "function"
    },
    {
      "inputs": [],
      "name": "terminalDirectory",
      "outputs": [
        {
          "internalType": "contract ITerminalDirectory",
          "name": "",
          "type": "address"
        }
      ],
      "stateMutability": "view",
      "type": "function"
    }
  ],
  "bytecode": {
    "object": "0x60a060405260006006553480156200001657600080fd5b5060405162002ab438038062002ab483398101604081905262000039916200004f565b60601b6001600160601b03191660805262000081565b6000602082840312156200006257600080fd5b81516001600160a01b03811681146200007a57600080fd5b9392505050565b60805160601c612a06620000ae60003960008181610135015281816102d901526109410152612a066000f3fe608060405234801561001057600080fd5b50600436106100c95760003560e01c80638a1b0eb411610081578063cdce9b2b1161005b578063cdce9b2b146101c2578063d614edc5146101e2578063e16fd0ec146101ea57600080fd5b80638a1b0eb41461017c5780639507d39a1461018f578063c55f571c146101a257600080fd5b806343a266c2116100b257806343a266c21461010a5780635c5500781461011d5780636abcf8e31461013057600080fd5b806306661abd146100ce5780631ee2c9bf146100ea575b600080fd5b6100d760065481565b6040519081526020015b60405180910390f35b6100fd6100f836600461269e565b6101fb565b6040516100e19190612701565b6100fd6101183660046125e6565b610512565b6100fd61012b3660046125e6565b610700565b6101577f000000000000000000000000000000000000000000000000000000000000000081565b60405173ffffffffffffffffffffffffffffffffffffffff90911681526020016100e1565b6100fd61018a366004612618565b610863565b6100fd61019d3660046125e6565b610e22565b6101b56101b03660046125e6565b610f39565b6040516100e191906126c0565b6100d76101d03660046125e6565b60056020526000908152604090205481565b6100d7602081565b6100d769d3c21bcecceda100000081565b61029160405180610200016040528060008152602001600081526020016000815260200160008152602001600081526020016000815260200160008152602001600073ffffffffffffffffffffffffffffffffffffffff16815260200160008152602001600081526020016000815260200160008152602001600081526020016000815260200160008152602001600081525090565b6040517f4fe0eced000000000000000000000000000000000000000000000000000000008152600481018490528390339073ffffffffffffffffffffffffffffffffffffffff7f00000000000000000000000000000000000000000000000000000000000000001690634fe0eced9060240160206040518083038186803b15801561031b57600080fd5b505afa15801561032f573d6000803e3d6000fd5b505050506040513d601f19601f8201168201806040525081019061035391906125a8565b73ffffffffffffffffffffffffffffffffffffffff16146103d5576040517f08c379a000000000000000000000000000000000000000000000000000000000815260206004820152601d60248201527f5465726d696e616c5574696c6974793a20554e415554484f52495a454400000060448201526064015b60405180910390fd5b60006103e085611019565b6000818152600460209081526040808320546003909252909120549192509061040a9082906128ba565b851115610499576040517f08c379a000000000000000000000000000000000000000000000000000000000815260206004820152602660248201527f46756e64696e674379636c65733a3a7461703a20494e53554646494349454e5460448201527f5f46554e4453000000000000000000000000000000000000000000000000000060648201526084016103cc565b60006104a58683612851565b600084815260046020908152604091829020839055815189815290810183905233818301529051919250889185917fb16453f203e70875883e4ba9c674627ad465d6eb3102bbcad8aa467c0da75fd8919081900360600190a3610507836112d8565b979650505050505050565b6105a860405180610200016040528060008152602001600081526020016000815260200160008152602001600081526020016000815260200160008152602001600073ffffffffffffffffffffffffffffffffffffffff16815260200160008152602001600081526020016000815260200160008152602001600081526020016000815260200160008152602001600081525090565b6000828152600560205260409020546105cb576105c560006112d8565b92915050565b60006105d683611489565b9050806105e9576105e68361157c565b90505b61067f60405180610200016040528060008152602001600081526020016000815260200160008152602001600081526020016000815260200160008152602001600073ffffffffffffffffffffffffffffffffffffffff16815260200160008152602001600081526020016000815260200160008152602001600081526020016000815260200160008152602001600081525090565b81156106c15761068e826112d8565b905042816101000151111580156106a957506106a9816115c0565b156106b5579392505050565b806060015191506106d3565b60008481526005602052604090205491505b816106ea576106e260006112d8565b949350505050565b6106f3826112d8565b90506106e28160016115f2565b61079660405180610200016040528060008152602001600081526020016000815260200160008152602001600081526020016000815260200160008152602001600073ffffffffffffffffffffffffffffffffffffffff16815260200160008152602001600081526020016000815260200160008152602001600081526020016000815260200160008152602001600081525090565b6000828152600560205260409020546107b3576105c560006112d8565b60006107be8361157c565b905080156107d6576107cf816112d8565b9392505050565b6107df83611489565b905080156108305760006107f2826112d8565b90508061012001516000141561080c576106e260006112d8565b610815816115c0565b15610825576106e28160006115f2565b606001519050610841565b506000828152600560205260409020545b80610850576107cf60006112d8565b6107cf61085c826112d8565b60006115f2565b6108f960405180610200016040528060008152602001600081526020016000815260200160008152602001600081526020016000815260200160008152602001600073ffffffffffffffffffffffffffffffffffffffff16815260200160008152602001600081526020016000815260200160008152602001600081526020016000815260200160008152602001600081525090565b6040517f4fe0eced000000000000000000000000000000000000000000000000000000008152600481018790528690339073ffffffffffffffffffffffffffffffffffffffff7f00000000000000000000000000000000000000000000000000000000000000001690634fe0eced9060240160206040518083038186803b15801561098357600080fd5b505afa158015610997573d6000803e3d6000fd5b505050506040513d601f19601f820116820180604052508101906109bb91906125a8565b73ffffffffffffffffffffffffffffffffffffffff1614610a38576040517f08c379a000000000000000000000000000000000000000000000000000000000815260206004820152601d60248201527f5465726d696e616c5574696c6974793a20554e415554484f52495a454400000060448201526064016103cc565b61ffff60408701351115610ace576040517f08c379a000000000000000000000000000000000000000000000000000000000815260206004820152602660248201527f46756e64696e674379636c65733a3a636f6e6669677572653a204241445f445560448201527f524154494f4e000000000000000000000000000000000000000000000000000060648201526084016103cc565b602086606001351115610b63576040517f08c379a000000000000000000000000000000000000000000000000000000000815260206004820152602960248201527f46756e64696e674379636c65733a3a636f6e6669677572653a204241445f435960448201527f434c455f4c494d4954000000000000000000000000000000000000000000000060648201526084016103cc565b60c986608001351115610bf8576040517f08c379a000000000000000000000000000000000000000000000000000000000815260206004820152602b60248201527f46756e64696e674379636c65733a3a636f6e6669677572653a204241445f444960448201527f53434f554e545f5241544500000000000000000000000000000000000000000060648201526084016103cc565b60ff60208701351115610c8d576040517f08c379a000000000000000000000000000000000000000000000000000000000815260206004820152602660248201527f46756e64696e674379636c65733a3a636f6e6669677572653a204241445f435560448201527f5252454e4359000000000000000000000000000000000000000000000000000060648201526084016103cc565b60c8841115610d1e576040517f08c379a000000000000000000000000000000000000000000000000000000000815260206004820152602160248201527f46756e64696e674379636c65733a3a636f6e6669677572653a204241445f464560448201527f450000000000000000000000000000000000000000000000000000000000000060648201526084016103cc565b426000610d2c898387611896565b9050610dab818360608b0135610d4860c08d0160a08e0161258b565b6000938452602084815260409485902073ffffffffffffffffffffffffffffffffffffffff9290921660a09490941b93909317938d013560d01b93909317918c013560e01b9190911760e88a901b1760808c013560f01b1760f89190911b179055565b60008181526003602090815260408083208b35905560029091529081902088905551899082907f738f28809aeff63352b71b8dc894c5e51b2758e1ff1d6b00b50f8dc10916000890610e049086908d908d9033906127d1565b60405180910390a3610e15816112d8565b9998505050505050505050565b610eb860405180610200016040528060008152602001600081526020016000815260200160008152602001600081526020016000815260200160008152602001600073ffffffffffffffffffffffffffffffffffffffff16815260200160008152602001600081526020016000815260200160008152602001600081526020016000815260200160008152602001600081525090565b600082118015610eca57506006548211155b610f30576040517f08c379a000000000000000000000000000000000000000000000000000000000815260206004820152601c60248201527f46756e64696e674379636c653a3a6765743a204e4f545f464f554e440000000060448201526064016103cc565b6105c5826112d8565b600081815260056020526040812054610fd4576040517f08c379a000000000000000000000000000000000000000000000000000000000815260206004820152602e60248201527f46756e64696e674379636c65733a3a63757272656e7442616c6c6f745374617460448201527f654f663a204e4f545f464f554e4400000000000000000000000000000000000060648201526084016103cc565b60008281526005602052604081205490610fed826112d8565b9050806060015160001415611006575060039392505050565b6106e28282608001518360600151611a87565b600061102482611489565b905080611037576110348261157c565b90505b6110cd60405180610200016040528060008152602001600081526020016000815260200160008152602001600081526020016000815260200160008152602001600073ffffffffffffffffffffffffffffffffffffffff16815260200160008152602001600081526020016000815260200160008152602001600081526020016000815260200160008152602001600081525090565b811561110e576110dc826112d8565b905042816101000151111580156110f757506110f7816115c0565b156111025750919050565b80606001519150611120565b60008381526005602052604090205491505b600082116111b0576040517f08c379a000000000000000000000000000000000000000000000000000000000815260206004820152602360248201527f46756e64696e674379636c65733a3a5f7461707061626c653a204e4f545f464f60448201527f554e44000000000000000000000000000000000000000000000000000000000060648201526084016103cc565b6111b9826112d8565b905060c9816101a0015110611250576040517f08c379a000000000000000000000000000000000000000000000000000000000815260206004820152602760248201527f46756e64696e674379636c65733a3a5f7461707061626c653a204e4f4e5f524560448201527f43555252494e470000000000000000000000000000000000000000000000000060648201526084016103cc565b600062015180826101200151611266919061287d565b8261010001516112769190612851565b905060008261012001516000146112b4576201518083610120015161129b919061287d565b6112a583426128ba565b6112af919061290a565b6112b7565b60005b90506112cf85846112c884426128ba565b6001611b94565b95945050505050565b61136e60405180610200016040528060008152602001600081526020016000815260200160008152602001600081526020016000815260200160008152602001600073ffffffffffffffffffffffffffffffffffffffff16815260200160008152602001600081526020016000815260200160008152602001600081526020016000815260200160008152602001600081525090565b8161137857919050565b81815260008281526001602090815260408083205469ffffffffffffffffffff811660c086015266ffffffffffffff605082901c168386015265ffffffffffff608882901c8116606087015260b882901c811661010087015260e891821c838701528685528484528285205473ffffffffffffffffffffffffffffffffffffffff811660e08089019190915260a082811c909316608089015261ffff60d083901c1661012089015260ff9082901c81166101608901529281901c831661018088015260f081901c9092166101a087015260f89190911c90850152848352600382528083205461014085015284835260048252808320546101c08501529382526002905291909120546101e082015290565b600081815260056020526040902054806114a557506000919050565b60006114b0826112d8565b905060008161012001511180156114ea5750620151808161012001516114d6919061287d565b8161010001516114e69190612851565b4210155b156114f85750600092915050565b6060810151158061150e57508061010001514210155b156115195750919050565b600061152882606001516112d8565b9050600081610120015111801561156257506201518081610120015161154e919061287d565b81610100015161155e9190612851565b4210155b15611571575060009392505050565b506060015192915050565b6000818152600560205260409020548061159857506000919050565b60006115a3826112d8565b905080610100015142106115ba5750600092915050565b50919050565b6000806115da836000015184608001518560600151611a87565b60038111156115eb576115eb61297c565b1492915050565b61168860405180610200016040528060008152602001600081526020016000815260200160008152602001600081526020016000815260200160008152602001600073ffffffffffffffffffffffffffffffffffffffff16815260200160008152602001600081526020016000815260200160008152602001600081526020016000815260200160008152602001600081525090565b826101a0015160c914156116a7576116a060006112d8565b90506105c5565b6000808460a00151116116ba57836116c3565b6116c384611c97565b905060008380156116d957506000856101200151115b1561178c576000620151808661012001518760a001516116f9919061287d565b611703919061287d565b8661010001516117139190612851565b905060008660a0015111801561172857504281105b1561176f5761012083015115611765576201518083610120015161174c919061287d565b61175682426128ba565b611760919061290a565b611768565b60005b9150611786565b62015180866101200151611783919061287d565b91505b50611790565b5060005b60006117a686846117a185426128ba565b611d64565b905060006117b48783611e9a565b9050600081156117c457876117c6565b845b905060405180610200016040528060008152602001826020015181526020016117f08a8887611f17565b815282516020820152608080840151604083015260608201859052016118178a888761204b565b81526020018260e0015173ffffffffffffffffffffffffffffffffffffffff1681526020018481526020018261012001518152602001826101400151815260200182610160015181526020018261018001518152602001826101a00151815260200160008152602001826101e001518152509550505050505092915050565b6000838152600560205260408120546118c6576118bf846118b760006112d8565b426000611b94565b90506107cf565b6118cf8461157c565b9050801561190c5760006118ee6118e5836112d8565b606001516112d8565b905061190682826118ff848861222c565b60006122fb565b506107cf565b61191584611489565b9050801561194e576119268161246f565b61193e57611933816112d8565b60600151905061195f565b8115611949576107cf565b61195f565b506000838152600560205260409020545b60008061196b836112d8565b905060c9816101a0015110611a02576040517f08c379a000000000000000000000000000000000000000000000000000000000815260206004820152602b60248201527f46756e64696e674379636c65733a3a5f636f6e666967757261626c653a204e4f60448201527f4e5f524543555252494e4700000000000000000000000000000000000000000060648201526084016103cc565b8315611a6357610120810151611a1f578061010001519150611a70565b600062015180826101200151611a35919061287d565b610100830151611a4590426128ba565b611a4f919061290a565b9050611a5b81426128ba565b925050611a70565b611a6d818661222c565b91505b611a7d8682846000611b94565b9695505050505050565b600081611a96575060006107cf565b6000611aa1836112d8565b90508381608001511415611ab95760009150506107cf565b60e081015173ffffffffffffffffffffffffffffffffffffffff1615611b895760e08101516040517f4d393dc9000000000000000000000000000000000000000000000000000000008152600481018790526024810186905273ffffffffffffffffffffffffffffffffffffffff90911690634d393dc99060440160206040518083038186803b158015611b4c57600080fd5b505afa158015611b60573d6000803e3d6000fd5b505050506040513d601f19601f82011682018060405250810190611b8491906125c5565b6112cf565b600095945050505050565b6006805460009182611ba5836128d1565b90915550506006546000868152600560205260409020558351611c045760065460009081526001602052604090207d0100000000000000000000000000000000000000d3c21bcecceda1000000605087901b4260b81b17179055611c12565b611c126006548585856122fb565b6000611c1f6006546112d8565b905080602001516006547f3430b8834fcab595f0e68ee663700fdf7bc5e4eaf56d4eec6b0c2fb911b4afae836040015184606001518560c00151866101000151604051611c85949392919093845260208401929092526040830152606082015260800190565b60405180910390a35195945050505050565b611d2d60405180610200016040528060008152602001600081526020016000815260200160008152602001600081526020016000815260200160008152602001600073ffffffffffffffffffffffffffffffffffffffff16815260200160008152602001600081526020016000815260200160008152602001600081526020016000815260200160008152602001600081525090565b6060820151611d3a575090565b611d4782606001516112d8565b90508060a0015160001415611d5b57919050565b6105c581611c97565b600083610120015160001415611d7b5750806107cf565b600062015180856101200151611d91919061287d565b9050600081866101000151611da69190612851565b9050838110611db85791506107cf9050565b60a08601516000611dc9828561287d565b886101000151611dd99190612851565b8611611dfb5783611dea84886128ba565b611df4919061290a565b9050611e69565b61012087015115611e4d5762015180876101200151611e1a919061287d565b611e24838661287d565b896101000151611e349190612851565b611e3e90886128ba565b611e48919061290a565b611e50565b60005b905062015180876101200151611e66919061287d565b93505b611e7381876128ba565b94505b84861115611e8f57611e888486612851565b9450611e76565b505050509392505050565b600060018360a00151111580611eb35750610120830151155b15611ec0575060006105c5565b600062015180846101200151611ed6919061287d565b610100850151611ee690856128ba565b611ef09190612869565b90508360a001518110611f075760009150506105c5565b808460a001516106e291906128ba565b600083610120015160001415611f375760408401516118bf906001612851565b600084610100015183611f4a91906128ba565b905060008560a00151600014611f825762015180866101200151611f6e919061287d565b8660a00151611f7d919061287d565b611f85565b60005b9050801580611f9357508181115b15611fcc5762015180866101200151611fac919061287d565b611fb69083612869565b8660400151611fc59190612851565b9250612042565b62015180866101200151611fe0919061287d565b611fea9082612869565b8660400151611ff99190612851565b9250846101200151600014612035576201518085610120015161201c919061287d565b61202682846128ba565b6120309190612869565b612038565b60005b611a7d9084612851565b50509392505050565b60008361012001516000141561207e576118bf8460c00151856101a001516103e861207691906128ba565b6103e8612486565b60008461010001518361209191906128ba565b905060008560a00151600014806120aa57506060860151155b6120d657620151808661012001516120c2919061287d565b8660a001516120d1919061287d565b6120d9565b60005b60c0870151935090508015806120ee57508181115b15612163576101a08601516121045750506107cf565b60006201518087610120015161211a919061287d565b6121249084612869565b905060005b8181101561215c5761214885896101a001516103e861207691906128ba565b945080612154816128d1565b915050612129565b5050612042565b6101a0860151156121aa5760005b8660a001518110156121a85761219484886101a001516103e861207691906128ba565b9350806121a0816128d1565b915050612171565b505b6101a0850151156120425760008561012001516000146121f157620151808661012001516121d8919061287d565b6121e283856128ba565b6121ec9190612869565b6121f4565b60005b905060005b81811015611e8f5761221885886101a001516103e861207691906128ba565b945080612224816128d1565b9150506121f9565b60e0820151600090819073ffffffffffffffffffffffffffffffffffffffff166122575760006122e3565b8360e0015173ffffffffffffffffffffffffffffffffffffffff16630fb5a6b46040518163ffffffff1660e01b815260040160206040518083038186803b1580156122a157600080fd5b505afa1580156122b5573d6000803e3d6000fd5b505050506040513d601f19601f820116820180604052508101906122d991906125ff565b6122e39084612851565b90508042116122f257806106e2565b50429392505050565b6000808460a001511161230e5783612317565b61231784611c97565b90506000612326858386611d64565b9050600061233586848461204b565b90506000612344878585611f17565b9050841561242e5760006123588885611e9a565b905060008115612368578861236a565b855b90506123f78a8260800151848460e00151856101200151866101600151876101800151886101a0015160009788526020889052604090972060f89590951b60f09790971b60e89190911b60e09290921b60d09390931b60a09690961b73ffffffffffffffffffffffffffffffffffffffff9094169390931794909417179290921791909117919091179055565b8051600090815260026020908152604080832054600680548552828520919091559351835260039091528082205492548252902055505b602080880151885160008b81526001909352604090922060509190911b841760889290921b9190911760b885901b1760e883901b1790555050505050505050565b60008061247b836112d8565b90506107cf816115c0565b600080807fffffffffffffffffffffffffffffffffffffffffffffffffffffffffffffffff85870985870292508281108382030391505080600014156124df578382816124d5576124d561294d565b04925050506107cf565b838110612522576040517f773cc18c00000000000000000000000000000000000000000000000000000000815260048101829052602481018590526044016103cc565b60008486880960026001871981018816978890046003810283188082028403028082028403028082028403028082028403028082028403029081029092039091026000889003889004909101858311909403939093029303949094049190911702949350505050565b60006020828403121561259d57600080fd5b81356107cf816129ab565b6000602082840312156125ba57600080fd5b81516107cf816129ab565b6000602082840312156125d757600080fd5b8151600481106107cf57600080fd5b6000602082840312156125f857600080fd5b5035919050565b60006020828403121561261157600080fd5b5051919050565b600080600080600085870361014081121561263257600080fd5b8635955060c07fffffffffffffffffffffffffffffffffffffffffffffffffffffffffffffffe08201121561266657600080fd5b5060208601935060e086013592506101008601359150610120860135801515811461269057600080fd5b809150509295509295909350565b600080604083850312156126b157600080fd5b50508035926020909101359150565b60208101600483106126fb577f4e487b7100000000000000000000000000000000000000000000000000000000600052602160045260246000fd5b91905290565b600061020082019050825182526020830151602083015260408301516040830152606083015160608301526080830151608083015260a083015160a083015260c083015160c083015260e083015161277160e084018273ffffffffffffffffffffffffffffffffffffffff169052565b50610100838101519083015261012080840151908301526101408084015190830152610160808401519083015261018080840151908301526101a080840151908301526101c080840151908301526101e092830151929091019190915290565b60006101208201905085825284356020830152602085013560408301526040850135606083015260608501356080830152608085013560a083015260a085013561281a816129ab565b73ffffffffffffffffffffffffffffffffffffffff80821660c08501528560e0850152808516610100850152505095945050505050565b600082198211156128645761286461291e565b500190565b6000826128785761287861294d565b500490565b6000817fffffffffffffffffffffffffffffffffffffffffffffffffffffffffffffffff04831182151516156128b5576128b561291e565b500290565b6000828210156128cc576128cc61291e565b500390565b60007fffffffffffffffffffffffffffffffffffffffffffffffffffffffffffffffff8214156129035761290361291e565b5060010190565b6000826129195761291961294d565b500690565b7f4e487b7100000000000000000000000000000000000000000000000000000000600052601160045260246000fd5b7f4e487b7100000000000000000000000000000000000000000000000000000000600052601260045260246000fd5b7f4e487b7100000000000000000000000000000000000000000000000000000000600052602160045260246000fd5b73ffffffffffffffffffffffffffffffffffffffff811681146129cd57600080fd5b5056fea2646970667358221220d49efca538867e616be38b146a8a776f4f697cda7aa23d472594c82ea0dee4a664736f6c63430008060033",
    "linkReferences": {}
  },
  "methodIdentifiers": {
    "BASE_WEIGHT()": "e16fd0ec",
    "MAX_CYCLE_LIMIT()": "d614edc5",
    "configure(uint256,(uint256,uint256,uint256,uint256,uint256,address),uint256,uint256,bool)": "8a1b0eb4",
    "count()": "06661abd",
    "currentBallotStateOf(uint256)": "c55f571c",
    "currentOf(uint256)": "43a266c2",
    "get(uint256)": "9507d39a",
    "latestIdOf(uint256)": "cdce9b2b",
    "queuedOf(uint256)": "5c550078",
    "tap(uint256,uint256)": "1ee2c9bf",
    "terminalDirectory()": "6abcf8e3"
  },
  "id": 26
}